{
  "contractName": "BitcademyVesting",
  "abi": [
    {
      "constant": true,
      "inputs": [
        {
          "name": "",
          "type": "address"
        }
      ],
      "name": "members",
      "outputs": [
        {
          "name": "",
          "type": "bool"
        }
      ],
      "payable": false,
      "stateMutability": "view",
      "type": "function"
    },
    {
      "constant": true,
      "inputs": [],
      "name": "duration",
      "outputs": [
        {
          "name": "",
          "type": "uint256"
        }
      ],
      "payable": false,
      "stateMutability": "view",
      "type": "function"
    },
    {
      "constant": true,
      "inputs": [],
      "name": "cliff",
      "outputs": [
        {
          "name": "",
          "type": "uint256"
        }
      ],
      "payable": false,
      "stateMutability": "view",
      "type": "function"
    },
    {
      "constant": true,
      "inputs": [
        {
          "name": "",
          "type": "address"
        }
      ],
      "name": "nextRelease",
      "outputs": [
        {
          "name": "",
          "type": "uint256"
        }
      ],
      "payable": false,
      "stateMutability": "view",
      "type": "function"
    },
    {
      "constant": true,
      "inputs": [],
      "name": "countRelease",
      "outputs": [
        {
          "name": "",
          "type": "uint256"
        }
      ],
      "payable": false,
      "stateMutability": "view",
      "type": "function"
    },
    {
      "constant": true,
      "inputs": [],
      "name": "ReleaseCap",
      "outputs": [
        {
          "name": "",
          "type": "uint256"
        }
      ],
      "payable": false,
      "stateMutability": "view",
      "type": "function"
    },
    {
      "constant": false,
      "inputs": [],
      "name": "renounceOwnership",
      "outputs": [],
      "payable": false,
      "stateMutability": "nonpayable",
      "type": "function"
    },
    {
      "constant": true,
      "inputs": [],
      "name": "Releases",
      "outputs": [
        {
          "name": "",
          "type": "uint256"
        }
      ],
      "payable": false,
      "stateMutability": "view",
      "type": "function"
    },
    {
      "constant": true,
      "inputs": [],
      "name": "owner",
      "outputs": [
        {
          "name": "",
          "type": "address"
        }
      ],
      "payable": false,
      "stateMutability": "view",
      "type": "function"
    },
    {
      "constant": true,
      "inputs": [],
      "name": "noOfMembers",
      "outputs": [
        {
          "name": "",
          "type": "uint256"
        }
      ],
      "payable": false,
      "stateMutability": "view",
      "type": "function"
    },
    {
      "constant": true,
      "inputs": [],
      "name": "interval",
      "outputs": [
        {
          "name": "",
          "type": "uint256"
        }
      ],
      "payable": false,
      "stateMutability": "view",
      "type": "function"
    },
    {
      "constant": true,
      "inputs": [],
      "name": "released",
      "outputs": [
        {
          "name": "",
          "type": "uint256"
        }
      ],
      "payable": false,
      "stateMutability": "view",
      "type": "function"
    },
    {
      "constant": true,
      "inputs": [],
      "name": "start",
      "outputs": [
        {
          "name": "",
          "type": "uint256"
        }
      ],
      "payable": false,
      "stateMutability": "view",
      "type": "function"
    },
    {
      "constant": true,
      "inputs": [
        {
          "name": "",
          "type": "address"
        }
      ],
      "name": "numReleases",
      "outputs": [
        {
          "name": "",
          "type": "uint256"
        }
      ],
      "payable": false,
      "stateMutability": "view",
      "type": "function"
    },
    {
      "constant": false,
      "inputs": [
        {
          "name": "_newOwner",
          "type": "address"
        }
      ],
      "name": "transferOwnership",
      "outputs": [],
      "payable": false,
      "stateMutability": "nonpayable",
      "type": "function"
    },
    {
      "inputs": [
        {
          "name": "_start",
          "type": "uint256"
        },
        {
          "name": "_cliff",
          "type": "uint256"
        },
        {
          "name": "_duration",
          "type": "uint256"
        },
        {
          "name": "_interval",
          "type": "uint256"
        }
      ],
      "payable": false,
      "stateMutability": "nonpayable",
      "type": "constructor"
    },
    {
      "anonymous": false,
      "inputs": [
        {
          "indexed": false,
          "name": "amount",
          "type": "uint256"
        }
      ],
      "name": "Released",
      "type": "event"
    },
    {
      "anonymous": false,
      "inputs": [
        {
          "indexed": true,
          "name": "previousOwner",
          "type": "address"
        }
      ],
      "name": "OwnershipRenounced",
      "type": "event"
    },
    {
      "anonymous": false,
      "inputs": [
        {
          "indexed": true,
          "name": "previousOwner",
          "type": "address"
        },
        {
          "indexed": true,
          "name": "newOwner",
          "type": "address"
        }
      ],
      "name": "OwnershipTransferred",
      "type": "event"
    },
    {
      "constant": false,
      "inputs": [
        {
          "name": "_member",
          "type": "address"
        }
      ],
      "name": "addMember",
      "outputs": [],
      "payable": false,
      "stateMutability": "nonpayable",
      "type": "function"
    },
    {
      "constant": false,
      "inputs": [
        {
          "name": "_member",
          "type": "address"
        }
      ],
      "name": "removeMember",
      "outputs": [],
      "payable": false,
      "stateMutability": "nonpayable",
      "type": "function"
    },
    {
      "constant": false,
      "inputs": [
        {
          "name": "_token",
          "type": "address"
        },
        {
          "name": "_member",
          "type": "address"
        }
      ],
      "name": "release",
      "outputs": [],
      "payable": false,
      "stateMutability": "nonpayable",
      "type": "function"
    }
  ],
  "bytecode": "0x6080604052600060055534801561001557600080fd5b5060405160808061144f83398101806040528101908080519060200190929190805190602001909291908051906020019092919080519060200190929190505050336000806101000a81548173ffffffffffffffffffffffffffffffffffffffff021916908373ffffffffffffffffffffffffffffffffffffffff1602179055508183111515156100a557600080fd5b816003819055506100cc83856100e9640100000000026111ab179091906401000000009004565b600181905550836002819055508060048190555050505050610105565b600081830190508281101515156100fc57fe5b80905092915050565b61133b806101146000396000f3006080604052600436106100fc576000357c0100000000000000000000000000000000000000000000000000000000900463ffffffff16806308ae4b0c146101015780630b1ca49a1461015c5780630fb5a6b41461019f57806313d033c0146101ca5780633c33d45d146101f557806348b750441461024c5780635a896bea146102af57806361bb804e146102da578063715018a6146103055780638d77659a1461031c5780638da5cb5b1461034757806391c389701461039e578063947a36fb146103c957806396132521146103f4578063be9a65551461041f578063ca6d56dc1461044a578063d187dcfa1461048d578063f2fde38b146104e4575b600080fd5b34801561010d57600080fd5b50610142600480360381019080803573ffffffffffffffffffffffffffffffffffffffff169060200190929190505050610527565b604051808215151515815260200191505060405180910390f35b34801561016857600080fd5b5061019d600480360381019080803573ffffffffffffffffffffffffffffffffffffffff169060200190929190505050610547565b005b3480156101ab57600080fd5b506101b461068a565b6040518082815260200191505060405180910390f35b3480156101d657600080fd5b506101df610690565b6040518082815260200191505060405180910390f35b34801561020157600080fd5b50610236600480360381019080803573ffffffffffffffffffffffffffffffffffffffff169060200190929190505050610696565b6040518082815260200191505060405180910390f35b34801561025857600080fd5b506102ad600480360381019080803573ffffffffffffffffffffffffffffffffffffffff169060200190929190803573ffffffffffffffffffffffffffffffffffffffff1690602001909291905050506106ae565b005b3480156102bb57600080fd5b506102c4610e77565b6040518082815260200191505060405180910390f35b3480156102e657600080fd5b506102ef610e7d565b6040518082815260200191505060405180910390f35b34801561031157600080fd5b5061031a610e8c565b005b34801561032857600080fd5b50610331610f8e565b6040518082815260200191505060405180910390f35b34801561035357600080fd5b5061035c610f93565b604051808273ffffffffffffffffffffffffffffffffffffffff1673ffffffffffffffffffffffffffffffffffffffff16815260200191505060405180910390f35b3480156103aa57600080fd5b506103b3610fb8565b6040518082815260200191505060405180910390f35b3480156103d557600080fd5b506103de610fbe565b6040518082815260200191505060405180910390f35b34801561040057600080fd5b50610409610fc4565b6040518082815260200191505060405180910390f35b34801561042b57600080fd5b50610434610fca565b6040518082815260200191505060405180910390f35b34801561045657600080fd5b5061048b600480360381019080803573ffffffffffffffffffffffffffffffffffffffff169060200190929190505050610fd0565b005b34801561049957600080fd5b506104ce600480360381019080803573ffffffffffffffffffffffffffffffffffffffff169060200190929190505050611113565b6040518082815260200191505060405180910390f35b3480156104f057600080fd5b50610525600480360381019080803573ffffffffffffffffffffffffffffffffffffffff16906020019092919050505061112b565b005b60066020528060005260406000206000915054906101000a900460ff1681565b6000809054906101000a900473ffffffffffffffffffffffffffffffffffffffff1673ffffffffffffffffffffffffffffffffffffffff163373ffffffffffffffffffffffffffffffffffffffff161415156105a257600080fd5b60011515600660008373ffffffffffffffffffffffffffffffffffffffff1673ffffffffffffffffffffffffffffffffffffffff16815260200190815260200160002060009054906101000a900460ff16151514151561060157600080fd5b60006005541115151561061357600080fd5b6000600660008373ffffffffffffffffffffffffffffffffffffffff1673ffffffffffffffffffffffffffffffffffffffff16815260200190815260200160002060006101000a81548160ff021916908315150217905550610681600160095461119290919063ffffffff16565b60098190555050565b60035481565b60015481565b60086020528060005260406000206000915090505481565b60008060008360011515600660008373ffffffffffffffffffffffffffffffffffffffff1673ffffffffffffffffffffffffffffffffffffffff16815260200190815260200160002060009054906101000a900460ff16151514151561071357600080fd5b6001544211151561072357600080fd5b8573ffffffffffffffffffffffffffffffffffffffff166370a08231306040518263ffffffff167c0100000000000000000000000000000000000000000000000000000000028152600401808273ffffffffffffffffffffffffffffffffffffffff1673ffffffffffffffffffffffffffffffffffffffff168152602001915050602060405180830381600087803b1580156107be57600080fd5b505af11580156107d2573d6000803e3d6000fd5b505050506040513d60208110156107e857600080fd5b81019080805190602001909291905050509350610810600a54856111ab90919063ffffffff16565b9250610827600a548461119290919063ffffffff16565b915060008211151561083857600080fd5b6012600760008773ffffffffffffffffffffffffffffffffffffffff1673ffffffffffffffffffffffffffffffffffffffff168152602001908152602001600020541115151561088757600080fd5b6000600760008773ffffffffffffffffffffffffffffffffffffffff1673ffffffffffffffffffffffffffffffffffffffff168152602001908152602001600020541415610b38576108e66001546004546111ab90919063ffffffff16565b42101515156108f457600080fd5b61090982600a546111ab90919063ffffffff16565b600a8190555061094261092860126009546111c790919063ffffffff16565b6a7c13bc4b2c133c560000006111ff90919063ffffffff16565b91508573ffffffffffffffffffffffffffffffffffffffff1663a9059cbb86846040518363ffffffff167c0100000000000000000000000000000000000000000000000000000000028152600401808373ffffffffffffffffffffffffffffffffffffffff1673ffffffffffffffffffffffffffffffffffffffff16815260200182815260200192505050602060405180830381600087803b1580156109e757600080fd5b505af11580156109fb573d6000803e3d6000fd5b505050506040513d6020811015610a1157600080fd5b810190808051906020019092919050505050610a766001600760008873ffffffffffffffffffffffffffffffffffffffff1673ffffffffffffffffffffffffffffffffffffffff168152602001908152602001600020546111ab90919063ffffffff16565b600760008773ffffffffffffffffffffffffffffffffffffffff1673ffffffffffffffffffffffffffffffffffffffff16815260200190815260200160002081905550610ae4600454610ad66001546004546111ab90919063ffffffff16565b6111ab90919063ffffffff16565b600860008773ffffffffffffffffffffffffffffffffffffffff1673ffffffffffffffffffffffffffffffffffffffff16815260200190815260200160002081905550600160055401600581905550610e38565b6000600760008773ffffffffffffffffffffffffffffffffffffffff1673ffffffffffffffffffffffffffffffffffffffff168152602001908152602001600020541115610e3757600860008673ffffffffffffffffffffffffffffffffffffffff1673ffffffffffffffffffffffffffffffffffffffff168152602001908152602001600020544210151515610bce57600080fd5b610be382600a546111ab90919063ffffffff16565b600a81905550610c1c610c0260126009546111c790919063ffffffff16565b6a7c13bc4b2c133c560000006111ff90919063ffffffff16565b91508573ffffffffffffffffffffffffffffffffffffffff1663a9059cbb86846040518363ffffffff167c0100000000000000000000000000000000000000000000000000000000028152600401808373ffffffffffffffffffffffffffffffffffffffff1673ffffffffffffffffffffffffffffffffffffffff16815260200182815260200192505050602060405180830381600087803b158015610cc157600080fd5b505af1158015610cd5573d6000803e3d6000fd5b505050506040513d6020811015610ceb57600080fd5b810190808051906020019092919050505050610d506001600760008873ffffffffffffffffffffffffffffffffffffffff1673ffffffffffffffffffffffffffffffffffffffff168152602001908152602001600020546111ab90919063ffffffff16565b600760008773ffffffffffffffffffffffffffffffffffffffff1673ffffffffffffffffffffffffffffffffffffffff16815260200190815260200160002081905550610de7600454600860008873ffffffffffffffffffffffffffffffffffffffff1673ffffffffffffffffffffffffffffffffffffffff168152602001908152602001600020546111ab90919063ffffffff16565b600860008773ffffffffffffffffffffffffffffffffffffffff1673ffffffffffffffffffffffffffffffffffffffff168152602001908152602001600020819055506001600554016005819055505b5b7ffb81f9b30d73d830c3544b34d827c08142579ee75710b490bab0b3995468c565826040518082815260200191505060405180910390a1505050505050565b60055481565b6a7c13bc4b2c133c5600000081565b6000809054906101000a900473ffffffffffffffffffffffffffffffffffffffff1673ffffffffffffffffffffffffffffffffffffffff163373ffffffffffffffffffffffffffffffffffffffff16141515610ee757600080fd5b6000809054906101000a900473ffffffffffffffffffffffffffffffffffffffff1673ffffffffffffffffffffffffffffffffffffffff167ff8df31144d9c2f0f6b59d69b8b98abd5459d07f2742c4df920b25aae33c6482060405160405180910390a260008060006101000a81548173ffffffffffffffffffffffffffffffffffffffff021916908373ffffffffffffffffffffffffffffffffffffffff160217905550565b601281565b6000809054906101000a900473ffffffffffffffffffffffffffffffffffffffff1681565b60095481565b60045481565b600a5481565b60025481565b6000809054906101000a900473ffffffffffffffffffffffffffffffffffffffff1673ffffffffffffffffffffffffffffffffffffffff163373ffffffffffffffffffffffffffffffffffffffff1614151561102b57600080fd5b60001515600660008373ffffffffffffffffffffffffffffffffffffffff1673ffffffffffffffffffffffffffffffffffffffff16815260200190815260200160002060009054906101000a900460ff16151514151561108a57600080fd5b60006005541115151561109c57600080fd5b6001600660008373ffffffffffffffffffffffffffffffffffffffff1673ffffffffffffffffffffffffffffffffffffffff16815260200190815260200160002060006101000a81548160ff02191690831515021790555061110a60016009546111ab90919063ffffffff16565b60098190555050565b60076020528060005260406000206000915090505481565b6000809054906101000a900473ffffffffffffffffffffffffffffffffffffffff1673ffffffffffffffffffffffffffffffffffffffff163373ffffffffffffffffffffffffffffffffffffffff1614151561118657600080fd5b61118f81611215565b50565b60008282111515156111a057fe5b818303905092915050565b600081830190508281101515156111be57fe5b80905092915050565b6000808314156111da57600090506111f9565b81830290508183828115156111eb57fe5b041415156111f557fe5b8090505b92915050565b6000818381151561120c57fe5b04905092915050565b600073ffffffffffffffffffffffffffffffffffffffff168173ffffffffffffffffffffffffffffffffffffffff161415151561125157600080fd5b8073ffffffffffffffffffffffffffffffffffffffff166000809054906101000a900473ffffffffffffffffffffffffffffffffffffffff1673ffffffffffffffffffffffffffffffffffffffff167f8be0079c531659141344cd1fd0a4f28419497f9722a3daafe3b4186f6b6457e060405160405180910390a3806000806101000a81548173ffffffffffffffffffffffffffffffffffffffff021916908373ffffffffffffffffffffffffffffffffffffffff160217905550505600a165627a7a723058204157b9d30e629e9a7d648e8ec869a8b8008174d0371488459b87648ee35316790029",
  "source": "pragma solidity ^0.4.23;\r\n\r\nimport \"./BitcademyToken.sol\";\r\nimport \"openzeppelin-solidity/contracts/math/SafeMath.sol\";\r\nimport \"openzeppelin-solidity/contracts/ownership/Ownable.sol\";\r\n\r\n\r\n/**\r\n * @title TokenVesting\r\n * @dev A token holder contract that can release its token balance gradually like a\r\n * owner.\r\n */\r\ncontract BitcademyVesting is Ownable {\r\n  using SafeMath for uint256;\r\n\r\n  event Released(uint256 amount);\r\n\r\n  uint256 public cliff;\r\n  uint256 public start;\r\n  uint256 public duration;\r\n  uint256 public interval;\r\n  uint    public countRelease = 0;\r\n\r\n  uint256 public constant ReleaseCap = 150000000000000000000000000;\r\n\r\n  mapping (address=>bool) public members;\r\n  mapping (address =>uint) public numReleases;\r\n  mapping (address => uint) public nextRelease;\r\n  uint256 public noOfMembers;\r\n  uint256 public released;\r\n  //uint256 public standardQuantity;\r\n  uint public constant Releases = 18;\r\n  /**\r\n   * @dev Creates a vesting contract that vests its balance of any BitcademyToken token to the\r\n   * _beneficiary, gradually in a linear fashion until _start + _duration. By then all\r\n   * of the balance will have vested.\r\n   * @param _cliff duration in seconds of the cliff in which tokens will begin to vest\r\n   * @param _start the time (as Unix time) at which point vesting starts\r\n   * @param _duration duration in seconds of the period in which the tokens will vest\r\n   */\r\n  constructor(\r\n    uint256 _start,\r\n    uint256 _cliff,\r\n    uint256 _duration,\r\n    uint256 _interval\r\n  )\r\n    public\r\n  {\r\n    require(_cliff <= _duration);\r\n\r\n    duration = _duration;\r\n    cliff = _start.add(_cliff);\r\n    start = _start;\r\n    interval = _interval;\r\n  }\r\n\r\n  modifier onlyMember(address _memberAddress) {\r\n    require(members[_memberAddress] == true);\r\n      _;\r\n  }\r\n\r\n  function addMember(address _member) public onlyOwner {\r\n      require(members[_member] == false);\r\n      require(countRelease <= 0);\r\n      members[_member] = true;\r\n      noOfMembers = noOfMembers.add(1);\r\n  }\r\n\r\n  function removeMember(address _member) public onlyOwner {\r\n      require(members[_member] == true);\r\n      require(countRelease <= 0);\r\n      members[_member] = false;\r\n      noOfMembers = noOfMembers.sub(1);\r\n  }\r\n\r\n  /**\r\n   * @notice Transfers vested tokens to beneficiary.\r\n   * @param _token BitcademyToken token which is being vested\r\n   */\r\n  function release(BitcademyToken _token, address _member) onlyMember(_member) public {\r\n    require (block.timestamp > cliff);\r\n     uint256 currentBalance = _token.balanceOf(this);\r\n    uint256 totalBalance = currentBalance.add(released);\r\n    uint256 unreleased = totalBalance.sub(released);\r\n\r\n    require(unreleased > 0);\r\n\r\n    require(numReleases[_member] <= Releases);\r\n    if (numReleases[_member] == 0){\r\n    require(block.timestamp >= interval.add(cliff));\r\n     released = released.add(unreleased);\r\n     unreleased = ReleaseCap.div(noOfMembers.mul(Releases));\r\n     //unreleased =  unreleased.div(noOfMembers);\r\n     _token.transfer(_member, unreleased);\r\n     numReleases[_member] = numReleases[_member].add(1);\r\n     nextRelease[_member] = interval.add(cliff).add(interval);\r\n     countRelease = countRelease + 1;\r\n   }\r\n   else if (numReleases[_member] > 0){\r\n     require(block.timestamp >= nextRelease[_member] );\r\n     released = released.add(unreleased);\r\n     unreleased = ReleaseCap.div(noOfMembers.mul(Releases));\r\n     //unreleased =  unreleased.div(noOfMembers);\r\n     _token.transfer(_member, unreleased);\r\n     numReleases[_member] = numReleases[_member].add(1);\r\n     nextRelease[_member] = nextRelease[_member].add(interval);\r\n     countRelease = countRelease + 1;\r\n   }\r\n\r\n    emit Released(unreleased);\r\n  }\r\n\r\n  /**\r\n   * @dev Calculates the amount that has already vested but hasn't been released yet.\r\n   * @param _token BitcademyToken token which is being vested\r\n   */\r\n  /** function releasableAmount(BitcademyToken _token) public view returns (uint256) {\r\n    //return vestedAmount(_token).sub(released);\r\n  } */\r\n\r\n  /**\r\n   * @dev Calculates the amount that has already vested.\r\n   * @param _token BitcademyToken token which is being vested\r\n   */\r\n  /** function vestedAmount(BitcademyToken _token) public view returns (uint256) {\r\n    uint256 currentBalance = _token.balanceOf(this);\r\n    uint256 totalBalance = currentBalance.add(released);\r\n\r\n    if (block.timestamp < cliff) {\r\n      return 0;\r\n    } else if (block.timestamp >= start.add(duration)) {\r\n      return totalBalance;\r\n    } else {\r\n      return totalBalance.mul(block.timestamp.sub(start)).div(duration);\r\n    }\r\n  } */\r\n}\r\n",
  "sourcePath": "/home/kelvin/BitCademy/Bitcademy_ICO/contracts/BitcademyVesting.sol",
  "compiler": {
    "name": "solc",
    "version": "0.4.24+commit.e67f0147.Emscripten.clang"
  },
  "schemaVersion": "2.0.1",
  "updatedAt": "2018-10-19T07:37:39.655Z"
}