{
  "contractName": "Crowdsale",
  "abi": [
    {
      "constant": true,
      "inputs": [],
      "name": "rate",
      "outputs": [
        {
          "name": "",
          "type": "uint256"
        }
      ],
      "payable": false,
      "stateMutability": "view",
      "type": "function"
    },
    {
      "constant": true,
      "inputs": [
        {
          "name": "",
          "type": "uint256"
        }
      ],
      "name": "investors",
      "outputs": [
        {
          "name": "",
          "type": "address"
        }
      ],
      "payable": false,
      "stateMutability": "view",
      "type": "function"
    },
    {
      "constant": true,
      "inputs": [],
      "name": "goal",
      "outputs": [
        {
          "name": "",
          "type": "uint256"
        }
      ],
      "payable": false,
      "stateMutability": "view",
      "type": "function"
    },
    {
      "constant": true,
      "inputs": [],
      "name": "weiRaised",
      "outputs": [
        {
          "name": "",
          "type": "uint256"
        }
      ],
      "payable": false,
      "stateMutability": "view",
      "type": "function"
    },
    {
      "constant": true,
      "inputs": [],
      "name": "tokenHolder",
      "outputs": [
        {
          "name": "",
          "type": "address"
        }
      ],
      "payable": false,
      "stateMutability": "view",
      "type": "function"
    },
    {
      "constant": true,
      "inputs": [],
      "name": "closingTime",
      "outputs": [
        {
          "name": "",
          "type": "uint256"
        }
      ],
      "payable": false,
      "stateMutability": "view",
      "type": "function"
    },
    {
      "constant": false,
      "inputs": [],
      "name": "renounceOwnership",
      "outputs": [],
      "payable": false,
      "stateMutability": "nonpayable",
      "type": "function"
    },
    {
      "constant": true,
      "inputs": [],
      "name": "isFinalized",
      "outputs": [
        {
          "name": "",
          "type": "bool"
        }
      ],
      "payable": false,
      "stateMutability": "view",
      "type": "function"
    },
    {
      "constant": true,
      "inputs": [],
      "name": "owner",
      "outputs": [
        {
          "name": "",
          "type": "address"
        }
      ],
      "payable": false,
      "stateMutability": "view",
      "type": "function"
    },
    {
      "constant": true,
      "inputs": [
        {
          "name": "",
          "type": "address"
        }
      ],
      "name": "whitelist",
      "outputs": [
        {
          "name": "",
          "type": "bool"
        }
      ],
      "payable": false,
      "stateMutability": "view",
      "type": "function"
    },
    {
      "constant": true,
      "inputs": [],
      "name": "tokenSoldExcludeBonus",
      "outputs": [
        {
          "name": "",
          "type": "uint256"
        }
      ],
      "payable": false,
      "stateMutability": "view",
      "type": "function"
    },
    {
      "constant": true,
      "inputs": [],
      "name": "openingTime",
      "outputs": [
        {
          "name": "",
          "type": "uint256"
        }
      ],
      "payable": false,
      "stateMutability": "view",
      "type": "function"
    },
    {
      "constant": true,
      "inputs": [],
      "name": "remainingTokens",
      "outputs": [
        {
          "name": "",
          "type": "uint256"
        }
      ],
      "payable": false,
      "stateMutability": "view",
      "type": "function"
    },
    {
      "constant": true,
      "inputs": [
        {
          "name": "",
          "type": "address"
        }
      ],
      "name": "tokenToClaim",
      "outputs": [
        {
          "name": "",
          "type": "uint256"
        }
      ],
      "payable": false,
      "stateMutability": "view",
      "type": "function"
    },
    {
      "constant": true,
      "inputs": [],
      "name": "supply_cap",
      "outputs": [
        {
          "name": "",
          "type": "uint256"
        }
      ],
      "payable": false,
      "stateMutability": "view",
      "type": "function"
    },
    {
      "constant": false,
      "inputs": [
        {
          "name": "_newOwner",
          "type": "address"
        }
      ],
      "name": "transferOwnership",
      "outputs": [],
      "payable": false,
      "stateMutability": "nonpayable",
      "type": "function"
    },
    {
      "constant": true,
      "inputs": [],
      "name": "release_date",
      "outputs": [
        {
          "name": "",
          "type": "uint256"
        }
      ],
      "payable": false,
      "stateMutability": "view",
      "type": "function"
    },
    {
      "constant": true,
      "inputs": [],
      "name": "vault",
      "outputs": [
        {
          "name": "",
          "type": "address"
        }
      ],
      "payable": false,
      "stateMutability": "view",
      "type": "function"
    },
    {
      "constant": true,
      "inputs": [],
      "name": "token",
      "outputs": [
        {
          "name": "",
          "type": "address"
        }
      ],
      "payable": false,
      "stateMutability": "view",
      "type": "function"
    },
    {
      "inputs": [
        {
          "name": "_rate",
          "type": "uint256"
        },
        {
          "name": "_token",
          "type": "address"
        },
        {
          "name": "_openingTime",
          "type": "uint256"
        },
        {
          "name": "_closingTime",
          "type": "uint256"
        },
        {
          "name": "_tokenHolder",
          "type": "address"
        },
        {
          "name": "_multi_sig_wallet",
          "type": "address"
        },
        {
          "name": "_goal",
          "type": "uint256"
        }
      ],
      "payable": false,
      "stateMutability": "nonpayable",
      "type": "constructor"
    },
    {
      "payable": true,
      "stateMutability": "payable",
      "type": "fallback"
    },
    {
      "anonymous": false,
      "inputs": [],
      "name": "Finalized",
      "type": "event"
    },
    {
      "anonymous": false,
      "inputs": [
        {
          "indexed": true,
          "name": "purchaser",
          "type": "address"
        },
        {
          "indexed": true,
          "name": "beneficiary",
          "type": "address"
        },
        {
          "indexed": false,
          "name": "value",
          "type": "uint256"
        },
        {
          "indexed": false,
          "name": "amount",
          "type": "uint256"
        }
      ],
      "name": "TokenPurchase",
      "type": "event"
    },
    {
      "anonymous": false,
      "inputs": [
        {
          "indexed": true,
          "name": "previousOwner",
          "type": "address"
        }
      ],
      "name": "OwnershipRenounced",
      "type": "event"
    },
    {
      "anonymous": false,
      "inputs": [
        {
          "indexed": true,
          "name": "previousOwner",
          "type": "address"
        },
        {
          "indexed": true,
          "name": "newOwner",
          "type": "address"
        }
      ],
      "name": "OwnershipTransferred",
      "type": "event"
    },
    {
      "constant": false,
      "inputs": [],
      "name": "finalize",
      "outputs": [],
      "payable": false,
      "stateMutability": "nonpayable",
      "type": "function"
    },
    {
      "constant": false,
      "inputs": [],
      "name": "claimRefund",
      "outputs": [],
      "payable": false,
      "stateMutability": "nonpayable",
      "type": "function"
    },
    {
      "constant": false,
      "inputs": [],
      "name": "blacklistClaimRefund",
      "outputs": [],
      "payable": false,
      "stateMutability": "nonpayable",
      "type": "function"
    },
    {
      "constant": true,
      "inputs": [],
      "name": "goalReached",
      "outputs": [
        {
          "name": "",
          "type": "bool"
        }
      ],
      "payable": false,
      "stateMutability": "view",
      "type": "function"
    },
    {
      "constant": false,
      "inputs": [
        {
          "name": "_beneficiary",
          "type": "address"
        }
      ],
      "name": "buyTokens",
      "outputs": [],
      "payable": true,
      "stateMutability": "payable",
      "type": "function"
    },
    {
      "constant": false,
      "inputs": [
        {
          "name": "_beneficiary",
          "type": "address"
        }
      ],
      "name": "addToWhitelist",
      "outputs": [],
      "payable": false,
      "stateMutability": "nonpayable",
      "type": "function"
    },
    {
      "constant": false,
      "inputs": [
        {
          "name": "_beneficiaries",
          "type": "address[]"
        }
      ],
      "name": "addManyToWhitelist",
      "outputs": [],
      "payable": false,
      "stateMutability": "nonpayable",
      "type": "function"
    },
    {
      "constant": false,
      "inputs": [
        {
          "name": "_beneficiary",
          "type": "address"
        }
      ],
      "name": "removeFromWhitelist",
      "outputs": [],
      "payable": false,
      "stateMutability": "nonpayable",
      "type": "function"
    },
    {
      "constant": true,
      "inputs": [],
      "name": "hasClosed",
      "outputs": [
        {
          "name": "",
          "type": "bool"
        }
      ],
      "payable": false,
      "stateMutability": "view",
      "type": "function"
    },
    {
      "constant": false,
      "inputs": [
        {
          "name": "_rate",
          "type": "uint256"
        }
      ],
      "name": "setRate",
      "outputs": [],
      "payable": false,
      "stateMutability": "nonpayable",
      "type": "function"
    },
    {
      "constant": true,
      "inputs": [],
      "name": "investorsCount",
      "outputs": [
        {
          "name": "",
          "type": "uint256"
        }
      ],
      "payable": false,
      "stateMutability": "view",
      "type": "function"
    },
    {
      "constant": false,
      "inputs": [],
      "name": "withdrawAfterMainSale",
      "outputs": [],
      "payable": false,
      "stateMutability": "nonpayable",
      "type": "function"
    },
    {
      "constant": false,
      "inputs": [
        {
          "name": "_new_release_date",
          "type": "uint256"
        }
      ],
      "name": "updateReleaseDate",
      "outputs": [],
      "payable": false,
      "stateMutability": "nonpayable",
      "type": "function"
    },
    {
      "constant": false,
      "inputs": [
        {
          "name": "_new_close_date",
          "type": "uint256"
        }
      ],
      "name": "adjustCloseDate",
      "outputs": [],
      "payable": false,
      "stateMutability": "nonpayable",
      "type": "function"
    }
  ],
  "bytecode": "0x6080604052635cc790006002556314dc93806005556000600f60146101000a81548160ff0219169083151502179055503480156200003c57600080fd5b5060405160e0806200381783398101806040528101908080519060200190929190805190602001909291908051906020019092919080519060200190929190805190602001909291908051906020019092919080519060200190929190505050336000806101000a81548173ffffffffffffffffffffffffffffffffffffffff021916908373ffffffffffffffffffffffffffffffffffffffff160217905550600087111515620000ec57600080fd5b600073ffffffffffffffffffffffffffffffffffffffff168273ffffffffffffffffffffffffffffffffffffffff16141515156200012957600080fd5b600073ffffffffffffffffffffffffffffffffffffffff168673ffffffffffffffffffffffffffffffffffffffff16141515156200016657600080fd5b600073ffffffffffffffffffffffffffffffffffffffff168373ffffffffffffffffffffffffffffffffffffffff1614151515620001a357600080fd5b428510151515620001b357600080fd5b848410151515620001c357600080fd5b600081111515620001d357600080fd5b81620001de62000602565b808273ffffffffffffffffffffffffffffffffffffffff1673ffffffffffffffffffffffffffffffffffffffff168152602001915050604051809103906000f08015801562000231573d6000803e3d6000fd5b50600f60006101000a81548173ffffffffffffffffffffffffffffffffffffffff021916908373ffffffffffffffffffffffffffffffffffffffff16021790555080600e819055508660038190555085600160006101000a81548173ffffffffffffffffffffffffffffffffffffffff021916908373ffffffffffffffffffffffffffffffffffffffff16021790555082600760006101000a81548173ffffffffffffffffffffffffffffffffffffffff021916908373ffffffffffffffffffffffffffffffffffffffff16021790555084600a8190555083600b81905550600160009054906101000a900473ffffffffffffffffffffffffffffffffffffffff1673ffffffffffffffffffffffffffffffffffffffff1663095ea7b3600760009054906101000a900473ffffffffffffffffffffffffffffffffffffffff166200039e670de0b6b3a7640000600554620005c664010000000002620015fd179091906401000000009004565b6040518363ffffffff167c0100000000000000000000000000000000000000000000000000000000028152600401808373ffffffffffffffffffffffffffffffffffffffff1673ffffffffffffffffffffffffffffffffffffffff16815260200182815260200192505050602060405180830381600087803b1580156200042457600080fd5b505af115801562000439573d6000803e3d6000fd5b505050506040513d60208110156200045057600080fd5b810190808051906020019092919050505050600160009054906101000a900473ffffffffffffffffffffffffffffffffffffffff1673ffffffffffffffffffffffffffffffffffffffff1663dd62ed3e600760009054906101000a900473ffffffffffffffffffffffffffffffffffffffff16306040518363ffffffff167c0100000000000000000000000000000000000000000000000000000000028152600401808373ffffffffffffffffffffffffffffffffffffffff1673ffffffffffffffffffffffffffffffffffffffff1681526020018273ffffffffffffffffffffffffffffffffffffffff1673ffffffffffffffffffffffffffffffffffffffff16815260200192505050602060405180830381600087803b1580156200057657600080fd5b505af11580156200058b573d6000803e3d6000fd5b505050506040513d6020811015620005a257600080fd5b8101908080519060200190929190505050600c819055505050505050505062000613565b600080831415620005db5760009050620005fc565b8183029050818382811515620005ed57fe5b04141515620005f857fe5b8090505b92915050565b604051610beb8062002c2c83390190565b61260980620006236000396000f3006080604052600436106101a1576000357c0100000000000000000000000000000000000000000000000000000000900463ffffffff16806307a95e91146101ac5780630ebaf5f5146101d95780631515bc2b146102065780632b711051146102355780632c4e722e1461026057806334fcf4371461028b5780633feb5f2b146102b857806340193883146103255780634042b66f14610350578063420a83e71461037b5780634b6753bc146103d25780634bb278f3146103fd578063715018a6146104145780637d3d65221461042b5780638ab1d6811461045a5780638c10671c1461049d5780638d4e4083146104d85780638da5cb5b146105075780639b19251a1461055e578063b4ef088f146105b9578063b5545a3c146105e4578063b7960046146105fb578063b7a8807c14610612578063bbd2af2f1461063d578063bf58390314610654578063c2fb345a1461067f578063e43252d7146106d6578063eaac77ea14610719578063ec8ac4d814610744578063f2fde38b1461077a578063fb54f7d3146107bd578063fbfa77cf146107e8578063fc0c546a1461083f575b6101aa33610896565b005b3480156101b857600080fd5b506101d760048036038101908080359060200190929190505050610a1f565b005b3480156101e557600080fd5b5061020460048036038101908080359060200190929190505050610abb565b005b34801561021257600080fd5b5061021b610b3c565b604051808215151515815260200191505060405180910390f35b34801561024157600080fd5b5061024a610b48565b6040518082815260200191505060405180910390f35b34801561026c57600080fd5b50610275610b55565b6040518082815260200191505060405180910390f35b34801561029757600080fd5b506102b660048036038101908080359060200190929190505050610b5b565b005b3480156102c457600080fd5b506102e360048036038101908080359060200190929190505050610be7565b604051808273ffffffffffffffffffffffffffffffffffffffff1673ffffffffffffffffffffffffffffffffffffffff16815260200191505060405180910390f35b34801561033157600080fd5b5061033a610c25565b6040518082815260200191505060405180910390f35b34801561035c57600080fd5b50610365610c2b565b6040518082815260200191505060405180910390f35b34801561038757600080fd5b50610390610c31565b604051808273ffffffffffffffffffffffffffffffffffffffff1673ffffffffffffffffffffffffffffffffffffffff16815260200191505060405180910390f35b3480156103de57600080fd5b506103e7610c57565b6040518082815260200191505060405180910390f35b34801561040957600080fd5b50610412610c5d565b005b34801561042057600080fd5b50610429610d38565b005b34801561043757600080fd5b50610440610e3a565b604051808215151515815260200191505060405180910390f35b34801561046657600080fd5b5061049b600480360381019080803573ffffffffffffffffffffffffffffffffffffffff169060200190929190505050610e49565b005b3480156104a957600080fd5b506104d6600480360381019080803590602001908201803590602001919091929391929390505050610eff565b005b3480156104e457600080fd5b506104ed611000565b604051808215151515815260200191505060405180910390f35b34801561051357600080fd5b5061051c611013565b604051808273ffffffffffffffffffffffffffffffffffffffff1673ffffffffffffffffffffffffffffffffffffffff16815260200191505060405180910390f35b34801561056a57600080fd5b5061059f600480360381019080803573ffffffffffffffffffffffffffffffffffffffff169060200190929190505050611038565b604051808215151515815260200191505060405180910390f35b3480156105c557600080fd5b506105ce611058565b6040518082815260200191505060405180910390f35b3480156105f057600080fd5b506105f961105e565b005b34801561060757600080fd5b50610610611164565b005b34801561061e57600080fd5b506106276112a4565b6040518082815260200191505060405180910390f35b34801561064957600080fd5b506106526112aa565b005b34801561066057600080fd5b5061066961146a565b6040518082815260200191505060405180910390f35b34801561068b57600080fd5b506106c0600480360381019080803573ffffffffffffffffffffffffffffffffffffffff169060200190929190505050611470565b6040518082815260200191505060405180910390f35b3480156106e257600080fd5b50610717600480360381019080803573ffffffffffffffffffffffffffffffffffffffff169060200190929190505050611488565b005b34801561072557600080fd5b5061072e61153e565b6040518082815260200191505060405180910390f35b610778600480360381019080803573ffffffffffffffffffffffffffffffffffffffff169060200190929190505050610896565b005b34801561078657600080fd5b506107bb600480360381019080803573ffffffffffffffffffffffffffffffffffffffff169060200190929190505050611544565b005b3480156107c957600080fd5b506107d26115ab565b6040518082815260200191505060405180910390f35b3480156107f457600080fd5b506107fd6115b1565b604051808273ffffffffffffffffffffffffffffffffffffffff1673ffffffffffffffffffffffffffffffffffffffff16815260200191505060405180910390f35b34801561084b57600080fd5b506108546115d7565b604051808273ffffffffffffffffffffffffffffffffffffffff1673ffffffffffffffffffffffffffffffffffffffff16815260200191505060405180910390f35b6000806000803493506108ce670de0b6b3a76400006108c0600354876115fd90919063ffffffff16565b61163590919063ffffffff16565b9250606483101515156108e057600080fd5b60009150600090506108f2858561164b565b6108fb8461169b565b80935081925050506000821115610969573373ffffffffffffffffffffffffffffffffffffffff166108fc839081150290604051600060405180830381858888f19350505050158015610952573d6000803e3d6000fd5b506109668285611f2790919063ffffffff16565b93505b61097e84600454611f4090919063ffffffff16565b60048190555061098e8582611f5c565b8473ffffffffffffffffffffffffffffffffffffffff163373ffffffffffffffffffffffffffffffffffffffff167f623b3804fa71d67900d064613da8f94b9617215ee90799290593e1745087ad188684604051808381526020018281526020019250505060405180910390a3610a0585856120f0565b610a0e846120f4565b610a188585612233565b5050505050565b6000809054906101000a900473ffffffffffffffffffffffffffffffffffffffff1673ffffffffffffffffffffffffffffffffffffffff163373ffffffffffffffffffffffffffffffffffffffff16141515610a7a57600080fd5b600f60149054906101000a900460ff16151515610a9657600080fd5b4281118015610aa65750600b5481115b1515610ab157600080fd5b80600b8190555050565b6000809054906101000a900473ffffffffffffffffffffffffffffffffffffffff1673ffffffffffffffffffffffffffffffffffffffff163373ffffffffffffffffffffffffffffffffffffffff16141515610b1657600080fd5b4281118015610b2757506002548114155b1515610b3257600080fd5b8060028190555050565b6000600b544211905090565b6000600680549050905090565b60035481565b6000809054906101000a900473ffffffffffffffffffffffffffffffffffffffff1673ffffffffffffffffffffffffffffffffffffffff163373ffffffffffffffffffffffffffffffffffffffff16141515610bb657600080fd5b610bde6103e8610bd06026846115fd90919063ffffffff16565b61163590919063ffffffff16565b60038190555050565b600681815481101515610bf657fe5b906000526020600020016000915054906101000a900473ffffffffffffffffffffffffffffffffffffffff1681565b600e5481565b60045481565b600760009054906101000a900473ffffffffffffffffffffffffffffffffffffffff1681565b600b5481565b6000809054906101000a900473ffffffffffffffffffffffffffffffffffffffff1673ffffffffffffffffffffffffffffffffffffffff163373ffffffffffffffffffffffffffffffffffffffff16141515610cb857600080fd5b600f60149054906101000a900460ff16151515610cd457600080fd5b610cdc610b3c565b1515610ce757600080fd5b610cef612237565b7f6823b073d48d6e3a7d385eeb601452d680e74bb46afe3255a7d778f3a9b1768160405160405180910390a16001600f60146101000a81548160ff021916908315150217905550565b6000809054906101000a900473ffffffffffffffffffffffffffffffffffffffff1673ffffffffffffffffffffffffffffffffffffffff163373ffffffffffffffffffffffffffffffffffffffff16141515610d9357600080fd5b6000809054906101000a900473ffffffffffffffffffffffffffffffffffffffff1673ffffffffffffffffffffffffffffffffffffffff167ff8df31144d9c2f0f6b59d69b8b98abd5459d07f2742c4df920b25aae33c6482060405160405180910390a260008060006101000a81548173ffffffffffffffffffffffffffffffffffffffff021916908373ffffffffffffffffffffffffffffffffffffffff160217905550565b6000600e546004541015905090565b6000809054906101000a900473ffffffffffffffffffffffffffffffffffffffff1673ffffffffffffffffffffffffffffffffffffffff163373ffffffffffffffffffffffffffffffffffffffff16141515610ea457600080fd5b6000600860008373ffffffffffffffffffffffffffffffffffffffff1673ffffffffffffffffffffffffffffffffffffffff16815260200190815260200160002060006101000a81548160ff02191690831515021790555050565b60008060009054906101000a900473ffffffffffffffffffffffffffffffffffffffff1673ffffffffffffffffffffffffffffffffffffffff163373ffffffffffffffffffffffffffffffffffffffff16141515610f5c57600080fd5b600090505b82829050811015610ffb576001600860008585858181101515610f8057fe5b9050602002013573ffffffffffffffffffffffffffffffffffffffff1673ffffffffffffffffffffffffffffffffffffffff1673ffffffffffffffffffffffffffffffffffffffff16815260200190815260200160002060006101000a81548160ff0219169083151502179055508080600101915050610f61565b505050565b600f60149054906101000a900460ff1681565b6000809054906101000a900473ffffffffffffffffffffffffffffffffffffffff1681565b60086020528060005260406000206000915054906101000a900460ff1681565b600d5481565b600f60149054906101000a900460ff16151561107957600080fd5b611081610e3a565b15151561108d57600080fd5b600f60009054906101000a900473ffffffffffffffffffffffffffffffffffffffff1673ffffffffffffffffffffffffffffffffffffffff1663fa89401a336040518263ffffffff167c0100000000000000000000000000000000000000000000000000000000028152600401808273ffffffffffffffffffffffffffffffffffffffff1673ffffffffffffffffffffffffffffffffffffffff168152602001915050600060405180830381600087803b15801561114a57600080fd5b505af115801561115e573d6000803e3d6000fd5b50505050565b600f60149054906101000a900460ff16151561117f57600080fd5b6000600960003373ffffffffffffffffffffffffffffffffffffffff1673ffffffffffffffffffffffffffffffffffffffff168152602001908152602001600020541115156111cd57600080fd5b600f60009054906101000a900473ffffffffffffffffffffffffffffffffffffffff1673ffffffffffffffffffffffffffffffffffffffff1663fa89401a336040518263ffffffff167c0100000000000000000000000000000000000000000000000000000000028152600401808273ffffffffffffffffffffffffffffffffffffffff1673ffffffffffffffffffffffffffffffffffffffff168152602001915050600060405180830381600087803b15801561128a57600080fd5b505af115801561129e573d6000803e3d6000fd5b50505050565b600a5481565b33600860008273ffffffffffffffffffffffffffffffffffffffff1673ffffffffffffffffffffffffffffffffffffffff16815260200190815260200160002060009054906101000a900460ff16151561130357600080fd5b61130b610e3a565b151561131657600080fd5b4260025410151561132657600080fd5b600f60149054906101000a900460ff16151561134157600080fd5b6000600960003373ffffffffffffffffffffffffffffffffffffffff1673ffffffffffffffffffffffffffffffffffffffff168152602001908152602001600020541015151561139057600080fd5b6000600960003373ffffffffffffffffffffffffffffffffffffffff1673ffffffffffffffffffffffffffffffffffffffff1681526020019081526020016000205411156114675761142133600960003373ffffffffffffffffffffffffffffffffffffffff1673ffffffffffffffffffffffffffffffffffffffff16815260200190815260200160002054612388565b6000600960003373ffffffffffffffffffffffffffffffffffffffff1673ffffffffffffffffffffffffffffffffffffffff168152602001908152602001600020819055505b50565b600c5481565b60096020528060005260406000206000915090505481565b6000809054906101000a900473ffffffffffffffffffffffffffffffffffffffff1673ffffffffffffffffffffffffffffffffffffffff163373ffffffffffffffffffffffffffffffffffffffff161415156114e357600080fd5b6001600860008373ffffffffffffffffffffffffffffffffffffffff1673ffffffffffffffffffffffffffffffffffffffff16815260200190815260200160002060006101000a81548160ff02191690831515021790555050565b60055481565b6000809054906101000a900473ffffffffffffffffffffffffffffffffffffffff1673ffffffffffffffffffffffffffffffffffffffff163373ffffffffffffffffffffffffffffffffffffffff1614151561159f57600080fd5b6115a8816124e3565b50565b60025481565b600f60009054906101000a900473ffffffffffffffffffffffffffffffffffffffff1681565b600160009054906101000a900473ffffffffffffffffffffffffffffffffffffffff1681565b600080831415611610576000905061162f565b818302905081838281151561162157fe5b0414151561162b57fe5b8090505b92915050565b6000818381151561164257fe5b04905092915050565b600073ffffffffffffffffffffffffffffffffffffffff168273ffffffffffffffffffffffffffffffffffffffff161415151561168757600080fd5b6000811415151561169757600080fd5b5050565b6000806000806000806000935060009250869150600090506af8277896582678ac000000600c5411156117e95760035490506116e1600a826115fd90919063ffffffff16565b90506116f7600d8261163590919063ffffffff16565b905061170c818361163590919063ffffffff16565b925061172e6af8277896582678ac000000600c54611f2790919063ffffffff16565b8311156117b3576117556af8277896582678ac000000600c54611f2790919063ffffffff16565b925061177c61176d82856115fd90919063ffffffff16565b83611f2790919063ffffffff16565b91506117918385611f4090919063ffffffff16565b93506117a883600c54611f2790919063ffffffff16565b600c819055506117e8565b6117c68385611f4090919063ffffffff16565b9350600091506117e183600c54611f2790919063ffffffff16565b600c819055505b5b6af8277896582678ac000000600c541115801561181257506acecb8f27f4200f3a000000600c54115b801561181e5750600082115b1561191757600354905061183c6064826115fd90919063ffffffff16565b9050611852607d8261163590919063ffffffff16565b9050611867818361163590919063ffffffff16565b92506118896acecb8f27f4200f3a000000600c54611f2790919063ffffffff16565b83111561190e576118b06acecb8f27f4200f3a000000600c54611f2790919063ffffffff16565b92506118d76118c882856115fd90919063ffffffff16565b83611f2790919063ffffffff16565b91506118ec8385611f4090919063ffffffff16565b935061190384600c54611f2790919063ffffffff16565b600c81905550611916565b829350600091505b5b6acecb8f27f4200f3a000000600c541115801561194057506aa56fa5b99019a5c8000000600c54115b801561194c5750600082115b15611a7257600354905061196a6064826115fd90919063ffffffff16565b905061198060788261163590919063ffffffff16565b9050611995818361163590919063ffffffff16565b92506119b76aa56fa5b99019a5c8000000600c54611f2790919063ffffffff16565b831115611a3c576119de6aa56fa5b99019a5c8000000600c54611f2790919063ffffffff16565b9250611a056119f682856115fd90919063ffffffff16565b83611f2790919063ffffffff16565b9150611a1a8385611f4090919063ffffffff16565b9350611a3183600c54611f2790919063ffffffff16565b600c81905550611a71565b611a4f8385611f4090919063ffffffff16565b935060009150611a6a83600c54611f2790919063ffffffff16565b600c819055505b5b6aa56fa5b99019a5c8000000600c5411158015611a9b57506a7c13bc4b2c133c56000000600c54115b8015611aa75750600082115b15611bcd576003549050611ac56064826115fd90919063ffffffff16565b9050611adb60738261163590919063ffffffff16565b9050611af0818361163590919063ffffffff16565b9250611b126a7c13bc4b2c133c56000000600c54611f2790919063ffffffff16565b831115611b9757611b396a7c13bc4b2c133c56000000600c54611f2790919063ffffffff16565b9250611b60611b5182856115fd90919063ffffffff16565b83611f2790919063ffffffff16565b9150611b758385611f4090919063ffffffff16565b9350611b8c83600c54611f2790919063ffffffff16565b600c81905550611bcc565b611baa8385611f4090919063ffffffff16565b935060009150611bc583600c54611f2790919063ffffffff16565b600c819055505b5b6a7c13bc4b2c133c56000000600c5411158015611bf657506a52b7d2dcc80cd2e4000000600c54115b8015611c025750600082115b15611d28576003549050611c206064826115fd90919063ffffffff16565b9050611c36606e8261163590919063ffffffff16565b9050611c4b818361163590919063ffffffff16565b9250611c6d6a52b7d2dcc80cd2e4000000600c54611f2790919063ffffffff16565b831115611cf257611c946a52b7d2dcc80cd2e4000000600c54611f2790919063ffffffff16565b9250611cbb611cac82856115fd90919063ffffffff16565b83611f2790919063ffffffff16565b9150611cd08385611f4090919063ffffffff16565b9350611ce783600c54611f2790919063ffffffff16565b600c81905550611d27565b611d058385611f4090919063ffffffff16565b935060009150611d2083600c54611f2790919063ffffffff16565b600c819055505b5b6a52b7d2dcc80cd2e4000000600c5411158015611d5157506a295be96e64066972000000600c54115b15611e77576003549050611d6f6064826115fd90919063ffffffff16565b9050611d8560698261163590919063ffffffff16565b9050611d9a818361163590919063ffffffff16565b9250611dbc6a295be96e64066972000000600c54611f2790919063ffffffff16565b831115611e4157611de36a295be96e64066972000000600c54611f2790919063ffffffff16565b9250611e0a611dfb82856115fd90919063ffffffff16565b83611f2790919063ffffffff16565b9150611e1f8385611f4090919063ffffffff16565b9350611e3683600c54611f2790919063ffffffff16565b600c81905550611e76565b611e548385611f4090919063ffffffff16565b935060009150611e6f83600c54611f2790919063ffffffff16565b600c819055505b5b6a295be96e64066972000000600c54111515611f18576003549050611ea5818361163590919063ffffffff16565b9250600c54831115611ee257600c549350611edb611ecc82866115fd90919063ffffffff16565b83611f2790919063ffffffff16565b9150611f17565b611ef58385611f4090919063ffffffff16565b935060009150611f1083600c54611f2790919063ffffffff16565b600c819055505b5b83829550955050505050915091565b6000828211151515611f3557fe5b818303905092915050565b60008183019050828110151515611f5357fe5b80905092915050565b81600860008273ffffffffffffffffffffffffffffffffffffffff1673ffffffffffffffffffffffffffffffffffffffff16815260200190815260200160002060009054906101000a900460ff161515611fb557600080fd5b600a544210158015611fc95750600b544211155b1515611fd457600080fd5b6000600960008573ffffffffffffffffffffffffffffffffffffffff1673ffffffffffffffffffffffffffffffffffffffff1681526020019081526020016000205414156120655781600960008573ffffffffffffffffffffffffffffffffffffffff1673ffffffffffffffffffffffffffffffffffffffff168152602001908152602001600020819055506120eb565b81600960008573ffffffffffffffffffffffffffffffffffffffff1673ffffffffffffffffffffffffffffffffffffffff1681526020019081526020016000205401600960008573ffffffffffffffffffffffffffffffffffffffff1673ffffffffffffffffffffffffffffffffffffffff168152602001908152602001600020819055505b505050565b5050565b600f60009054906101000a900473ffffffffffffffffffffffffffffffffffffffff1673ffffffffffffffffffffffffffffffffffffffff1663f340fa0182336040518363ffffffff167c0100000000000000000000000000000000000000000000000000000000028152600401808273ffffffffffffffffffffffffffffffffffffffff1673ffffffffffffffffffffffffffffffffffffffff1681526020019150506000604051808303818588803b1580156121b157600080fd5b505af11580156121c5573d6000803e3d6000fd5b505050505060063390806001815401808255809150509060018203906000526020600020016000909192909190916101000a81548173ffffffffffffffffffffffffffffffffffffffff021916908373ffffffffffffffffffffffffffffffffffffffff1602179055505050565b5050565b61223f610e3a565b156122e757600f60009054906101000a900473ffffffffffffffffffffffffffffffffffffffff1673ffffffffffffffffffffffffffffffffffffffff166343d726d66040518163ffffffff167c0100000000000000000000000000000000000000000000000000000000028152600401600060405180830381600087803b1580156122ca57600080fd5b505af11580156122de573d6000803e3d6000fd5b50505050612386565b600f60009054906101000a900473ffffffffffffffffffffffffffffffffffffffff1673ffffffffffffffffffffffffffffffffffffffff16638c52dc416040518163ffffffff167c0100000000000000000000000000000000000000000000000000000000028152600401600060405180830381600087803b15801561236d57600080fd5b505af1158015612381573d6000803e3d6000fd5b505050505b565b600160009054906101000a900473ffffffffffffffffffffffffffffffffffffffff1673ffffffffffffffffffffffffffffffffffffffff166323b872dd600760009054906101000a900473ffffffffffffffffffffffffffffffffffffffff1684846040518463ffffffff167c0100000000000000000000000000000000000000000000000000000000028152600401808473ffffffffffffffffffffffffffffffffffffffff1673ffffffffffffffffffffffffffffffffffffffff1681526020018373ffffffffffffffffffffffffffffffffffffffff1673ffffffffffffffffffffffffffffffffffffffff1681526020018281526020019350505050602060405180830381600087803b1580156124a357600080fd5b505af11580156124b7573d6000803e3d6000fd5b505050506040513d60208110156124cd57600080fd5b8101908080519060200190929190505050505050565b600073ffffffffffffffffffffffffffffffffffffffff168173ffffffffffffffffffffffffffffffffffffffff161415151561251f57600080fd5b8073ffffffffffffffffffffffffffffffffffffffff166000809054906101000a900473ffffffffffffffffffffffffffffffffffffffff1673ffffffffffffffffffffffffffffffffffffffff167f8be0079c531659141344cd1fd0a4f28419497f9722a3daafe3b4186f6b6457e060405160405180910390a3806000806101000a81548173ffffffffffffffffffffffffffffffffffffffff021916908373ffffffffffffffffffffffffffffffffffffffff160217905550505600a165627a7a72305820c50db1d2f7cd08ce9edcb130afbd5c40651d6e1fc7619166e5001218e068ddfa0029608060405234801561001057600080fd5b50604051602080610beb83398101806040528101908080519060200190929190505050336000806101000a81548173ffffffffffffffffffffffffffffffffffffffff021916908373ffffffffffffffffffffffffffffffffffffffff160217905550600073ffffffffffffffffffffffffffffffffffffffff168173ffffffffffffffffffffffffffffffffffffffff16141515156100af57600080fd5b80600260006101000a81548173ffffffffffffffffffffffffffffffffffffffff021916908373ffffffffffffffffffffffffffffffffffffffff1602179055506000600260146101000a81548160ff0219169083600281111561010f57fe5b021790555050610ac7806101246000396000f3006080604052600436106100a4576000357c0100000000000000000000000000000000000000000000000000000000900463ffffffff16806343d726d6146100a9578063521eb273146100c0578063715018a6146101175780638c52dc411461012e5780638da5cb5b14610145578063c19d93fb1461019c578063cb13cddb146101d5578063f2fde38b1461022c578063f340fa011461026f578063fa89401a146102a5575b600080fd5b3480156100b557600080fd5b506100be6102e8565b005b3480156100cc57600080fd5b506100d5610448565b604051808273ffffffffffffffffffffffffffffffffffffffff1673ffffffffffffffffffffffffffffffffffffffff16815260200191505060405180910390f35b34801561012357600080fd5b5061012c61046e565b005b34801561013a57600080fd5b50610143610570565b005b34801561015157600080fd5b5061015a610651565b604051808273ffffffffffffffffffffffffffffffffffffffff1673ffffffffffffffffffffffffffffffffffffffff16815260200191505060405180910390f35b3480156101a857600080fd5b506101b1610676565b604051808260028111156101c157fe5b60ff16815260200191505060405180910390f35b3480156101e157600080fd5b50610216600480360381019080803573ffffffffffffffffffffffffffffffffffffffff169060200190929190505050610689565b6040518082815260200191505060405180910390f35b34801561023857600080fd5b5061026d600480360381019080803573ffffffffffffffffffffffffffffffffffffffff1690602001909291905050506106a1565b005b6102a3600480360381019080803573ffffffffffffffffffffffffffffffffffffffff169060200190929190505050610708565b005b3480156102b157600080fd5b506102e6600480360381019080803573ffffffffffffffffffffffffffffffffffffffff16906020019092919050505061082f565b005b6000809054906101000a900473ffffffffffffffffffffffffffffffffffffffff1673ffffffffffffffffffffffffffffffffffffffff163373ffffffffffffffffffffffffffffffffffffffff1614151561034357600080fd5b6000600281111561035057fe5b600260149054906101000a900460ff16600281111561036b57fe5b14151561037757600080fd5b60028060146101000a81548160ff0219169083600281111561039557fe5b02179055507f1cdde67b72a90f19919ac732a437ac2f7a10fc128d28c2a6e525d89ce5cd9d3a60405160405180910390a1600260009054906101000a900473ffffffffffffffffffffffffffffffffffffffff1673ffffffffffffffffffffffffffffffffffffffff166108fc3073ffffffffffffffffffffffffffffffffffffffff16319081150290604051600060405180830381858888f19350505050158015610445573d6000803e3d6000fd5b50565b600260009054906101000a900473ffffffffffffffffffffffffffffffffffffffff1681565b6000809054906101000a900473ffffffffffffffffffffffffffffffffffffffff1673ffffffffffffffffffffffffffffffffffffffff163373ffffffffffffffffffffffffffffffffffffffff161415156104c957600080fd5b6000809054906101000a900473ffffffffffffffffffffffffffffffffffffffff1673ffffffffffffffffffffffffffffffffffffffff167ff8df31144d9c2f0f6b59d69b8b98abd5459d07f2742c4df920b25aae33c6482060405160405180910390a260008060006101000a81548173ffffffffffffffffffffffffffffffffffffffff021916908373ffffffffffffffffffffffffffffffffffffffff160217905550565b6000809054906101000a900473ffffffffffffffffffffffffffffffffffffffff1673ffffffffffffffffffffffffffffffffffffffff163373ffffffffffffffffffffffffffffffffffffffff161415156105cb57600080fd5b600060028111156105d857fe5b600260149054906101000a900460ff1660028111156105f357fe5b1415156105ff57600080fd5b6001600260146101000a81548160ff0219169083600281111561061e57fe5b02179055507f599d8e5a83cffb867d051598c4d70e805d59802d8081c1c7d6dffc5b6aca2b8960405160405180910390a1565b6000809054906101000a900473ffffffffffffffffffffffffffffffffffffffff1681565b600260149054906101000a900460ff1681565b60016020528060005260406000206000915090505481565b6000809054906101000a900473ffffffffffffffffffffffffffffffffffffffff1673ffffffffffffffffffffffffffffffffffffffff163373ffffffffffffffffffffffffffffffffffffffff161415156106fc57600080fd5b61070581610985565b50565b6000809054906101000a900473ffffffffffffffffffffffffffffffffffffffff1673ffffffffffffffffffffffffffffffffffffffff163373ffffffffffffffffffffffffffffffffffffffff1614151561076357600080fd5b6000600281111561077057fe5b600260149054906101000a900460ff16600281111561078b57fe5b14151561079757600080fd5b6107e934600160008473ffffffffffffffffffffffffffffffffffffffff1673ffffffffffffffffffffffffffffffffffffffff16815260200190815260200160002054610a7f90919063ffffffff16565b600160008373ffffffffffffffffffffffffffffffffffffffff1673ffffffffffffffffffffffffffffffffffffffff1681526020019081526020016000208190555050565b60006001600281111561083e57fe5b600260149054906101000a900460ff16600281111561085957fe5b14151561086557600080fd5b600160008373ffffffffffffffffffffffffffffffffffffffff1673ffffffffffffffffffffffffffffffffffffffff1681526020019081526020016000205490506000600160008473ffffffffffffffffffffffffffffffffffffffff1673ffffffffffffffffffffffffffffffffffffffff168152602001908152602001600020819055508173ffffffffffffffffffffffffffffffffffffffff166108fc829081150290604051600060405180830381858888f19350505050158015610932573d6000803e3d6000fd5b508173ffffffffffffffffffffffffffffffffffffffff167fd7dee2702d63ad89917b6a4da9981c90c4d24f8c2bdfd64c604ecae57d8d0651826040518082815260200191505060405180910390a25050565b600073ffffffffffffffffffffffffffffffffffffffff168173ffffffffffffffffffffffffffffffffffffffff16141515156109c157600080fd5b8073ffffffffffffffffffffffffffffffffffffffff166000809054906101000a900473ffffffffffffffffffffffffffffffffffffffff1673ffffffffffffffffffffffffffffffffffffffff167f8be0079c531659141344cd1fd0a4f28419497f9722a3daafe3b4186f6b6457e060405160405180910390a3806000806101000a81548173ffffffffffffffffffffffffffffffffffffffff021916908373ffffffffffffffffffffffffffffffffffffffff16021790555050565b60008183019050828110151515610a9257fe5b809050929150505600a165627a7a72305820030c8176dc8541850693ca9089fc094d569f2a4c24481ec70767ec52f5ae9e6b0029",
  "source": "pragma solidity ^0.4.23;\r\n\r\nimport \"./BitcademyToken.sol\";\r\nimport \"./RefundVault.sol\";\r\nimport \"openzeppelin-solidity/contracts/ownership/Ownable.sol\";\r\n\r\n/**\r\n * @title Crowdsale\r\n * @dev Crowdsale is a base contract for managing a token crowdsale,\r\n * allowing investors to purchase tokens with ether. This contract implements\r\n * such functionality in its most fundamental form and can be extended to provide additional\r\n * functionality and/or custom behavior.\r\n * The external interface represents the basic interface for purchasing tokens, and conform\r\n * the base architecture for crowdsales. They are *not* intended to be modified / overriden.\r\n * The internal interface conforms the extensible and modifiable surface of crowdsales. Override\r\n * the methods to add functionality. Consider using 'super' where appropiate to concatenate\r\n * behavior.\r\n */\r\ncontract Crowdsale is Ownable{\r\n  using SafeMath for uint256;\r\n\r\n  // The token being sold\r\n  BitcademyToken public token;\r\n\r\n  // Address where funds are collected\r\n  //address public wallet;\r\n\r\n\r\n    //custom release date\r\n   uint256 public release_date = 1556582400;\r\n  // No of Tokens per ether\r\n  uint256 public rate;\r\n\r\n  // Amount of wei raised\r\n  uint256 public weiRaised;\r\n\r\n  //amount of tokens to be sold for Main ICO\r\n  uint256 public supply_cap = 350000000;\r\n\r\n\r\n  address[] public investors;\r\n  // Save Token Holder addresses\r\n  address public tokenHolder;\r\n\r\n  mapping(address => bool) public whitelist;\r\n  mapping (address => uint256) public tokenToClaim;\r\n\r\n\r\n  uint256 public openingTime;\r\n  uint256 public closingTime;\r\n\r\n  // Remaining tokens which are yet to be sold\r\n  uint256 public remainingTokens;\r\n\r\n  // Tokens sold excluding bonus\r\n  uint256 public tokenSoldExcludeBonus;\r\n\r\n  // minimum amount of funds to be raised in weis\r\n  uint256 public goal;\r\n\r\n  // refund vault used to hold funds while crowdsale is running\r\n  RefundVault public vault;\r\n\r\n  /**\r\n   * @dev Reverts if beneficiary is not whitelisted. Can be used when extending this contract.\r\n   */\r\n  modifier isWhitelisted(address _beneficiary) {\r\n    require(whitelist[_beneficiary]);\r\n    _;\r\n  }\r\n\r\n  /**\r\n   * @dev Reverts if not in crowdsale time range.\r\n   */\r\n  modifier onlyWhileOpen {\r\n    // solium-disable-next-line security/no-block-members\r\n    require(block.timestamp >= openingTime && block.timestamp <= closingTime);\r\n    _;\r\n  }\r\n\r\n\r\n\r\n\r\n  bool public isFinalized = false;\r\n\r\n  event Finalized();\r\n\r\n  /**\r\n   * @dev Must be called after crowdsale ends, to do some extra finalization\r\n   * work. Calls the contract's finalization function.\r\n   */\r\n  function finalize() onlyOwner public {\r\n    require(!isFinalized);\r\n    require(hasClosed());\r\n\r\n    finalization();\r\n    emit Finalized();\r\n\r\n    isFinalized = true;\r\n  }\r\n\r\n  /**\r\n   * @dev Investors can claim refunds here if crowdsale is unsuccessful\r\n   */\r\n  function claimRefund() public {\r\n    require(isFinalized);\r\n    require(!goalReached());\r\n\r\n    vault.refund(msg.sender);\r\n  }\r\n\r\n  /**\r\n   * @dev Investors can claim refunds here if the investor is blacklisted\r\n   */\r\n  function blacklistClaimRefund() public {\r\n    require(isFinalized);\r\n    require(tokenToClaim[msg.sender] > 0);\r\n    vault.refund(msg.sender);\r\n  }\r\n\r\n\r\n  /**\r\n   * @dev Checks whether funding goal was reached.\r\n   * @return Whether funding goal was reached\r\n   */\r\n  function goalReached() public view returns (bool) {\r\n    return weiRaised >= goal;\r\n  }\r\n\r\n\r\n\r\n  /**\r\n   * @dev vault finalization task, called when owner calls finalize()\r\n   */\r\n  function finalization() internal {\r\n    if (goalReached()) {\r\n      vault.close();\r\n    } else {\r\n      vault.enableRefunds();\r\n    }\r\n  }\r\n\r\n  /**\r\n   * Event for token purchase logging\r\n   * @param purchaser who paid for the tokens\r\n   * @param beneficiary who got the tokens\r\n   * @param value weis paid for purchase\r\n   * @param amount amount of tokens purchased\r\n   */\r\n  event TokenPurchase(\r\n    address indexed purchaser,\r\n    address indexed beneficiary,\r\n    uint256 value,\r\n    uint256 amount\r\n  );\r\n\r\n  /**\r\n   * @param _rate No of tokens per ether\r\n   * @param _multi_sig_wallet Address where collected funds will be forwarded to\r\n   * @param _token Address of the token being sold\r\n   */\r\n  constructor(uint256 _rate, BitcademyToken _token, uint256 _openingTime, uint256 _closingTime, address _tokenHolder, address _multi_sig_wallet, uint256 _goal) public {\r\n    require(_rate > 0);\r\n    require(_multi_sig_wallet != address(0));\r\n    require(_token != address(0));\r\n    require(_tokenHolder!= address(0));\r\n    require(_openingTime >= block.timestamp);\r\n    require(_closingTime >= _openingTime);\r\n    require(_goal > 0);\r\n\r\n    vault = new RefundVault(_multi_sig_wallet);\r\n    goal = _goal;\r\n    rate = _rate;\r\n    token = _token;\r\n    tokenHolder = _tokenHolder;\r\n    openingTime = _openingTime;\r\n    closingTime = _closingTime;\r\n    token.approve(tokenHolder, supply_cap.mul(10**18));\r\n    remainingTokens = token.allowance(tokenHolder , address(this));\r\n  }\r\n\r\n  // -----------------------------------------\r\n  // Crowdsale external interface\r\n  // -----------------------------------------\r\n\r\n  /**\r\n   * @dev fallback function ***DO NOT OVERRIDE***\r\n   */\r\n  function () external payable {\r\n    buyTokens(msg.sender);\r\n  }\r\n\r\n  /**\r\n   * @dev low level token purchase ***DO NOT OVERRIDE***\r\n   * @param _beneficiary Address performing the token purchase\r\n   */\r\n  function buyTokens(address _beneficiary) public payable {\r\n\r\n    uint256 weiAmount = msg.value;\r\n    uint minimumPurchase = weiAmount.mul(rate).div(10**18);\r\n    require(minimumPurchase >= 100);\r\n    uint256 refundWeiAmt = 0;\r\n    uint256 tokens = 0;\r\n    _preValidatePurchase(_beneficiary, weiAmount);\r\n\r\n    // calculate token amount to be delivered\r\n     (tokens, refundWeiAmt) = _getTokenAmount(weiAmount);\r\n\r\n    /* If the remaining tokens are less than tokens calculated above\r\n     * proceed with purchase of remaining tokens and refund the remaining ethers\r\n     * to the caller\r\n     */\r\n    if(refundWeiAmt > 0) {\r\n      msg.sender.transfer(refundWeiAmt);\r\n      weiAmount = weiAmount.sub(refundWeiAmt);\r\n    }\r\n\r\n    // update state\r\n    weiRaised = weiRaised.add(weiAmount);\r\n\r\n    _processPurchase(_beneficiary, tokens);\r\n    emit TokenPurchase(\r\n      msg.sender,\r\n      _beneficiary,\r\n      weiAmount,\r\n      tokens\r\n    );\r\n\r\n    _updatePurchasingState(_beneficiary, weiAmount);\r\n    _forwardFunds(weiAmount);\r\n    _postValidatePurchase(_beneficiary, weiAmount);\r\n  }\r\n\r\n  /**\r\n   * @dev Adds single address to whitelist.\r\n   * @param _beneficiary Address to be added to the whitelist\r\n   */\r\n  function addToWhitelist(address _beneficiary) external onlyOwner {\r\n    whitelist[_beneficiary] = true;\r\n  }\r\n\r\n  /**\r\n   * @dev Adds list of addresses to whitelist. Not overloaded due to limitations with truffle testing.\r\n   * @param _beneficiaries Addresses to be added to the whitelist\r\n   */\r\n  function addManyToWhitelist(address[] _beneficiaries) external onlyOwner {\r\n    for (uint256 i = 0; i < _beneficiaries.length; i++) {\r\n      whitelist[_beneficiaries[i]] = true;\r\n    }\r\n  }\r\n\r\n  /**\r\n   * @dev Removes single address from whitelist.\r\n   * @param _beneficiary Address to be removed to the whitelist\r\n   */\r\n  function removeFromWhitelist(address _beneficiary) external onlyOwner {\r\n    whitelist[_beneficiary] = false;\r\n  }\r\n\r\n  /**\r\n   * @dev Checks whether the period in which the crowdsale is open has already elapsed.\r\n   * @return Whether crowdsale period has elapsed\r\n   */\r\n  function hasClosed() public view returns (bool) {\r\n    // solium-disable-next-line security/no-block-members\r\n    return block.timestamp > closingTime;\r\n  }\r\n\r\n  // -----------------------------------------\r\n  // Internal interface (extensible)\r\n  // -----------------------------------------\r\n\r\n  /**\r\n   * @dev Validation of an incoming purchase. Use require statements to revert state when conditions are not met. Use super to concatenate validations.\r\n   * @param _beneficiary Address performing the token purchase\r\n   * @param _weiAmount Value in wei involved in the purchase\r\n   */\r\n  function _preValidatePurchase(\r\n    address _beneficiary,\r\n    uint256 _weiAmount\r\n  )\r\n    internal\r\n  {\r\n    require(_beneficiary != address(0));\r\n    require(_weiAmount != 0);\r\n  }\r\n\r\n  /**\r\n   * @dev Validation of an executed purchase. Observe state and use revert statements to undo rollback when valid conditions are not met.\r\n   * @param _beneficiary Address performing the token purchase\r\n   * @param _weiAmount Value in wei involved in the purchase\r\n   */\r\n  function _postValidatePurchase(\r\n    address _beneficiary,\r\n    uint256 _weiAmount\r\n  )\r\n    internal\r\n  {\r\n    // optional override\r\n  }\r\n\r\n  /**\r\n   * @dev Source of tokens. Override this method to modify the way in which the crowdsale ultimately gets and sends its tokens.\r\n   * @param _beneficiary Address performing the token purchase\r\n   * @param _tokenAmount Number of tokens to be emitted\r\n   */\r\n  function _deliverTokens(\r\n    address _beneficiary,\r\n    uint256 _tokenAmount\r\n  )\r\n    internal\r\n  {\r\n    token.transferFrom(tokenHolder,_beneficiary, _tokenAmount);\r\n  }\r\n\r\n  /**\r\n   * @dev Executed when a purchase has been validated and is ready to be executed. Not necessarily emits/sends tokens.\r\n   * @param _beneficiary Address receiving the tokens\r\n   * @param _tokenAmount Number of tokens to be purchased\r\n   */\r\n  function _processPurchase(\r\n    address _beneficiary,\r\n    uint256 _tokenAmount\r\n  )\r\n    internal\r\n    isWhitelisted(_beneficiary)\r\n    onlyWhileOpen\r\n  {\r\n    //_deliverTokens(_beneficiary, _tokenAmount);\r\n    if (tokenToClaim[_beneficiary] == 0){\r\n    tokenToClaim[_beneficiary] = _tokenAmount;\r\n    }\r\n    else{\r\n      tokenToClaim[_beneficiary] = tokenToClaim[_beneficiary] + _tokenAmount;\r\n    }\r\n  }\r\n\r\n  /**\r\n   * @dev Override for extensions that require an internal state to check for validity (current user contributions, etc.)\r\n   * @param _beneficiary Address receiving the tokens\r\n   * @param _weiAmount Value in wei involved in the purchase\r\n   */\r\n  function _updatePurchasingState(\r\n    address _beneficiary,\r\n    uint256 _weiAmount\r\n  )\r\n    internal\r\n  {\r\n    // optional override\r\n  }\r\n\r\n  /**\r\n   * @dev Override to extend the way in which ether is converted to tokens.\r\n   * @param _weiAmount Value in wei to be converted into tokens\r\n   * @return Token price in weis\r\n   */\r\n  function _getTokenAmount(uint256 _weiAmount)\r\n    internal  returns (uint256, uint256)\r\n  {\r\n    //remainingTokens = remainingTokens.sub(_tokenAmount);\r\n    uint256 noOfTokens = 0;\r\n    uint256 tokensInCondition = 0;\r\n    uint256 weiAmount  = _weiAmount;\r\n    uint256 currentRate = 0;\r\n\r\n    if(remainingTokens > 300000000*(10**18)) {\r\n      currentRate = rate;\r\n      currentRate = currentRate.mul(10);\r\n      currentRate = currentRate.div(13);\r\n      tokensInCondition = weiAmount.div(currentRate);\r\n      if(tokensInCondition > remainingTokens.sub(300000000*(10**18))){\r\n        tokensInCondition = remainingTokens.sub(300000000*(10**18));\r\n        weiAmount = weiAmount.sub(tokensInCondition.mul(currentRate));\r\n        noOfTokens = noOfTokens.add(tokensInCondition);\r\n        remainingTokens = remainingTokens.sub(tokensInCondition);\r\n      }\r\n      else{\r\n        noOfTokens = noOfTokens.add(tokensInCondition);\r\n        weiAmount = 0;\r\n        remainingTokens = remainingTokens.sub(tokensInCondition);\r\n      }\r\n    }\r\n\r\n    if (remainingTokens <= 300000000*(10**18) && remainingTokens > 250000000*(10**18) && weiAmount > 0){\r\n      currentRate = rate;\r\n      currentRate = currentRate.mul(100);\r\n      currentRate = currentRate.div(125);\r\n      tokensInCondition = weiAmount.div(currentRate);\r\n      if(tokensInCondition > remainingTokens.sub(250000000*(10**18))){\r\n        tokensInCondition = remainingTokens.sub(250000000*(10**18));\r\n        weiAmount = weiAmount.sub(tokensInCondition.mul(currentRate));\r\n        noOfTokens = noOfTokens.add(tokensInCondition);\r\n        remainingTokens = remainingTokens.sub(noOfTokens);\r\n      }\r\n      else{\r\n        noOfTokens = tokensInCondition;\r\n        weiAmount = 0;\r\n      }\r\n    }\r\n    if (remainingTokens <= 250000000*(10**18) && remainingTokens > 200000000*(10**18) && weiAmount > 0 ){\r\n      currentRate = rate;\r\n      currentRate = currentRate.mul(100);\r\n      currentRate = currentRate.div(120);\r\n      tokensInCondition = weiAmount.div(currentRate);\r\n      if(tokensInCondition > remainingTokens.sub(200000000*(10**18))){\r\n        tokensInCondition = remainingTokens.sub(200000000*(10**18));\r\n        weiAmount = weiAmount.sub(tokensInCondition.mul(currentRate));\r\n        noOfTokens = noOfTokens.add(tokensInCondition);\r\n        remainingTokens = remainingTokens.sub(tokensInCondition);\r\n      }\r\n      else{\r\n        noOfTokens = noOfTokens.add(tokensInCondition);\r\n        weiAmount = 0;\r\n        remainingTokens = remainingTokens.sub(tokensInCondition);\r\n      }\r\n    }\r\n    if (remainingTokens <= 200000000*(10**18) && remainingTokens > 150000000*(10**18) && weiAmount > 0 ){\r\n      currentRate = rate;\r\n      currentRate = currentRate.mul(100);\r\n      currentRate = currentRate.div(115);\r\n      tokensInCondition = weiAmount.div(currentRate);\r\n      if(tokensInCondition > remainingTokens.sub(150000000*(10**18))){\r\n        tokensInCondition = remainingTokens.sub(150000000*(10**18));\r\n        weiAmount = weiAmount.sub(tokensInCondition.mul(currentRate));\r\n        noOfTokens = noOfTokens.add(tokensInCondition);\r\n        remainingTokens = remainingTokens.sub(tokensInCondition);\r\n      }\r\n      else{\r\n        noOfTokens = noOfTokens.add(tokensInCondition);\r\n        weiAmount = 0;\r\n        remainingTokens = remainingTokens.sub(tokensInCondition);\r\n      }\r\n    }\r\n     if (remainingTokens <= 150000000*(10**18) && remainingTokens > 100000000*(10**18) && weiAmount > 0){\r\n      currentRate = rate;\r\n      currentRate = currentRate.mul(100);\r\n      currentRate = currentRate.div(110);\r\n      tokensInCondition = weiAmount.div(currentRate);\r\n      if(tokensInCondition > remainingTokens.sub(100000000*(10**18))){\r\n        tokensInCondition = remainingTokens.sub(100000000*(10**18));\r\n        weiAmount = weiAmount.sub(tokensInCondition.mul(currentRate));\r\n        noOfTokens = noOfTokens.add(tokensInCondition);\r\n        remainingTokens = remainingTokens.sub(tokensInCondition);\r\n      }\r\n      else{\r\n        noOfTokens = noOfTokens.add(tokensInCondition);\r\n        weiAmount = 0;\r\n        remainingTokens = remainingTokens.sub(tokensInCondition);\r\n      }\r\n    }\r\n\r\n    if (remainingTokens <= 100000000*(10**18) && remainingTokens > 50000000*(10**18) ){\r\n      currentRate = rate;\r\n      currentRate = currentRate.mul(100);\r\n      currentRate = currentRate.div(105);\r\n      tokensInCondition = weiAmount.div(currentRate);\r\n      if(tokensInCondition > remainingTokens.sub(50000000*(10**18))){\r\n        tokensInCondition = remainingTokens.sub(50000000*(10**18));\r\n        weiAmount = weiAmount.sub(tokensInCondition.mul(currentRate));\r\n        noOfTokens = noOfTokens.add(tokensInCondition);\r\n        remainingTokens = remainingTokens.sub(tokensInCondition);\r\n      }\r\n      else{\r\n        noOfTokens = noOfTokens.add(tokensInCondition);\r\n        weiAmount = 0;\r\n        remainingTokens = remainingTokens.sub(tokensInCondition);\r\n      }\r\n    }\r\n    if(remainingTokens <= 50000000*(10**18)){\r\n      currentRate = rate;\r\n      tokensInCondition = weiAmount.div(currentRate);\r\n      if(tokensInCondition > remainingTokens) {\r\n        noOfTokens = remainingTokens;\r\n        weiAmount = weiAmount.sub(noOfTokens.mul(currentRate));\r\n      }\r\n      else{\r\n        noOfTokens = noOfTokens.add(tokensInCondition);\r\n        weiAmount = 0;\r\n        remainingTokens = remainingTokens.sub(tokensInCondition);\r\n      }\r\n    }\r\n    return (noOfTokens, weiAmount);\r\n  }\r\n\r\n  /**\r\n   * @dev Determines how ETH is stored/forwarded on purchases.\r\n   */\r\n  function _forwardFunds(uint256 _value) internal {\r\n    vault.deposit.value(_value)(msg.sender);\r\n    investors.push(msg.sender);\r\n  }\r\n   /**\r\n   * @dev Set the exchange rate of the token (number of token per ether)\r\n   */\r\n  function setRate(uint256 _rate) public onlyOwner{\r\n    rate = _rate.mul(38).div(1000);\r\n  }\r\n\r\n  /**\r\n   * @dev calculate the number of investors in crowdsale\r\n   */\r\n\r\n  function investorsCount() public constant returns (uint) {\r\n    return investors.length;\r\n  }\r\n\r\n    /**\r\n   * @dev allow investors to withdraw their tokens after the mainsale is done\r\n   */\r\n\r\n  function withdrawAfterMainSale() isWhitelisted(msg.sender) public {\r\n    require(goalReached());\r\n    require(release_date < now);\r\n    require(isFinalized);\r\n    require(tokenToClaim[msg.sender] >= 0);\r\n      if (tokenToClaim[msg.sender] > 0) {\r\n         _deliverTokens(msg.sender, tokenToClaim[msg.sender]);\r\n         tokenToClaim[msg.sender] = 0;\r\n      }\r\n  }\r\n\r\n    /**\r\n   * @dev Update the release date of purchased tokens\r\n   */\r\n\r\n  function updateReleaseDate(uint256 _new_release_date) onlyOwner public{\r\n    require( _new_release_date > now &&  _new_release_date != release_date);\r\n     release_date = _new_release_date;\r\n    }\r\n\r\n      /**\r\n   * @dev Update the close date of crowdsale\r\n   */\r\n\r\n    function adjustCloseDate(uint256 _new_close_date) onlyOwner public{\r\n    require(!isFinalized);\r\n    require( _new_close_date > now &&  _new_close_date > closingTime );\r\n     closingTime = _new_close_date;\r\n    }\r\n}\r\n",
  "sourcePath": "/home/kevin/BitCademy/Bitcademy_ICO/contracts/Crowdsale.sol",
  "compiler": {
    "name": "solc",
    "version": "0.4.24+commit.e67f0147.Emscripten.clang"
  },
  "schemaVersion": "2.0.1",
  "updatedAt": "2018-10-31T17:17:30.855Z"
}