{
  "contractName": "Crowdsale",
  "abi": [
    {
      "constant": true,
      "inputs": [
        {
          "name": "",
          "type": "uint256"
        }
      ],
      "name": "blacklist",
      "outputs": [
        {
          "name": "",
          "type": "address"
        }
      ],
      "payable": false,
      "stateMutability": "view",
      "type": "function"
    },
    {
      "constant": true,
      "inputs": [],
      "name": "rate",
      "outputs": [
        {
          "name": "",
          "type": "uint256"
        }
      ],
      "payable": false,
      "stateMutability": "view",
      "type": "function"
    },
    {
      "constant": true,
      "inputs": [
        {
          "name": "",
          "type": "uint256"
        }
      ],
      "name": "investors",
      "outputs": [
        {
          "name": "",
          "type": "address"
        }
      ],
      "payable": false,
      "stateMutability": "view",
      "type": "function"
    },
    {
      "constant": true,
      "inputs": [],
      "name": "goal",
      "outputs": [
        {
          "name": "",
          "type": "uint256"
        }
      ],
      "payable": false,
      "stateMutability": "view",
      "type": "function"
    },
    {
      "constant": true,
      "inputs": [],
      "name": "weiRaised",
      "outputs": [
        {
          "name": "",
          "type": "uint256"
        }
      ],
      "payable": false,
      "stateMutability": "view",
      "type": "function"
    },
    {
      "constant": true,
      "inputs": [],
      "name": "closingTime",
      "outputs": [
        {
          "name": "",
          "type": "uint256"
        }
      ],
      "payable": false,
      "stateMutability": "view",
      "type": "function"
    },
    {
      "constant": false,
      "inputs": [],
      "name": "renounceOwnership",
      "outputs": [],
      "payable": false,
      "stateMutability": "nonpayable",
      "type": "function"
    },
    {
      "constant": true,
      "inputs": [],
      "name": "isFinalized",
      "outputs": [
        {
          "name": "",
          "type": "bool"
        }
      ],
      "payable": false,
      "stateMutability": "view",
      "type": "function"
    },
    {
      "constant": true,
      "inputs": [],
      "name": "owner",
      "outputs": [
        {
          "name": "",
          "type": "address"
        }
      ],
      "payable": false,
      "stateMutability": "view",
      "type": "function"
    },
    {
      "constant": true,
      "inputs": [
        {
          "name": "",
          "type": "address"
        }
      ],
      "name": "whitelist",
      "outputs": [
        {
          "name": "",
          "type": "bool"
        }
      ],
      "payable": false,
      "stateMutability": "view",
      "type": "function"
    },
    {
      "constant": true,
      "inputs": [],
      "name": "price",
      "outputs": [
        {
          "name": "",
          "type": "uint256"
        }
      ],
      "payable": false,
      "stateMutability": "view",
      "type": "function"
    },
    {
      "constant": true,
      "inputs": [],
      "name": "tokenSoldExcludeBonus",
      "outputs": [
        {
          "name": "",
          "type": "uint256"
        }
      ],
      "payable": false,
      "stateMutability": "view",
      "type": "function"
    },
    {
      "constant": true,
      "inputs": [],
      "name": "openingTime",
      "outputs": [
        {
          "name": "",
          "type": "uint256"
        }
      ],
      "payable": false,
      "stateMutability": "view",
      "type": "function"
    },
    {
      "constant": true,
      "inputs": [],
      "name": "remainingTokens",
      "outputs": [
        {
          "name": "",
          "type": "uint256"
        }
      ],
      "payable": false,
      "stateMutability": "view",
      "type": "function"
    },
    {
      "constant": true,
      "inputs": [],
      "name": "refundBlackListedAmount",
      "outputs": [
        {
          "name": "",
          "type": "uint256"
        }
      ],
      "payable": false,
      "stateMutability": "view",
      "type": "function"
    },
    {
      "constant": true,
      "inputs": [
        {
          "name": "",
          "type": "address"
        }
      ],
      "name": "tokenToClaim",
      "outputs": [
        {
          "name": "",
          "type": "uint256"
        }
      ],
      "payable": false,
      "stateMutability": "view",
      "type": "function"
    },
    {
      "constant": true,
      "inputs": [
        {
          "name": "",
          "type": "address"
        }
      ],
      "name": "blacklisted",
      "outputs": [
        {
          "name": "",
          "type": "bool"
        }
      ],
      "payable": false,
      "stateMutability": "view",
      "type": "function"
    },
    {
      "constant": true,
      "inputs": [],
      "name": "supply_cap",
      "outputs": [
        {
          "name": "",
          "type": "uint256"
        }
      ],
      "payable": false,
      "stateMutability": "view",
      "type": "function"
    },
    {
      "constant": false,
      "inputs": [
        {
          "name": "_newOwner",
          "type": "address"
        }
      ],
      "name": "transferOwnership",
      "outputs": [],
      "payable": false,
      "stateMutability": "nonpayable",
      "type": "function"
    },
    {
      "constant": true,
      "inputs": [],
      "name": "release_date",
      "outputs": [
        {
          "name": "",
          "type": "uint256"
        }
      ],
      "payable": false,
      "stateMutability": "view",
      "type": "function"
    },
    {
      "constant": true,
      "inputs": [],
      "name": "vault",
      "outputs": [
        {
          "name": "",
          "type": "address"
        }
      ],
      "payable": false,
      "stateMutability": "view",
      "type": "function"
    },
    {
      "constant": true,
      "inputs": [],
      "name": "token",
      "outputs": [
        {
          "name": "",
          "type": "address"
        }
      ],
      "payable": false,
      "stateMutability": "view",
      "type": "function"
    },
    {
      "inputs": [
        {
          "name": "_rate",
          "type": "uint256"
        },
        {
          "name": "_token",
          "type": "address"
        },
        {
          "name": "_openingTime",
          "type": "uint256"
        },
        {
          "name": "_closingTime",
          "type": "uint256"
        },
        {
          "name": "_multi_sig_wallet",
          "type": "address"
        },
        {
          "name": "_goal",
          "type": "uint256"
        },
        {
          "name": "_price",
          "type": "uint256"
        }
      ],
      "payable": false,
      "stateMutability": "nonpayable",
      "type": "constructor"
    },
    {
      "payable": true,
      "stateMutability": "payable",
      "type": "fallback"
    },
    {
      "anonymous": false,
      "inputs": [],
      "name": "Finalized",
      "type": "event"
    },
    {
      "anonymous": false,
      "inputs": [
        {
          "indexed": true,
          "name": "purchaser",
          "type": "address"
        },
        {
          "indexed": true,
          "name": "beneficiary",
          "type": "address"
        },
        {
          "indexed": false,
          "name": "value",
          "type": "uint256"
        },
        {
          "indexed": false,
          "name": "amount",
          "type": "uint256"
        }
      ],
      "name": "TokenPurchase",
      "type": "event"
    },
    {
      "anonymous": false,
      "inputs": [
        {
          "indexed": true,
          "name": "previousOwner",
          "type": "address"
        }
      ],
      "name": "OwnershipRenounced",
      "type": "event"
    },
    {
      "anonymous": false,
      "inputs": [
        {
          "indexed": true,
          "name": "previousOwner",
          "type": "address"
        },
        {
          "indexed": true,
          "name": "newOwner",
          "type": "address"
        }
      ],
      "name": "OwnershipTransferred",
      "type": "event"
    },
    {
      "constant": false,
      "inputs": [],
      "name": "finalize",
      "outputs": [],
      "payable": false,
      "stateMutability": "nonpayable",
      "type": "function"
    },
    {
      "constant": false,
      "inputs": [],
      "name": "claimRefund",
      "outputs": [],
      "payable": false,
      "stateMutability": "nonpayable",
      "type": "function"
    },
    {
      "constant": false,
      "inputs": [],
      "name": "blacklistClaimRefund",
      "outputs": [],
      "payable": false,
      "stateMutability": "nonpayable",
      "type": "function"
    },
    {
      "constant": true,
      "inputs": [],
      "name": "goalReached",
      "outputs": [
        {
          "name": "",
          "type": "bool"
        }
      ],
      "payable": false,
      "stateMutability": "view",
      "type": "function"
    },
    {
      "constant": false,
      "inputs": [
        {
          "name": "_beneficiary",
          "type": "address"
        }
      ],
      "name": "buyTokens",
      "outputs": [],
      "payable": true,
      "stateMutability": "payable",
      "type": "function"
    },
    {
      "constant": false,
      "inputs": [
        {
          "name": "_beneficiary",
          "type": "address"
        }
      ],
      "name": "addToWhitelist",
      "outputs": [],
      "payable": false,
      "stateMutability": "nonpayable",
      "type": "function"
    },
    {
      "constant": false,
      "inputs": [
        {
          "name": "_beneficiaries",
          "type": "address[]"
        }
      ],
      "name": "addManyToWhitelist",
      "outputs": [],
      "payable": false,
      "stateMutability": "nonpayable",
      "type": "function"
    },
    {
      "constant": false,
      "inputs": [
        {
          "name": "_beneficiary",
          "type": "address"
        }
      ],
      "name": "removeFromWhitelist",
      "outputs": [],
      "payable": false,
      "stateMutability": "nonpayable",
      "type": "function"
    },
    {
      "constant": true,
      "inputs": [],
      "name": "hasClosed",
      "outputs": [
        {
          "name": "",
          "type": "bool"
        }
      ],
      "payable": false,
      "stateMutability": "view",
      "type": "function"
    },
    {
      "constant": false,
      "inputs": [
        {
          "name": "_rate",
          "type": "uint256"
        }
      ],
      "name": "setRate",
      "outputs": [],
      "payable": false,
      "stateMutability": "nonpayable",
      "type": "function"
    },
    {
      "constant": false,
      "inputs": [
        {
          "name": "_price",
          "type": "uint256"
        }
      ],
      "name": "setEthPriceInUSD",
      "outputs": [],
      "payable": false,
      "stateMutability": "nonpayable",
      "type": "function"
    },
    {
      "constant": true,
      "inputs": [],
      "name": "investorsCount",
      "outputs": [
        {
          "name": "",
          "type": "uint256"
        }
      ],
      "payable": false,
      "stateMutability": "view",
      "type": "function"
    },
    {
      "constant": false,
      "inputs": [],
      "name": "withdrawAfterMainSale",
      "outputs": [],
      "payable": false,
      "stateMutability": "nonpayable",
      "type": "function"
    },
    {
      "constant": false,
      "inputs": [
        {
          "name": "_new_release_date",
          "type": "uint256"
        }
      ],
      "name": "updateReleaseDate",
      "outputs": [],
      "payable": false,
      "stateMutability": "nonpayable",
      "type": "function"
    },
    {
      "constant": false,
      "inputs": [
        {
          "name": "_new_close_date",
          "type": "uint256"
        }
      ],
      "name": "adjustCloseDate",
      "outputs": [],
      "payable": false,
      "stateMutability": "nonpayable",
      "type": "function"
    },
    {
      "constant": false,
      "inputs": [],
      "name": "getGoal",
      "outputs": [
        {
          "name": "",
          "type": "uint256"
        }
      ],
      "payable": false,
      "stateMutability": "nonpayable",
      "type": "function"
    }
  ],
  "bytecode": "0x6080604052635cc790006003556b0121836204bc2ce21e0000006007556000601260146101000a81548160ff0219169083151502179055503480156200004457600080fd5b5060405160e08062003d9883398101806040528101908080519060200190929190805190602001909291908051906020019092919080519060200190929190805190602001909291908051906020019092919080519060200190929190505050336000806101000a81548173ffffffffffffffffffffffffffffffffffffffff021916908373ffffffffffffffffffffffffffffffffffffffff160217905550600087111515620000f457600080fd5b600073ffffffffffffffffffffffffffffffffffffffff168373ffffffffffffffffffffffffffffffffffffffff16141515156200013157600080fd5b600073ffffffffffffffffffffffffffffffffffffffff168673ffffffffffffffffffffffffffffffffffffffff16141515156200016e57600080fd5b4285101515156200017e57600080fd5b8484101515156200018e57600080fd5b6000821115156200019e57600080fd5b600081111515620001ae57600080fd5b82620001b9620002be565b808273ffffffffffffffffffffffffffffffffffffffff1673ffffffffffffffffffffffffffffffffffffffff168152602001915050604051809103906000f0801580156200020c573d6000803e3d6000fd5b50601260006101000a81548173ffffffffffffffffffffffffffffffffffffffff021916908373ffffffffffffffffffffffffffffffffffffffff160217905550816011819055508660048190555085600160006101000a81548173ffffffffffffffffffffffffffffffffffffffff021916908373ffffffffffffffffffffffffffffffffffffffff1602179055508060058190555084600d8190555083600e8190555050505050505050620002cf565b604051610beb80620031ad83390190565b612ece80620002df6000396000f3006080604052600436106101d8576000357c0100000000000000000000000000000000000000000000000000000000900463ffffffff16806307a95e91146101e35780630ebaf5f5146102105780630f2a09191461023d5780631515bc2b146102aa5780632b711051146102d95780632c4e722e1461030457806334fcf4371461032f5780633feb5f2b1461035c57806340193883146103c95780634042b66f146103f45780634b6753bc1461041f5780634bb278f31461044a57806357b4273614610461578063715018a61461048e5780637d3d6522146104a55780638ab1d681146104d45780638c10671c146105175780638d4e4083146105525780638da5cb5b146105815780639b19251a146105d8578063a035b1fe14610633578063b4ef088f1461065e578063b5545a3c14610689578063b7960046146106a0578063b7a8807c146106b7578063b97a7d24146106e2578063bbd2af2f1461070d578063bf58390314610724578063bfe3edab1461074f578063c2fb345a1461077a578063dbac26e9146107d1578063e43252d71461082c578063eaac77ea1461086f578063ec8ac4d81461089a578063f2fde38b146108d0578063fb54f7d314610913578063fbfa77cf1461093e578063fc0c546a14610995575b6101e1336109ec565b005b3480156101ef57600080fd5b5061020e60048036038101908080359060200190929190505050610b6d565b005b34801561021c57600080fd5b5061023b60048036038101908080359060200190929190505050610c09565b005b34801561024957600080fd5b5061026860048036038101908080359060200190929190505050610c8a565b604051808273ffffffffffffffffffffffffffffffffffffffff1673ffffffffffffffffffffffffffffffffffffffff16815260200191505060405180910390f35b3480156102b657600080fd5b506102bf610cc8565b604051808215151515815260200191505060405180910390f35b3480156102e557600080fd5b506102ee610cd4565b6040518082815260200191505060405180910390f35b34801561031057600080fd5b50610319610ce1565b6040518082815260200191505060405180910390f35b34801561033b57600080fd5b5061035a60048036038101908080359060200190929190505050610ce7565b005b34801561036857600080fd5b5061038760048036038101908080359060200190929190505050610d5b565b604051808273ffffffffffffffffffffffffffffffffffffffff1673ffffffffffffffffffffffffffffffffffffffff16815260200191505060405180910390f35b3480156103d557600080fd5b506103de610d99565b6040518082815260200191505060405180910390f35b34801561040057600080fd5b50610409610d9f565b6040518082815260200191505060405180910390f35b34801561042b57600080fd5b50610434610da5565b6040518082815260200191505060405180910390f35b34801561045657600080fd5b5061045f610dab565b005b34801561046d57600080fd5b5061048c60048036038101908080359060200190929190505050610e86565b005b34801561049a57600080fd5b506104a3610efa565b005b3480156104b157600080fd5b506104ba610ffc565b604051808215151515815260200191505060405180910390f35b3480156104e057600080fd5b50610515600480360381019080803573ffffffffffffffffffffffffffffffffffffffff16906020019092919050505061100b565b005b34801561052357600080fd5b5061055060048036038101908080359060200190820180359060200191909192939192939050505061123e565b005b34801561055e57600080fd5b5061056761135b565b604051808215151515815260200191505060405180910390f35b34801561058d57600080fd5b5061059661136e565b604051808273ffffffffffffffffffffffffffffffffffffffff1673ffffffffffffffffffffffffffffffffffffffff16815260200191505060405180910390f35b3480156105e457600080fd5b50610619600480360381019080803573ffffffffffffffffffffffffffffffffffffffff169060200190929190505050611393565b604051808215151515815260200191505060405180910390f35b34801561063f57600080fd5b506106486113b3565b6040518082815260200191505060405180910390f35b34801561066a57600080fd5b506106736113b9565b6040518082815260200191505060405180910390f35b34801561069557600080fd5b5061069e6113bf565b005b3480156106ac57600080fd5b506106b56114c5565b005b3480156106c357600080fd5b506106cc6116b8565b6040518082815260200191505060405180910390f35b3480156106ee57600080fd5b506106f76116be565b6040518082815260200191505060405180910390f35b34801561071957600080fd5b50610722611723565b005b34801561073057600080fd5b506107396118e3565b6040518082815260200191505060405180910390f35b34801561075b57600080fd5b506107646118e9565b6040518082815260200191505060405180910390f35b34801561078657600080fd5b506107bb600480360381019080803573ffffffffffffffffffffffffffffffffffffffff1690602001909291905050506118ef565b6040518082815260200191505060405180910390f35b3480156107dd57600080fd5b50610812600480360381019080803573ffffffffffffffffffffffffffffffffffffffff169060200190929190505050611907565b604051808215151515815260200191505060405180910390f35b34801561083857600080fd5b5061086d600480360381019080803573ffffffffffffffffffffffffffffffffffffffff169060200190929190505050611927565b005b34801561087b57600080fd5b506108846119f9565b6040518082815260200191505060405180910390f35b6108ce600480360381019080803573ffffffffffffffffffffffffffffffffffffffff1690602001909291905050506109ec565b005b3480156108dc57600080fd5b50610911600480360381019080803573ffffffffffffffffffffffffffffffffffffffff1690602001909291905050506119ff565b005b34801561091f57600080fd5b50610928611a66565b6040518082815260200191505060405180910390f35b34801561094a57600080fd5b50610953611a6c565b604051808273ffffffffffffffffffffffffffffffffffffffff1673ffffffffffffffffffffffffffffffffffffffff16815260200191505060405180910390f35b3480156109a157600080fd5b506109aa611a92565b604051808273ffffffffffffffffffffffffffffffffffffffff1673ffffffffffffffffffffffffffffffffffffffff16815260200191505060405180910390f35b600080600080349350610a1d600554610a0f606487611ab890919063ffffffff16565b611af090919063ffffffff16565b9250828410151515610a2e57600080fd5b6000915060009050610a408585611b06565b610a4984611b56565b80935081925050506000821115610ab7573373ffffffffffffffffffffffffffffffffffffffff166108fc839081150290604051600060405180830381858888f19350505050158015610aa0573d6000803e3d6000fd5b50610ab4828561256c90919063ffffffff16565b93505b610acc8460065461258590919063ffffffff16565b600681905550610adc85826125a1565b8473ffffffffffffffffffffffffffffffffffffffff163373ffffffffffffffffffffffffffffffffffffffff167f623b3804fa71d67900d064613da8f94b9617215ee90799290593e1745087ad188684604051808381526020018281526020019250505060405180910390a3610b538585612735565b610b5c84612739565b610b668585612878565b5050505050565b6000809054906101000a900473ffffffffffffffffffffffffffffffffffffffff1673ffffffffffffffffffffffffffffffffffffffff163373ffffffffffffffffffffffffffffffffffffffff16141515610bc857600080fd5b601260149054906101000a900460ff16151515610be457600080fd5b4281118015610bf45750600e5481115b1515610bff57600080fd5b80600e8190555050565b6000809054906101000a900473ffffffffffffffffffffffffffffffffffffffff1673ffffffffffffffffffffffffffffffffffffffff163373ffffffffffffffffffffffffffffffffffffffff16141515610c6457600080fd5b4281118015610c7557506003548114155b1515610c8057600080fd5b8060038190555050565b600981815481101515610c9957fe5b906000526020600020016000915054906101000a900473ffffffffffffffffffffffffffffffffffffffff1681565b6000600e544211905090565b6000600880549050905090565b60045481565b6000809054906101000a900473ffffffffffffffffffffffffffffffffffffffff1673ffffffffffffffffffffffffffffffffffffffff163373ffffffffffffffffffffffffffffffffffffffff16141515610d4257600080fd5b600081111515610d5157600080fd5b8060048190555050565b600881815481101515610d6a57fe5b906000526020600020016000915054906101000a900473ffffffffffffffffffffffffffffffffffffffff1681565b60115481565b60065481565b600e5481565b6000809054906101000a900473ffffffffffffffffffffffffffffffffffffffff1673ffffffffffffffffffffffffffffffffffffffff163373ffffffffffffffffffffffffffffffffffffffff16141515610e0657600080fd5b601260149054906101000a900460ff16151515610e2257600080fd5b610e2a610cc8565b1515610e3557600080fd5b610e3d61287c565b7f6823b073d48d6e3a7d385eeb601452d680e74bb46afe3255a7d778f3a9b1768160405160405180910390a16001601260146101000a81548160ff021916908315150217905550565b6000809054906101000a900473ffffffffffffffffffffffffffffffffffffffff1673ffffffffffffffffffffffffffffffffffffffff163373ffffffffffffffffffffffffffffffffffffffff16141515610ee157600080fd5b600081111515610ef057600080fd5b8060058190555050565b6000809054906101000a900473ffffffffffffffffffffffffffffffffffffffff1673ffffffffffffffffffffffffffffffffffffffff163373ffffffffffffffffffffffffffffffffffffffff16141515610f5557600080fd5b6000809054906101000a900473ffffffffffffffffffffffffffffffffffffffff1673ffffffffffffffffffffffffffffffffffffffff167ff8df31144d9c2f0f6b59d69b8b98abd5459d07f2742c4df920b25aae33c6482060405160405180910390a260008060006101000a81548173ffffffffffffffffffffffffffffffffffffffff021916908373ffffffffffffffffffffffffffffffffffffffff160217905550565b60006011546006541015905090565b6000809054906101000a900473ffffffffffffffffffffffffffffffffffffffff1673ffffffffffffffffffffffffffffffffffffffff163373ffffffffffffffffffffffffffffffffffffffff1614151561106657600080fd5b601260149054906101000a900460ff1615151561108257600080fd5b6000600a60008373ffffffffffffffffffffffffffffffffffffffff1673ffffffffffffffffffffffffffffffffffffffff16815260200190815260200160002060006101000a81548160ff0219169083151502179055506000600c60008373ffffffffffffffffffffffffffffffffffffffff1673ffffffffffffffffffffffffffffffffffffffff1681526020019081526020016000205411156111e357611176600c60008373ffffffffffffffffffffffffffffffffffffffff1673ffffffffffffffffffffffffffffffffffffffff1681526020019081526020016000205460025461258590919063ffffffff16565b60028190555060098190806001815401808255809150509060018203906000526020600020016000909192909190916101000a81548173ffffffffffffffffffffffffffffffffffffffff021916908373ffffffffffffffffffffffffffffffffffffffff160217905550505b6001600b60008373ffffffffffffffffffffffffffffffffffffffff1673ffffffffffffffffffffffffffffffffffffffff16815260200190815260200160002060006101000a81548160ff02191690831515021790555050565b60008060009054906101000a900473ffffffffffffffffffffffffffffffffffffffff1673ffffffffffffffffffffffffffffffffffffffff163373ffffffffffffffffffffffffffffffffffffffff1614151561129b57600080fd5b601260149054906101000a900460ff161515156112b757600080fd5b600090505b82829050811015611356576001600a600085858581811015156112db57fe5b9050602002013573ffffffffffffffffffffffffffffffffffffffff1673ffffffffffffffffffffffffffffffffffffffff1673ffffffffffffffffffffffffffffffffffffffff16815260200190815260200160002060006101000a81548160ff02191690831515021790555080806001019150506112bc565b505050565b601260149054906101000a900460ff1681565b6000809054906101000a900473ffffffffffffffffffffffffffffffffffffffff1681565b600a6020528060005260406000206000915054906101000a900460ff1681565b60055481565b60105481565b601260149054906101000a900460ff1615156113da57600080fd5b6113e2610ffc565b1515156113ee57600080fd5b601260009054906101000a900473ffffffffffffffffffffffffffffffffffffffff1673ffffffffffffffffffffffffffffffffffffffff1663fa89401a336040518263ffffffff167c0100000000000000000000000000000000000000000000000000000000028152600401808273ffffffffffffffffffffffffffffffffffffffff1673ffffffffffffffffffffffffffffffffffffffff168152602001915050600060405180830381600087803b1580156114ab57600080fd5b505af11580156114bf573d6000803e3d6000fd5b50505050565b33600b60008273ffffffffffffffffffffffffffffffffffffffff1673ffffffffffffffffffffffffffffffffffffffff16815260200190815260200160002060009054906101000a900460ff16151561151e57600080fd5b601260149054906101000a900460ff16151561153957600080fd5b611541610ffc565b15151561154d57600080fd5b6000600c60003373ffffffffffffffffffffffffffffffffffffffff1673ffffffffffffffffffffffffffffffffffffffff1681526020019081526020016000205411151561159b57600080fd5b601260009054906101000a900473ffffffffffffffffffffffffffffffffffffffff1673ffffffffffffffffffffffffffffffffffffffff1663fa89401a336040518263ffffffff167c0100000000000000000000000000000000000000000000000000000000028152600401808273ffffffffffffffffffffffffffffffffffffffff1673ffffffffffffffffffffffffffffffffffffffff168152602001915050600060405180830381600087803b15801561165857600080fd5b505af115801561166c573d6000803e3d6000fd5b505050506000600c60003373ffffffffffffffffffffffffffffffffffffffff1673ffffffffffffffffffffffffffffffffffffffff1681526020019081526020016000208190555050565b600d5481565b60008060009054906101000a900473ffffffffffffffffffffffffffffffffffffffff1673ffffffffffffffffffffffffffffffffffffffff163373ffffffffffffffffffffffffffffffffffffffff1614151561171b57600080fd5b601154905090565b33600a60008273ffffffffffffffffffffffffffffffffffffffff1673ffffffffffffffffffffffffffffffffffffffff16815260200190815260200160002060009054906101000a900460ff16151561177c57600080fd5b611784610ffc565b151561178f57600080fd5b4260035410151561179f57600080fd5b601260149054906101000a900460ff1615156117ba57600080fd5b6000600c60003373ffffffffffffffffffffffffffffffffffffffff1673ffffffffffffffffffffffffffffffffffffffff168152602001908152602001600020541015151561180957600080fd5b6000600c60003373ffffffffffffffffffffffffffffffffffffffff1673ffffffffffffffffffffffffffffffffffffffff1681526020019081526020016000205411156118e05761189a33600c60003373ffffffffffffffffffffffffffffffffffffffff1673ffffffffffffffffffffffffffffffffffffffff16815260200190815260200160002054612ca3565b6000600c60003373ffffffffffffffffffffffffffffffffffffffff1673ffffffffffffffffffffffffffffffffffffffff168152602001908152602001600020819055505b50565b600f5481565b60025481565b600c6020528060005260406000206000915090505481565b600b6020528060005260406000206000915054906101000a900460ff1681565b6000809054906101000a900473ffffffffffffffffffffffffffffffffffffffff1673ffffffffffffffffffffffffffffffffffffffff163373ffffffffffffffffffffffffffffffffffffffff1614151561198257600080fd5b601260149054906101000a900460ff1615151561199e57600080fd5b6001600a60008373ffffffffffffffffffffffffffffffffffffffff1673ffffffffffffffffffffffffffffffffffffffff16815260200190815260200160002060006101000a81548160ff02191690831515021790555050565b60075481565b6000809054906101000a900473ffffffffffffffffffffffffffffffffffffffff1673ffffffffffffffffffffffffffffffffffffffff163373ffffffffffffffffffffffffffffffffffffffff16141515611a5a57600080fd5b611a6381612da8565b50565b60035481565b601260009054906101000a900473ffffffffffffffffffffffffffffffffffffffff1681565b600160009054906101000a900473ffffffffffffffffffffffffffffffffffffffff1681565b600080831415611acb5760009050611aea565b8183029050818382811515611adc57fe5b04141515611ae657fe5b8090505b92915050565b60008183811515611afd57fe5b04905092915050565b600073ffffffffffffffffffffffffffffffffffffffff168273ffffffffffffffffffffffffffffffffffffffff1614151515611b4257600080fd5b60008114151515611b5257600080fd5b5050565b600080600080600080600160009054906101000a900473ffffffffffffffffffffffffffffffffffffffff1673ffffffffffffffffffffffffffffffffffffffff166370a08231306040518263ffffffff167c0100000000000000000000000000000000000000000000000000000000028152600401808273ffffffffffffffffffffffffffffffffffffffff1673ffffffffffffffffffffffffffffffffffffffff168152602001915050602060405180830381600087803b158015611c1c57600080fd5b505af1158015611c30573d6000803e3d6000fd5b505050506040513d6020811015611c4657600080fd5b8101908080519060200190929190505050600f819055506000600f54111515611c6e57600080fd5b6000935060009250869150600090506311e1a300600f54118015611c925750600082115b15611dc5576004549050611cb0600d82611ab890919063ffffffff16565b9050611cc6600a82611af090919063ffffffff16565b9050670de0b6b3a764000087811515611cdb57fe5b04670de0b6b3a76400008202029250611d0a6af8277896582678ac000000600f5461256c90919063ffffffff16565b831115611d8f57611d316af8277896582678ac000000600f5461256c90919063ffffffff16565b9250611d58611d498285611ab890919063ffffffff16565b8361256c90919063ffffffff16565b9150611d6d838561258590919063ffffffff16565b9350611d8483600f5461256c90919063ffffffff16565b600f81905550611dc4565b611da2838561258590919063ffffffff16565b935060009150611dbd83600f5461256c90919063ffffffff16565b600f819055505b5b6af8277896582678ac000000600f5411158015611dee57506acecb8f27f4200f3a000000600f54115b8015611dfa5750600082115b15611f1b576004549050611e18607d82611ab890919063ffffffff16565b9050611e2e606482611af090919063ffffffff16565b9050670de0b6b3a764000087811515611e4357fe5b04670de0b6b3a76400008202029250611e726acecb8f27f4200f3a000000600f5461256c90919063ffffffff16565b831115611ef757611e996acecb8f27f4200f3a000000600f5461256c90919063ffffffff16565b9250611ec0611eb18285611ab890919063ffffffff16565b8361256c90919063ffffffff16565b9150611ed5838561258590919063ffffffff16565b9350611eec84600f5461256c90919063ffffffff16565b600f81905550611f1a565b82935060009150611f1383600f5461256c90919063ffffffff16565b600f819055505b5b6acecb8f27f4200f3a000000600f5411158015611f4457506aa56fa5b99019a5c8000000600f54115b8015611f505750600082115b15612083576004549050611f6e607882611ab890919063ffffffff16565b9050611f84606482611af090919063ffffffff16565b9050670de0b6b3a764000087811515611f9957fe5b04670de0b6b3a76400008202029250611fc86aa56fa5b99019a5c8000000600f5461256c90919063ffffffff16565b83111561204d57611fef6aa56fa5b99019a5c8000000600f5461256c90919063ffffffff16565b92506120166120078285611ab890919063ffffffff16565b8361256c90919063ffffffff16565b915061202b838561258590919063ffffffff16565b935061204283600f5461256c90919063ffffffff16565b600f81905550612082565b612060838561258590919063ffffffff16565b93506000915061207b83600f5461256c90919063ffffffff16565b600f819055505b5b6aa56fa5b99019a5c8000000600f54111580156120ac57506a7c13bc4b2c133c56000000600f54115b80156120b85750600082115b156121eb5760045490506120d6607382611ab890919063ffffffff16565b90506120ec606482611af090919063ffffffff16565b9050670de0b6b3a76400008781151561210157fe5b04670de0b6b3a764000082020292506121306a7c13bc4b2c133c56000000600f5461256c90919063ffffffff16565b8311156121b5576121576a7c13bc4b2c133c56000000600f5461256c90919063ffffffff16565b925061217e61216f8285611ab890919063ffffffff16565b8361256c90919063ffffffff16565b9150612193838561258590919063ffffffff16565b93506121aa83600f5461256c90919063ffffffff16565b600f819055506121ea565b6121c8838561258590919063ffffffff16565b9350600091506121e383600f5461256c90919063ffffffff16565b600f819055505b5b6a7c13bc4b2c133c56000000600f541115801561221457506a52b7d2dcc80cd2e4000000600f54115b80156122205750600082115b1561235357600454905061223e600b82611ab890919063ffffffff16565b9050612254600a82611af090919063ffffffff16565b9050670de0b6b3a76400008781151561226957fe5b04670de0b6b3a764000082020292506122986a52b7d2dcc80cd2e4000000600f5461256c90919063ffffffff16565b83111561231d576122bf6a52b7d2dcc80cd2e4000000600f5461256c90919063ffffffff16565b92506122e66122d78285611ab890919063ffffffff16565b8361256c90919063ffffffff16565b91506122fb838561258590919063ffffffff16565b935061231283600f5461256c90919063ffffffff16565b600f81905550612352565b612330838561258590919063ffffffff16565b93506000915061234b83600f5461256c90919063ffffffff16565b600f819055505b5b6a52b7d2dcc80cd2e4000000600f541115801561237c57506a295be96e64066972000000600f54115b156124af57600454905061239a606982611ab890919063ffffffff16565b90506123b0606482611af090919063ffffffff16565b9050670de0b6b3a7640000878115156123c557fe5b04670de0b6b3a764000082020292506123f46a295be96e64066972000000600f5461256c90919063ffffffff16565b8311156124795761241b6a295be96e64066972000000600f5461256c90919063ffffffff16565b92506124426124338285611ab890919063ffffffff16565b8361256c90919063ffffffff16565b9150612457838561258590919063ffffffff16565b935061246e83600f5461256c90919063ffffffff16565b600f819055506124ae565b61248c838561258590919063ffffffff16565b9350600091506124a783600f5461256c90919063ffffffff16565b600f819055505b5b6a295be96e64066972000000600f5411151561255d576004549050670de0b6b3a7640000878115156124dd57fe5b04670de0b6b3a76400008202029250600f5483111561252757600f5493506125206125118286611ab890919063ffffffff16565b8361256c90919063ffffffff16565b915061255c565b61253a838561258590919063ffffffff16565b93506000915061255583600f5461256c90919063ffffffff16565b600f819055505b5b83829550955050505050915091565b600082821115151561257a57fe5b818303905092915050565b6000818301905082811015151561259857fe5b80905092915050565b81600a60008273ffffffffffffffffffffffffffffffffffffffff1673ffffffffffffffffffffffffffffffffffffffff16815260200190815260200160002060009054906101000a900460ff1615156125fa57600080fd5b600d54421015801561260e5750600e544211155b151561261957600080fd5b6000600c60008573ffffffffffffffffffffffffffffffffffffffff1673ffffffffffffffffffffffffffffffffffffffff1681526020019081526020016000205414156126aa5781600c60008573ffffffffffffffffffffffffffffffffffffffff1673ffffffffffffffffffffffffffffffffffffffff16815260200190815260200160002081905550612730565b81600c60008573ffffffffffffffffffffffffffffffffffffffff1673ffffffffffffffffffffffffffffffffffffffff1681526020019081526020016000205401600c60008573ffffffffffffffffffffffffffffffffffffffff1673ffffffffffffffffffffffffffffffffffffffff168152602001908152602001600020819055505b505050565b5050565b601260009054906101000a900473ffffffffffffffffffffffffffffffffffffffff1673ffffffffffffffffffffffffffffffffffffffff1663f340fa0182336040518363ffffffff167c0100000000000000000000000000000000000000000000000000000000028152600401808273ffffffffffffffffffffffffffffffffffffffff1673ffffffffffffffffffffffffffffffffffffffff1681526020019150506000604051808303818588803b1580156127f657600080fd5b505af115801561280a573d6000803e3d6000fd5b505050505060083390806001815401808255809150509060018203906000526020600020016000909192909190916101000a81548173ffffffffffffffffffffffffffffffffffffffff021916908373ffffffffffffffffffffffffffffffffffffffff1602179055505050565b5050565b600080612887610ffc565b15612c005760006002541115612b5d57600091505b600980549050821015612b5c576009828154811015156128b857fe5b9060005260206000200160009054906101000a900473ffffffffffffffffffffffffffffffffffffffff1690506000600c60008373ffffffffffffffffffffffffffffffffffffffff1673ffffffffffffffffffffffffffffffffffffffff1681526020019081526020016000205411151561293357600080fd5b6000601260009054906101000a900473ffffffffffffffffffffffffffffffffffffffff1673ffffffffffffffffffffffffffffffffffffffff1663cb13cddb836040518263ffffffff167c0100000000000000000000000000000000000000000000000000000000028152600401808273ffffffffffffffffffffffffffffffffffffffff1673ffffffffffffffffffffffffffffffffffffffff168152602001915050602060405180830381600087803b1580156129f257600080fd5b505af1158015612a06573d6000803e3d6000fd5b505050506040513d6020811015612a1c57600080fd5b8101908080519060200190929190505050141515612b4f57601260009054906101000a900473ffffffffffffffffffffffffffffffffffffffff1673ffffffffffffffffffffffffffffffffffffffff1663fa89401a826040518263ffffffff167c0100000000000000000000000000000000000000000000000000000000028152600401808273ffffffffffffffffffffffffffffffffffffffff1673ffffffffffffffffffffffffffffffffffffffff168152602001915050600060405180830381600087803b158015612af157600080fd5b505af1158015612b05573d6000803e3d6000fd5b505050506000600c60008373ffffffffffffffffffffffffffffffffffffffff1673ffffffffffffffffffffffffffffffffffffffff168152602001908152602001600020819055505b818060010192505061289c565b5b601260009054906101000a900473ffffffffffffffffffffffffffffffffffffffff1673ffffffffffffffffffffffffffffffffffffffff166343d726d66040518163ffffffff167c0100000000000000000000000000000000000000000000000000000000028152600401600060405180830381600087803b158015612be357600080fd5b505af1158015612bf7573d6000803e3d6000fd5b50505050612c9f565b601260009054906101000a900473ffffffffffffffffffffffffffffffffffffffff1673ffffffffffffffffffffffffffffffffffffffff16638c52dc416040518163ffffffff167c0100000000000000000000000000000000000000000000000000000000028152600401600060405180830381600087803b158015612c8657600080fd5b505af1158015612c9a573d6000803e3d6000fd5b505050505b5050565b600160009054906101000a900473ffffffffffffffffffffffffffffffffffffffff1673ffffffffffffffffffffffffffffffffffffffff1663a9059cbb83836040518363ffffffff167c0100000000000000000000000000000000000000000000000000000000028152600401808373ffffffffffffffffffffffffffffffffffffffff1673ffffffffffffffffffffffffffffffffffffffff16815260200182815260200192505050602060405180830381600087803b158015612d6857600080fd5b505af1158015612d7c573d6000803e3d6000fd5b505050506040513d6020811015612d9257600080fd5b8101908080519060200190929190505050505050565b600073ffffffffffffffffffffffffffffffffffffffff168173ffffffffffffffffffffffffffffffffffffffff1614151515612de457600080fd5b8073ffffffffffffffffffffffffffffffffffffffff166000809054906101000a900473ffffffffffffffffffffffffffffffffffffffff1673ffffffffffffffffffffffffffffffffffffffff167f8be0079c531659141344cd1fd0a4f28419497f9722a3daafe3b4186f6b6457e060405160405180910390a3806000806101000a81548173ffffffffffffffffffffffffffffffffffffffff021916908373ffffffffffffffffffffffffffffffffffffffff160217905550505600a165627a7a72305820dc378cc5729397f5616ce2ab3fd27e11f83f643636e7b56950cac3645adad7f70029608060405234801561001057600080fd5b50604051602080610beb83398101806040528101908080519060200190929190505050336000806101000a81548173ffffffffffffffffffffffffffffffffffffffff021916908373ffffffffffffffffffffffffffffffffffffffff160217905550600073ffffffffffffffffffffffffffffffffffffffff168173ffffffffffffffffffffffffffffffffffffffff16141515156100af57600080fd5b80600260006101000a81548173ffffffffffffffffffffffffffffffffffffffff021916908373ffffffffffffffffffffffffffffffffffffffff1602179055506000600260146101000a81548160ff0219169083600281111561010f57fe5b021790555050610ac7806101246000396000f3006080604052600436106100a4576000357c0100000000000000000000000000000000000000000000000000000000900463ffffffff16806343d726d6146100a9578063521eb273146100c0578063715018a6146101175780638c52dc411461012e5780638da5cb5b14610145578063c19d93fb1461019c578063cb13cddb146101d5578063f2fde38b1461022c578063f340fa011461026f578063fa89401a146102a5575b600080fd5b3480156100b557600080fd5b506100be6102e8565b005b3480156100cc57600080fd5b506100d5610448565b604051808273ffffffffffffffffffffffffffffffffffffffff1673ffffffffffffffffffffffffffffffffffffffff16815260200191505060405180910390f35b34801561012357600080fd5b5061012c61046e565b005b34801561013a57600080fd5b50610143610570565b005b34801561015157600080fd5b5061015a610651565b604051808273ffffffffffffffffffffffffffffffffffffffff1673ffffffffffffffffffffffffffffffffffffffff16815260200191505060405180910390f35b3480156101a857600080fd5b506101b1610676565b604051808260028111156101c157fe5b60ff16815260200191505060405180910390f35b3480156101e157600080fd5b50610216600480360381019080803573ffffffffffffffffffffffffffffffffffffffff169060200190929190505050610689565b6040518082815260200191505060405180910390f35b34801561023857600080fd5b5061026d600480360381019080803573ffffffffffffffffffffffffffffffffffffffff1690602001909291905050506106a1565b005b6102a3600480360381019080803573ffffffffffffffffffffffffffffffffffffffff169060200190929190505050610708565b005b3480156102b157600080fd5b506102e6600480360381019080803573ffffffffffffffffffffffffffffffffffffffff16906020019092919050505061082f565b005b6000809054906101000a900473ffffffffffffffffffffffffffffffffffffffff1673ffffffffffffffffffffffffffffffffffffffff163373ffffffffffffffffffffffffffffffffffffffff1614151561034357600080fd5b6000600281111561035057fe5b600260149054906101000a900460ff16600281111561036b57fe5b14151561037757600080fd5b60028060146101000a81548160ff0219169083600281111561039557fe5b02179055507f1cdde67b72a90f19919ac732a437ac2f7a10fc128d28c2a6e525d89ce5cd9d3a60405160405180910390a1600260009054906101000a900473ffffffffffffffffffffffffffffffffffffffff1673ffffffffffffffffffffffffffffffffffffffff166108fc3073ffffffffffffffffffffffffffffffffffffffff16319081150290604051600060405180830381858888f19350505050158015610445573d6000803e3d6000fd5b50565b600260009054906101000a900473ffffffffffffffffffffffffffffffffffffffff1681565b6000809054906101000a900473ffffffffffffffffffffffffffffffffffffffff1673ffffffffffffffffffffffffffffffffffffffff163373ffffffffffffffffffffffffffffffffffffffff161415156104c957600080fd5b6000809054906101000a900473ffffffffffffffffffffffffffffffffffffffff1673ffffffffffffffffffffffffffffffffffffffff167ff8df31144d9c2f0f6b59d69b8b98abd5459d07f2742c4df920b25aae33c6482060405160405180910390a260008060006101000a81548173ffffffffffffffffffffffffffffffffffffffff021916908373ffffffffffffffffffffffffffffffffffffffff160217905550565b6000809054906101000a900473ffffffffffffffffffffffffffffffffffffffff1673ffffffffffffffffffffffffffffffffffffffff163373ffffffffffffffffffffffffffffffffffffffff161415156105cb57600080fd5b600060028111156105d857fe5b600260149054906101000a900460ff1660028111156105f357fe5b1415156105ff57600080fd5b6001600260146101000a81548160ff0219169083600281111561061e57fe5b02179055507f599d8e5a83cffb867d051598c4d70e805d59802d8081c1c7d6dffc5b6aca2b8960405160405180910390a1565b6000809054906101000a900473ffffffffffffffffffffffffffffffffffffffff1681565b600260149054906101000a900460ff1681565b60016020528060005260406000206000915090505481565b6000809054906101000a900473ffffffffffffffffffffffffffffffffffffffff1673ffffffffffffffffffffffffffffffffffffffff163373ffffffffffffffffffffffffffffffffffffffff161415156106fc57600080fd5b61070581610985565b50565b6000809054906101000a900473ffffffffffffffffffffffffffffffffffffffff1673ffffffffffffffffffffffffffffffffffffffff163373ffffffffffffffffffffffffffffffffffffffff1614151561076357600080fd5b6000600281111561077057fe5b600260149054906101000a900460ff16600281111561078b57fe5b14151561079757600080fd5b6107e934600160008473ffffffffffffffffffffffffffffffffffffffff1673ffffffffffffffffffffffffffffffffffffffff16815260200190815260200160002054610a7f90919063ffffffff16565b600160008373ffffffffffffffffffffffffffffffffffffffff1673ffffffffffffffffffffffffffffffffffffffff1681526020019081526020016000208190555050565b60006001600281111561083e57fe5b600260149054906101000a900460ff16600281111561085957fe5b14151561086557600080fd5b600160008373ffffffffffffffffffffffffffffffffffffffff1673ffffffffffffffffffffffffffffffffffffffff1681526020019081526020016000205490506000600160008473ffffffffffffffffffffffffffffffffffffffff1673ffffffffffffffffffffffffffffffffffffffff168152602001908152602001600020819055508173ffffffffffffffffffffffffffffffffffffffff166108fc829081150290604051600060405180830381858888f19350505050158015610932573d6000803e3d6000fd5b508173ffffffffffffffffffffffffffffffffffffffff167fd7dee2702d63ad89917b6a4da9981c90c4d24f8c2bdfd64c604ecae57d8d0651826040518082815260200191505060405180910390a25050565b600073ffffffffffffffffffffffffffffffffffffffff168173ffffffffffffffffffffffffffffffffffffffff16141515156109c157600080fd5b8073ffffffffffffffffffffffffffffffffffffffff166000809054906101000a900473ffffffffffffffffffffffffffffffffffffffff1673ffffffffffffffffffffffffffffffffffffffff167f8be0079c531659141344cd1fd0a4f28419497f9722a3daafe3b4186f6b6457e060405160405180910390a3806000806101000a81548173ffffffffffffffffffffffffffffffffffffffff021916908373ffffffffffffffffffffffffffffffffffffffff16021790555050565b60008183019050828110151515610a9257fe5b809050929150505600a165627a7a72305820dcdac02d91650302d2887545131c75550f5df128bc161837f4a1359fbe39c6d10029",
  "source": "pragma solidity ^0.4.23;\r\n\r\nimport \"./BitcademyToken.sol\";\r\nimport \"./RefundVault.sol\";\r\nimport \"openzeppelin-solidity/contracts/ownership/Ownable.sol\";\r\n\r\n/**\r\n * @title Crowdsale\r\n * @dev Crowdsale is a base contract for managing a token crowdsale,\r\n * allowing investors to purchase tokens with ether. This contract implements\r\n * such functionality in its most fundamental form and can be extended to provide additional\r\n * functionality and/or custom behavior.\r\n * The external interface represents the basic interface for purchasing tokens, and conform\r\n * the base architecture for crowdsales. They are *not* intended to be modified / overriden.\r\n * The internal interface conforms the extensible and modifiable surface of crowdsales. Override\r\n * the methods to add functionality. Consider using 'super' where appropiate to concatenate\r\n * behavior.\r\n */\r\ncontract Crowdsale is Ownable{\r\n  using SafeMath for uint256;\r\n\r\n  // The token being sold\r\n  BitcademyToken public token;\r\n\r\n  // Address where funds are collected\r\n  //address public wallet;\r\n  uint256 public refundBlackListedAmount;\r\n\r\n    //custom release date\r\n   uint256 public release_date = 1556582400;\r\n  // No of Tokens per ether\r\n  uint256 public rate;\r\n\r\n  // Ether Price in USD\r\n  uint256 public price;\r\n\r\n  // Amount of wei raised\r\n  uint256 public weiRaised;\r\n\r\n  //amount of tokens to be sold for Main ICO\r\n  uint256 public supply_cap = 350000000000000000000000000;\r\n\r\n\r\n  address[] public investors;\r\n  address[] public blacklist;\r\n\r\n\r\n  mapping(address => bool) public whitelist;\r\n  mapping(address => bool) public blacklisted;\r\n  mapping (address => uint256) public tokenToClaim;\r\n\r\n\r\n\r\n  uint256 public openingTime;\r\n  uint256 public closingTime;\r\n\r\n  // Remaining tokens which are yet to be sold\r\n  uint256 public remainingTokens;\r\n\r\n  // Tokens sold excluding bonus\r\n  uint256 public tokenSoldExcludeBonus;\r\n\r\n  // minimum amount of funds to be raised in weis\r\n  uint256 public goal;\r\n\r\n  // refund vault used to hold funds while crowdsale is running\r\n  RefundVault public vault;\r\n\r\n  /**\r\n   * @dev Reverts if beneficiary is not whitelisted. Can be used when extending this contract.\r\n   */\r\n  modifier isWhitelisted(address _beneficiary) {\r\n    require(whitelist[_beneficiary]);\r\n    _;\r\n  }\r\n\r\n  /**\r\n   * @dev Reverts if not in crowdsale time range.\r\n   */\r\n  modifier onlyWhileOpen {\r\n    // solium-disable-next-line security/no-block-members\r\n    require(block.timestamp >= openingTime && block.timestamp <= closingTime);\r\n    _;\r\n  }\r\n  /**\r\n   * @dev Reverts if the beneficiary is not blacklisted.\r\n   */\r\n  modifier onlyBlacklisted(address _beneficiary) {\r\n    require(blacklisted[_beneficiary]);\r\n    _;\r\n  }\r\n\r\n\r\n  bool public isFinalized = false;\r\n\r\n  event Finalized();\r\n\r\n  /**\r\n   * @dev Must be called after crowdsale ends, to do some extra finalization\r\n   * work. Calls the contract's finalization function.\r\n   */\r\n  function finalize() onlyOwner public {\r\n    require(!isFinalized);\r\n    require(hasClosed());\r\n\r\n    finalization();\r\n    emit Finalized();\r\n\r\n    isFinalized = true;\r\n  }\r\n\r\n  /**\r\n   * @dev Investors can claim refunds here if crowdsale is unsuccessful\r\n   */\r\n  function claimRefund() public {\r\n    require(isFinalized);\r\n    require(!goalReached());\r\n\r\n    vault.refund(msg.sender);\r\n  }\r\n\r\n  /**\r\n   * @dev Investors can claim refunds here if the blacklisted\r\n   */\r\n   function blacklistClaimRefund() onlyBlacklisted(msg.sender) public  {\r\n     require(isFinalized);\r\n     require(!goalReached());\r\n     require(tokenToClaim[msg.sender] > 0);\r\n     vault.refund(msg.sender);\r\n     tokenToClaim[msg.sender] = 0;\r\n   }\r\n\r\n\r\n  /**\r\n   * @dev Checks whether funding goal was reached.\r\n   * @return Whether funding goal was reached\r\n   */\r\n  function goalReached() public view returns (bool) {\r\n    return weiRaised >= goal;\r\n  }\r\n\r\n\r\n\r\n  /**\r\n   * @dev vault finalization task, called when owner calls finalize()\r\n   */\r\n   function finalization() internal {\r\n     if (goalReached()) {\r\n       if (refundBlackListedAmount > 0){\r\n         for (uint i = 0; i < blacklist.length; i++) {\r\n           address blacklistedInvestor = blacklist[i];\r\n           require(tokenToClaim[blacklistedInvestor] > 0);\r\n           if (vault.deposited(blacklistedInvestor) != 0) {\r\n            vault.refund(blacklistedInvestor);\r\n            tokenToClaim[blacklistedInvestor] = 0;\r\n          }\r\n         }\r\n       }\r\n       vault.close();\r\n     } else {\r\n       vault.enableRefunds();\r\n     }\r\n   }\r\n\r\n  /**\r\n   * Event for token purchase logging\r\n   * @param purchaser who paid for the tokens\r\n   * @param beneficiary who got the tokens\r\n   * @param value weis paid for purchase\r\n   * @param amount amount of tokens purchased\r\n   */\r\n  event TokenPurchase(\r\n    address indexed purchaser,\r\n    address indexed beneficiary,\r\n    uint256 value,\r\n    uint256 amount\r\n  );\r\n\r\n  /**\r\n   * @param _rate No of tokens per ether\r\n   * @param _multi_sig_wallet Address where collected funds will be forwarded to\r\n   * @param _goal the  token soft cap\r\n   */\r\n  constructor(uint256 _rate, BitcademyToken _token, uint256 _openingTime, uint256 _closingTime, address _multi_sig_wallet, uint256 _goal, uint256 _price) public {\r\n    require(_rate > 0);\r\n    require(_multi_sig_wallet != address(0));\r\n    require(_token != address(0));\r\n    require(_openingTime >= block.timestamp);\r\n    require(_closingTime >= _openingTime);\r\n    require(_goal > 0);\r\n    require(_price > 0);\r\n\r\n    vault = new RefundVault(_multi_sig_wallet);\r\n    goal = _goal;\r\n    rate = _rate;\r\n    token = _token;\r\n    price = _price;\r\n    openingTime = _openingTime;\r\n    closingTime = _closingTime;\r\n  }\r\n\r\n  // -----------------------------------------\r\n  // Crowdsale external interface\r\n  // -----------------------------------------\r\n\r\n  /**\r\n   * @dev fallback function ***DO NOT OVERRIDE***\r\n   */\r\n  function () external payable {\r\n    buyTokens(msg.sender);\r\n  }\r\n\r\n  /**\r\n   * @dev low level token purchase ***DO NOT OVERRIDE***\r\n   * @param _beneficiary Address performing the token purchase\r\n   */\r\n  function buyTokens(address _beneficiary) public payable {\r\n\r\n    uint256 weiAmount = msg.value;\r\n    uint256 minimumPurchase = weiAmount.mul(100).div(price);\r\n    require(weiAmount >= minimumPurchase);\r\n    uint256 refundWeiAmt = 0;\r\n    uint256 tokens = 0;\r\n    _preValidatePurchase(_beneficiary, weiAmount);\r\n\r\n    // calculate token amount to be delivered\r\n     (tokens, refundWeiAmt) = _getTokenAmount(weiAmount);\r\n\r\n    /* If the remaining tokens are less than tokens calculated above\r\n     * proceed with purchase of remaining tokens and refund the remaining ethers\r\n     * to the caller\r\n     */\r\n    if(refundWeiAmt > 0) {\r\n      msg.sender.transfer(refundWeiAmt);\r\n      weiAmount = weiAmount.sub(refundWeiAmt);\r\n    }\r\n\r\n    // update state\r\n    weiRaised = weiRaised.add(weiAmount);\r\n\r\n    _processPurchase(_beneficiary, tokens);\r\n    emit TokenPurchase(\r\n      msg.sender,\r\n      _beneficiary,\r\n      weiAmount,\r\n      tokens\r\n    );\r\n\r\n    _updatePurchasingState(_beneficiary, weiAmount);\r\n    _forwardFunds(weiAmount);\r\n    _postValidatePurchase(_beneficiary, weiAmount);\r\n  }\r\n\r\n  /**\r\n   * @dev Adds single address to whitelist.\r\n   * @param _beneficiary Address to be added to the whitelist\r\n   */\r\n  function addToWhitelist(address _beneficiary) external onlyOwner {\r\n    require(!isFinalized);\r\n    whitelist[_beneficiary] = true;\r\n  }\r\n\r\n  /**\r\n   * @dev Adds list of addresses to whitelist. Not overloaded due to limitations with truffle testing.\r\n   * @param _beneficiaries Addresses to be added to the whitelist\r\n   */\r\n  function addManyToWhitelist(address[] _beneficiaries) external onlyOwner {\r\n    require(!isFinalized);\r\n    for (uint256 i = 0; i < _beneficiaries.length; i++) {\r\n      whitelist[_beneficiaries[i]] = true;\r\n    }\r\n  }\r\n\r\n  /**\r\n   * @dev Removes single address from whitelist.\r\n   * @param _beneficiary Address to be removed to the whitelist\r\n   */\r\n   function removeFromWhitelist(address _beneficiary) external onlyOwner {\r\n     require(!isFinalized);\r\n     whitelist[_beneficiary] = false;\r\n     if (tokenToClaim[_beneficiary] > 0){\r\n       refundBlackListedAmount = refundBlackListedAmount.add(tokenToClaim[_beneficiary]);\r\n       blacklist.push(_beneficiary);\r\n     }\r\n     blacklisted[_beneficiary] = true;\r\n   }\r\n\r\n  /**\r\n   * @dev Checks whether the period in which the crowdsale is open has already elapsed.\r\n   * @return Whether crowdsale period has elapsed\r\n   */\r\n  function hasClosed() public view returns (bool) {\r\n    // solium-disable-next-line security/no-block-members\r\n    return block.timestamp > closingTime;\r\n  }\r\n\r\n  // -----------------------------------------\r\n  // Internal interface (extensible)\r\n  // -----------------------------------------\r\n\r\n  /**\r\n   * @dev Validation of an incoming purchase. Use require statements to revert state when conditions are not met. Use super to concatenate validations.\r\n   * @param _beneficiary Address performing the token purchase\r\n   * @param _weiAmount Value in wei involved in the purchase\r\n   */\r\n  function _preValidatePurchase(\r\n    address _beneficiary,\r\n    uint256 _weiAmount\r\n  )\r\n    internal\r\n  {\r\n    require(_beneficiary != address(0));\r\n    require(_weiAmount != 0);\r\n  }\r\n\r\n  /**\r\n   * @dev Validation of an executed purchase. Observe state and use revert statements to undo rollback when valid conditions are not met.\r\n   * @param _beneficiary Address performing the token purchase\r\n   * @param _weiAmount Value in wei involved in the purchase\r\n   */\r\n  function _postValidatePurchase(\r\n    address _beneficiary,\r\n    uint256 _weiAmount\r\n  )\r\n    internal\r\n  {\r\n    // optional override\r\n  }\r\n\r\n  /**\r\n   * @dev Source of tokens. Override this method to modify the way in which the crowdsale ultimately gets and sends its tokens.\r\n   * @param _beneficiary Address performing the token purchase\r\n   * @param _tokenAmount Number of tokens to be emitted\r\n   */\r\n  function _deliverTokens(\r\n    address _beneficiary,\r\n    uint256 _tokenAmount\r\n  )\r\n    internal\r\n  {\r\n    token.transfer(_beneficiary, _tokenAmount);\r\n  }\r\n\r\n  /**\r\n   * @dev Executed when a purchase has been validated and is ready to be executed. Not necessarily emits/sends tokens.\r\n   * @param _beneficiary Address receiving the tokens\r\n   * @param _tokenAmount Number of tokens to be purchased\r\n   */\r\n  function _processPurchase(\r\n    address _beneficiary,\r\n    uint256 _tokenAmount\r\n  )\r\n    internal\r\n    isWhitelisted(_beneficiary)\r\n    onlyWhileOpen\r\n  {\r\n    //_deliverTokens(_beneficiary, _tokenAmount);\r\n    if (tokenToClaim[_beneficiary] == 0){\r\n    tokenToClaim[_beneficiary] = _tokenAmount;\r\n    }\r\n    else{\r\n      tokenToClaim[_beneficiary] = tokenToClaim[_beneficiary] + _tokenAmount;\r\n    }\r\n  }\r\n\r\n  /**\r\n   * @dev Override for extensions that require an internal state to check for validity (current user contributions, etc.)\r\n   * @param _beneficiary Address receiving the tokens\r\n   * @param _weiAmount Value in wei involved in the purchase\r\n   */\r\n  function _updatePurchasingState(\r\n    address _beneficiary,\r\n    uint256 _weiAmount\r\n  )\r\n    internal\r\n  {\r\n    // optional override\r\n  }\r\n\r\n  /**\r\n   * @dev Override to extend the way in which ether is converted to tokens.\r\n   * @param _weiAmount Value in wei to be converted into tokens\r\n   * @return Token price in weis\r\n   */\r\n  function _getTokenAmount(uint256 _weiAmount)\r\n    internal  returns (uint256, uint256)\r\n  {\r\n    remainingTokens = token.balanceOf(this);\r\n    require(remainingTokens > 0);\r\n    uint256 noOfTokens = 0;\r\n    uint256 tokensInCondition = 0;\r\n    uint256 weiAmount  = _weiAmount;\r\n    uint256 currentRate = 0;\r\n\r\n    if(remainingTokens > 300000000 && weiAmount > 0 ) {\r\n      currentRate = rate;\r\n      currentRate = currentRate.mul(13);\r\n      currentRate = currentRate.div(10);\r\n      tokensInCondition = currentRate * (10**18) * (_weiAmount/10**18);\r\n      if(tokensInCondition > remainingTokens.sub(300000000*(10**18))){\r\n        tokensInCondition = remainingTokens.sub(300000000*(10**18));\r\n        weiAmount = weiAmount.sub(tokensInCondition.mul(currentRate));\r\n        noOfTokens = noOfTokens.add(tokensInCondition);\r\n        remainingTokens = remainingTokens.sub(tokensInCondition);\r\n      }\r\n      else{\r\n        noOfTokens = noOfTokens.add(tokensInCondition);\r\n        weiAmount = 0;\r\n        remainingTokens = remainingTokens.sub(tokensInCondition);\r\n      }\r\n    }\r\n\r\n    if (remainingTokens <= 300000000*(10**18) && remainingTokens > 250000000*(10**18) && weiAmount > 0){\r\n      currentRate = rate;\r\n      currentRate = currentRate.mul(125);\r\n      currentRate = currentRate.div(100);\r\n      tokensInCondition = currentRate * (10**18) * (_weiAmount/10**18);\r\n      if(tokensInCondition > remainingTokens.sub(250000000*(10**18))){\r\n        tokensInCondition = remainingTokens.sub(250000000*(10**18));\r\n        weiAmount = weiAmount.sub(tokensInCondition.mul(currentRate));\r\n        noOfTokens = noOfTokens.add(tokensInCondition);\r\n        remainingTokens = remainingTokens.sub(noOfTokens);\r\n      }\r\n      else{\r\n        noOfTokens = tokensInCondition;\r\n        weiAmount = 0;\r\n        remainingTokens = remainingTokens.sub(tokensInCondition);\r\n      }\r\n    }\r\n    if (remainingTokens <= 250000000*(10**18) && remainingTokens > 200000000*(10**18) && weiAmount > 0 ){\r\n      currentRate = rate;\r\n      currentRate = currentRate.mul(120);\r\n      currentRate = currentRate.div(100);\r\n      tokensInCondition = currentRate * (10**18) * (_weiAmount/10**18);\r\n      if(tokensInCondition > remainingTokens.sub(200000000*(10**18))){\r\n        tokensInCondition = remainingTokens.sub(200000000*(10**18));\r\n        weiAmount = weiAmount.sub(tokensInCondition.mul(currentRate));\r\n        noOfTokens = noOfTokens.add(tokensInCondition);\r\n        remainingTokens = remainingTokens.sub(tokensInCondition);\r\n      }\r\n      else{\r\n        noOfTokens = noOfTokens.add(tokensInCondition);\r\n        weiAmount = 0;\r\n        remainingTokens = remainingTokens.sub(tokensInCondition);\r\n      }\r\n    }\r\n    if (remainingTokens <= 200000000*(10**18) && remainingTokens > 150000000*(10**18) && weiAmount > 0 ){\r\n      currentRate = rate;\r\n      currentRate = currentRate.mul(115);\r\n      currentRate = currentRate.div(100);\r\n      tokensInCondition = currentRate * (10**18) * (_weiAmount/10**18);\r\n      if(tokensInCondition > remainingTokens.sub(150000000*(10**18))){\r\n        tokensInCondition = remainingTokens.sub(150000000*(10**18));\r\n        weiAmount = weiAmount.sub(tokensInCondition.mul(currentRate));\r\n        noOfTokens = noOfTokens.add(tokensInCondition);\r\n        remainingTokens = remainingTokens.sub(tokensInCondition);\r\n      }\r\n      else{\r\n        noOfTokens = noOfTokens.add(tokensInCondition);\r\n        weiAmount = 0;\r\n        remainingTokens = remainingTokens.sub(tokensInCondition);\r\n      }\r\n    }\r\n     if (remainingTokens <= 150000000*(10**18) && remainingTokens > 100000000*(10**18) && weiAmount > 0){\r\n      currentRate = rate;\r\n      currentRate = currentRate.mul(11);\r\n      currentRate = currentRate.div(10);\r\n      tokensInCondition = currentRate * (10**18) * (_weiAmount/10**18);\r\n      if(tokensInCondition > remainingTokens.sub(100000000*(10**18))){\r\n        tokensInCondition = remainingTokens.sub(100000000*(10**18));\r\n        weiAmount = weiAmount.sub(tokensInCondition.mul(currentRate));\r\n        noOfTokens = noOfTokens.add(tokensInCondition);\r\n        remainingTokens = remainingTokens.sub(tokensInCondition);\r\n      }\r\n      else{\r\n        noOfTokens = noOfTokens.add(tokensInCondition);\r\n        weiAmount = 0;\r\n        remainingTokens = remainingTokens.sub(tokensInCondition);\r\n      }\r\n    }\r\n\r\n    if (remainingTokens <= 100000000*(10**18) && remainingTokens > 50000000*(10**18) ){\r\n      currentRate = rate;\r\n      currentRate = currentRate.mul(105);\r\n      currentRate = currentRate.div(100);\r\n      tokensInCondition = currentRate * (10**18) * (_weiAmount/10**18);\r\n      if(tokensInCondition > remainingTokens.sub(50000000*(10**18))){\r\n        tokensInCondition = remainingTokens.sub(50000000*(10**18));\r\n        weiAmount = weiAmount.sub(tokensInCondition.mul(currentRate));\r\n        noOfTokens = noOfTokens.add(tokensInCondition);\r\n        remainingTokens = remainingTokens.sub(tokensInCondition);\r\n      }\r\n      else{\r\n        noOfTokens = noOfTokens.add(tokensInCondition);\r\n        weiAmount = 0;\r\n        remainingTokens = remainingTokens.sub(tokensInCondition);\r\n      }\r\n    }\r\n    if(remainingTokens <= 50000000*(10**18)){\r\n      currentRate = rate;\r\n      tokensInCondition = currentRate * (10**18) * (_weiAmount/10**18);\r\n      if(tokensInCondition > remainingTokens) {\r\n        noOfTokens = remainingTokens;\r\n        weiAmount = weiAmount.sub(noOfTokens.mul(currentRate));\r\n      }\r\n      else{\r\n        noOfTokens = noOfTokens.add(tokensInCondition);\r\n        weiAmount = 0;\r\n        remainingTokens = remainingTokens.sub(tokensInCondition);\r\n      }\r\n    }\r\n    return (noOfTokens, weiAmount);\r\n  }\r\n\r\n  /**\r\n   * @dev Determines how ETH is stored/forwarded on purchases.\r\n   */\r\n  function _forwardFunds(uint256 _value) internal {\r\n    vault.deposit.value(_value)(msg.sender);\r\n    investors.push(msg.sender);\r\n  }\r\n   /**\r\n   * @dev Set the exchange rate of the token (number of token per ether)\r\n   */\r\n  function setRate(uint256 _rate) public onlyOwner{\r\n    require(_rate > 0);\r\n    rate = _rate;\r\n  }\r\n\r\n\r\n  /**\r\n  * @dev Set the Ether Price in USD\r\n  */\r\n function setEthPriceInUSD(uint256 _price) public onlyOwner{\r\n   require(_price > 0);\r\n   price = _price;\r\n }\r\n\r\n  /**\r\n   * @dev calculate the number of investors in crowdsale\r\n   */\r\n\r\n  function investorsCount() public constant returns (uint) {\r\n    return investors.length;\r\n  }\r\n\r\n    /**\r\n   * @dev allow investors to withdraw their tokens after the mainsale is done\r\n   */\r\n\r\n  function withdrawAfterMainSale() isWhitelisted(msg.sender) public {\r\n    require(goalReached());\r\n    require(release_date < now);\r\n    require(isFinalized);\r\n    require(tokenToClaim[msg.sender] >= 0);\r\n      if (tokenToClaim[msg.sender] > 0) {\r\n         _deliverTokens(msg.sender, tokenToClaim[msg.sender]);\r\n         tokenToClaim[msg.sender] = 0;\r\n      }\r\n  }\r\n\r\n    /**\r\n   * @dev Update the release date of purchased tokens\r\n   */\r\n\r\n  function updateReleaseDate(uint256 _new_release_date) onlyOwner public{\r\n    require( _new_release_date > now &&  _new_release_date != release_date);\r\n     release_date = _new_release_date;\r\n    }\r\n\r\n      /**\r\n   * @dev Update the close date of crowdsale\r\n   */\r\n\r\n    function adjustCloseDate(uint256 _new_close_date) onlyOwner public{\r\n    require(!isFinalized);\r\n    require( _new_close_date > now &&  _new_close_date > closingTime );\r\n     closingTime = _new_close_date;\r\n    }\r\n\r\n    /**\r\n * @dev get goal amount\r\n */\r\n    function getGoal() onlyOwner public returns (uint256) {\r\n    return goal;\r\n    }\r\n\r\n}\r\n",
  "sourcePath": "/root/Bitcademy_ICO/contracts/Crowdsale.sol",
  "compiler": {
    "name": "solc",
    "version": "0.4.24+commit.e67f0147.Emscripten.clang"
  },
  "schemaVersion": "2.0.1",
  "updatedAt": "2018-11-30T10:10:57.927Z"
}