{
  "contractName": "Crowdsale",
  "abi": [
    {
      "constant": true,
      "inputs": [],
      "name": "rate",
      "outputs": [
        {
          "name": "",
          "type": "uint256"
        }
      ],
      "payable": false,
      "stateMutability": "view",
      "type": "function"
    },
    {
      "constant": true,
      "inputs": [
        {
          "name": "",
          "type": "uint256"
        }
      ],
      "name": "investors",
      "outputs": [
        {
          "name": "",
          "type": "address"
        }
      ],
      "payable": false,
      "stateMutability": "view",
      "type": "function"
    },
    {
      "constant": true,
      "inputs": [],
      "name": "goal",
      "outputs": [
        {
          "name": "",
          "type": "uint256"
        }
      ],
      "payable": false,
      "stateMutability": "view",
      "type": "function"
    },
    {
      "constant": true,
      "inputs": [],
      "name": "weiRaised",
      "outputs": [
        {
          "name": "",
          "type": "uint256"
        }
      ],
      "payable": false,
      "stateMutability": "view",
      "type": "function"
    },
    {
      "constant": true,
      "inputs": [],
      "name": "closingTime",
      "outputs": [
        {
          "name": "",
          "type": "uint256"
        }
      ],
      "payable": false,
      "stateMutability": "view",
      "type": "function"
    },
    {
      "constant": false,
      "inputs": [],
      "name": "renounceOwnership",
      "outputs": [],
      "payable": false,
      "stateMutability": "nonpayable",
      "type": "function"
    },
    {
      "constant": true,
      "inputs": [],
      "name": "isFinalized",
      "outputs": [
        {
          "name": "",
          "type": "bool"
        }
      ],
      "payable": false,
      "stateMutability": "view",
      "type": "function"
    },
    {
      "constant": true,
      "inputs": [],
      "name": "owner",
      "outputs": [
        {
          "name": "",
          "type": "address"
        }
      ],
      "payable": false,
      "stateMutability": "view",
      "type": "function"
    },
    {
      "constant": true,
      "inputs": [
        {
          "name": "",
          "type": "address"
        }
      ],
      "name": "whitelist",
      "outputs": [
        {
          "name": "",
          "type": "bool"
        }
      ],
      "payable": false,
      "stateMutability": "view",
      "type": "function"
    },
    {
      "constant": true,
      "inputs": [],
      "name": "price",
      "outputs": [
        {
          "name": "",
          "type": "uint256"
        }
      ],
      "payable": false,
      "stateMutability": "view",
      "type": "function"
    },
    {
      "constant": true,
      "inputs": [],
      "name": "tokenSoldExcludeBonus",
      "outputs": [
        {
          "name": "",
          "type": "uint256"
        }
      ],
      "payable": false,
      "stateMutability": "view",
      "type": "function"
    },
    {
      "constant": true,
      "inputs": [],
      "name": "openingTime",
      "outputs": [
        {
          "name": "",
          "type": "uint256"
        }
      ],
      "payable": false,
      "stateMutability": "view",
      "type": "function"
    },
    {
      "constant": true,
      "inputs": [],
      "name": "remainingTokens",
      "outputs": [
        {
          "name": "",
          "type": "uint256"
        }
      ],
      "payable": false,
      "stateMutability": "view",
      "type": "function"
    },
    {
      "constant": true,
      "inputs": [
        {
          "name": "",
          "type": "address"
        }
      ],
      "name": "tokenToClaim",
      "outputs": [
        {
          "name": "",
          "type": "uint256"
        }
      ],
      "payable": false,
      "stateMutability": "view",
      "type": "function"
    },
    {
      "constant": true,
      "inputs": [
        {
          "name": "",
          "type": "address"
        }
      ],
      "name": "investedAmount",
      "outputs": [
        {
          "name": "",
          "type": "uint256"
        }
      ],
      "payable": false,
      "stateMutability": "view",
      "type": "function"
    },
    {
      "constant": true,
      "inputs": [],
      "name": "supply_cap",
      "outputs": [
        {
          "name": "",
          "type": "uint256"
        }
      ],
      "payable": false,
      "stateMutability": "view",
      "type": "function"
    },
    {
      "constant": false,
      "inputs": [
        {
          "name": "_newOwner",
          "type": "address"
        }
      ],
      "name": "transferOwnership",
      "outputs": [],
      "payable": false,
      "stateMutability": "nonpayable",
      "type": "function"
    },
    {
      "constant": true,
      "inputs": [],
      "name": "release_date",
      "outputs": [
        {
          "name": "",
          "type": "uint256"
        }
      ],
      "payable": false,
      "stateMutability": "view",
      "type": "function"
    },
    {
      "constant": true,
      "inputs": [],
      "name": "vault",
      "outputs": [
        {
          "name": "",
          "type": "address"
        }
      ],
      "payable": false,
      "stateMutability": "view",
      "type": "function"
    },
    {
      "constant": true,
      "inputs": [],
      "name": "token",
      "outputs": [
        {
          "name": "",
          "type": "address"
        }
      ],
      "payable": false,
      "stateMutability": "view",
      "type": "function"
    },
    {
      "inputs": [
        {
          "name": "_rate",
          "type": "uint256"
        },
        {
          "name": "_token",
          "type": "address"
        },
        {
          "name": "_openingTime",
          "type": "uint256"
        },
        {
          "name": "_closingTime",
          "type": "uint256"
        },
        {
          "name": "_multi_sig_wallet",
          "type": "address"
        },
        {
          "name": "_goal",
          "type": "uint256"
        },
        {
          "name": "_price",
          "type": "uint256"
        }
      ],
      "payable": false,
      "stateMutability": "nonpayable",
      "type": "constructor"
    },
    {
      "payable": true,
      "stateMutability": "payable",
      "type": "fallback"
    },
    {
      "anonymous": false,
      "inputs": [],
      "name": "Finalized",
      "type": "event"
    },
    {
      "anonymous": false,
      "inputs": [
        {
          "indexed": true,
          "name": "purchaser",
          "type": "address"
        },
        {
          "indexed": true,
          "name": "beneficiary",
          "type": "address"
        },
        {
          "indexed": false,
          "name": "value",
          "type": "uint256"
        },
        {
          "indexed": false,
          "name": "amount",
          "type": "uint256"
        }
      ],
      "name": "TokenPurchase",
      "type": "event"
    },
    {
      "anonymous": false,
      "inputs": [
        {
          "indexed": true,
          "name": "previousOwner",
          "type": "address"
        }
      ],
      "name": "OwnershipRenounced",
      "type": "event"
    },
    {
      "anonymous": false,
      "inputs": [
        {
          "indexed": true,
          "name": "previousOwner",
          "type": "address"
        },
        {
          "indexed": true,
          "name": "newOwner",
          "type": "address"
        }
      ],
      "name": "OwnershipTransferred",
      "type": "event"
    },
    {
      "constant": false,
      "inputs": [],
      "name": "finalize",
      "outputs": [],
      "payable": false,
      "stateMutability": "nonpayable",
      "type": "function"
    },
    {
      "constant": false,
      "inputs": [],
      "name": "claimRefund",
      "outputs": [],
      "payable": false,
      "stateMutability": "nonpayable",
      "type": "function"
    },
    {
      "constant": false,
      "inputs": [],
      "name": "blacklistClaimRefund",
      "outputs": [],
      "payable": false,
      "stateMutability": "nonpayable",
      "type": "function"
    },
    {
      "constant": true,
      "inputs": [],
      "name": "goalReached",
      "outputs": [
        {
          "name": "",
          "type": "bool"
        }
      ],
      "payable": false,
      "stateMutability": "view",
      "type": "function"
    },
    {
      "constant": false,
      "inputs": [
        {
          "name": "_beneficiary",
          "type": "address"
        }
      ],
      "name": "buyTokens",
      "outputs": [],
      "payable": true,
      "stateMutability": "payable",
      "type": "function"
    },
    {
      "constant": false,
      "inputs": [
        {
          "name": "_beneficiary",
          "type": "address"
        }
      ],
      "name": "addToWhitelist",
      "outputs": [],
      "payable": false,
      "stateMutability": "nonpayable",
      "type": "function"
    },
    {
      "constant": false,
      "inputs": [
        {
          "name": "_beneficiaries",
          "type": "address[]"
        }
      ],
      "name": "addManyToWhitelist",
      "outputs": [],
      "payable": false,
      "stateMutability": "nonpayable",
      "type": "function"
    },
    {
      "constant": false,
      "inputs": [
        {
          "name": "_beneficiary",
          "type": "address"
        }
      ],
      "name": "removeFromWhitelist",
      "outputs": [],
      "payable": false,
      "stateMutability": "nonpayable",
      "type": "function"
    },
    {
      "constant": true,
      "inputs": [],
      "name": "hasClosed",
      "outputs": [
        {
          "name": "",
          "type": "bool"
        }
      ],
      "payable": false,
      "stateMutability": "view",
      "type": "function"
    },
    {
      "constant": false,
      "inputs": [
        {
          "name": "_rate",
          "type": "uint256"
        }
      ],
      "name": "setRate",
      "outputs": [],
      "payable": false,
      "stateMutability": "nonpayable",
      "type": "function"
    },
    {
      "constant": false,
      "inputs": [
        {
          "name": "_price",
          "type": "uint256"
        }
      ],
      "name": "setEthPriceInUSD",
      "outputs": [],
      "payable": false,
      "stateMutability": "nonpayable",
      "type": "function"
    },
    {
      "constant": true,
      "inputs": [],
      "name": "investorsCount",
      "outputs": [
        {
          "name": "",
          "type": "uint256"
        }
      ],
      "payable": false,
      "stateMutability": "view",
      "type": "function"
    },
    {
      "constant": false,
      "inputs": [],
      "name": "withdrawAfterMainSale",
      "outputs": [],
      "payable": false,
      "stateMutability": "nonpayable",
      "type": "function"
    },
    {
      "constant": false,
      "inputs": [
        {
          "name": "_new_release_date",
          "type": "uint256"
        }
      ],
      "name": "updateReleaseDate",
      "outputs": [],
      "payable": false,
      "stateMutability": "nonpayable",
      "type": "function"
    },
    {
      "constant": false,
      "inputs": [
        {
          "name": "_new_close_date",
          "type": "uint256"
        }
      ],
      "name": "adjustCloseDate",
      "outputs": [],
      "payable": false,
      "stateMutability": "nonpayable",
      "type": "function"
    }
  ],
  "bytecode": "0x6080604052635cc790006002556b0121836204bc2ce21e0000006006556000601060146101000a81548160ff0219169083151502179055503480156200004457600080fd5b5060405160e08062003a9383398101806040528101908080519060200190929190805190602001909291908051906020019092919080519060200190929190805190602001909291908051906020019092919080519060200190929190505050336000806101000a81548173ffffffffffffffffffffffffffffffffffffffff021916908373ffffffffffffffffffffffffffffffffffffffff160217905550600087111515620000f457600080fd5b600073ffffffffffffffffffffffffffffffffffffffff168373ffffffffffffffffffffffffffffffffffffffff16141515156200013157600080fd5b600073ffffffffffffffffffffffffffffffffffffffff168673ffffffffffffffffffffffffffffffffffffffff16141515156200016e57600080fd5b4285101515156200017e57600080fd5b8484101515156200018e57600080fd5b6000821115156200019e57600080fd5b600081111515620001ae57600080fd5b82620001b9620002c7565b808273ffffffffffffffffffffffffffffffffffffffff1673ffffffffffffffffffffffffffffffffffffffff168152602001915050604051809103906000f0801580156200020c573d6000803e3d6000fd5b50601060006101000a81548173ffffffffffffffffffffffffffffffffffffffff021916908373ffffffffffffffffffffffffffffffffffffffff16021790555081600f819055508660038190555085600160006101000a81548173ffffffffffffffffffffffffffffffffffffffff021916908373ffffffffffffffffffffffffffffffffffffffff1602179055508060048190555084600b8190555083600c81905550600654600d8190555050505050505050620002d8565b604051610deb8062002ca883390190565b6129c080620002e86000396000f3006080604052600436106101b7576000357c0100000000000000000000000000000000000000000000000000000000900463ffffffff16806307a95e91146101c25780630ebaf5f5146101ef5780631515bc2b1461021c5780632b7110511461024b5780632c4e722e1461027657806334fcf437146102a15780633feb5f2b146102ce578063401938831461033b5780634042b66f146103665780634b6753bc146103915780634bb278f3146103bc57806357b42736146103d3578063715018a6146104005780637d3d6522146104175780638ab1d681146104465780638c10671c146104895780638d4e4083146104c45780638da5cb5b146104f35780639b19251a1461054a578063a035b1fe146105a5578063b4ef088f146105d0578063b5545a3c146105fb578063b796004614610612578063b7a8807c14610629578063bbd2af2f14610654578063bf5839031461066b578063c2fb345a14610696578063cff77444146106ed578063e43252d714610744578063eaac77ea14610787578063ec8ac4d8146107b2578063f2fde38b146107e8578063fb54f7d31461082b578063fbfa77cf14610856578063fc0c546a146108ad575b6101c033610904565b005b3480156101ce57600080fd5b506101ed60048036038101908080359060200190929190505050610a85565b005b3480156101fb57600080fd5b5061021a60048036038101908080359060200190929190505050610b21565b005b34801561022857600080fd5b50610231610ba2565b604051808215151515815260200191505060405180910390f35b34801561025757600080fd5b50610260610bae565b6040518082815260200191505060405180910390f35b34801561028257600080fd5b5061028b610bbb565b6040518082815260200191505060405180910390f35b3480156102ad57600080fd5b506102cc60048036038101908080359060200190929190505050610bc1565b005b3480156102da57600080fd5b506102f960048036038101908080359060200190929190505050610c35565b604051808273ffffffffffffffffffffffffffffffffffffffff1673ffffffffffffffffffffffffffffffffffffffff16815260200191505060405180910390f35b34801561034757600080fd5b50610350610c73565b6040518082815260200191505060405180910390f35b34801561037257600080fd5b5061037b610c79565b6040518082815260200191505060405180910390f35b34801561039d57600080fd5b506103a6610c7f565b6040518082815260200191505060405180910390f35b3480156103c857600080fd5b506103d1610c85565b005b3480156103df57600080fd5b506103fe60048036038101908080359060200190929190505050610d60565b005b34801561040c57600080fd5b50610415610dd4565b005b34801561042357600080fd5b5061042c610ed6565b604051808215151515815260200191505060405180910390f35b34801561045257600080fd5b50610487600480360381019080803573ffffffffffffffffffffffffffffffffffffffff169060200190929190505050610ee5565b005b34801561049557600080fd5b506104c2600480360381019080803590602001908201803590602001919091929391929390505050610fb7565b005b3480156104d057600080fd5b506104d96110d4565b604051808215151515815260200191505060405180910390f35b3480156104ff57600080fd5b506105086110e7565b604051808273ffffffffffffffffffffffffffffffffffffffff1673ffffffffffffffffffffffffffffffffffffffff16815260200191505060405180910390f35b34801561055657600080fd5b5061058b600480360381019080803573ffffffffffffffffffffffffffffffffffffffff16906020019092919050505061110c565b604051808215151515815260200191505060405180910390f35b3480156105b157600080fd5b506105ba61112c565b6040518082815260200191505060405180910390f35b3480156105dc57600080fd5b506105e5611132565b6040518082815260200191505060405180910390f35b34801561060757600080fd5b50610610611138565b005b34801561061e57600080fd5b5061062761123e565b005b34801561063557600080fd5b5061063e61141c565b6040518082815260200191505060405180910390f35b34801561066057600080fd5b50610669611422565b005b34801561067757600080fd5b506106806115e2565b6040518082815260200191505060405180910390f35b3480156106a257600080fd5b506106d7600480360381019080803573ffffffffffffffffffffffffffffffffffffffff1690602001909291905050506115e8565b6040518082815260200191505060405180910390f35b3480156106f957600080fd5b5061072e600480360381019080803573ffffffffffffffffffffffffffffffffffffffff169060200190929190505050611600565b6040518082815260200191505060405180910390f35b34801561075057600080fd5b50610785600480360381019080803573ffffffffffffffffffffffffffffffffffffffff169060200190929190505050611618565b005b34801561079357600080fd5b5061079c6116ea565b6040518082815260200191505060405180910390f35b6107e6600480360381019080803573ffffffffffffffffffffffffffffffffffffffff169060200190929190505050610904565b005b3480156107f457600080fd5b50610829600480360381019080803573ffffffffffffffffffffffffffffffffffffffff1690602001909291905050506116f0565b005b34801561083757600080fd5b50610840611757565b6040518082815260200191505060405180910390f35b34801561086257600080fd5b5061086b61175d565b604051808273ffffffffffffffffffffffffffffffffffffffff1673ffffffffffffffffffffffffffffffffffffffff16815260200191505060405180910390f35b3480156108b957600080fd5b506108c2611783565b604051808273ffffffffffffffffffffffffffffffffffffffff1673ffffffffffffffffffffffffffffffffffffffff16815260200191505060405180910390f35b6000806000803493506109356004546109276064876117a990919063ffffffff16565b6117e190919063ffffffff16565b925082841015151561094657600080fd5b600091506000905061095885856117f7565b61096184611847565b809350819250505060008211156109cf573373ffffffffffffffffffffffffffffffffffffffff166108fc839081150290604051600060405180830381858888f193505050501580156109b8573d6000803e3d6000fd5b506109cc828561225690919063ffffffff16565b93505b6109e48460055461226f90919063ffffffff16565b6005819055506109f4858261228b565b8473ffffffffffffffffffffffffffffffffffffffff163373ffffffffffffffffffffffffffffffffffffffff167f623b3804fa71d67900d064613da8f94b9617215ee90799290593e1745087ad188684604051808381526020018281526020019250505060405180910390a3610a6b858561241f565b610a7484612423565b610a7e8585612640565b5050505050565b6000809054906101000a900473ffffffffffffffffffffffffffffffffffffffff1673ffffffffffffffffffffffffffffffffffffffff163373ffffffffffffffffffffffffffffffffffffffff16141515610ae057600080fd5b601060149054906101000a900460ff16151515610afc57600080fd5b4281118015610b0c5750600c5481115b1515610b1757600080fd5b80600c8190555050565b6000809054906101000a900473ffffffffffffffffffffffffffffffffffffffff1673ffffffffffffffffffffffffffffffffffffffff163373ffffffffffffffffffffffffffffffffffffffff16141515610b7c57600080fd5b4281118015610b8d57506002548114155b1515610b9857600080fd5b8060028190555050565b6000600c544211905090565b6000600880549050905090565b60035481565b6000809054906101000a900473ffffffffffffffffffffffffffffffffffffffff1673ffffffffffffffffffffffffffffffffffffffff163373ffffffffffffffffffffffffffffffffffffffff16141515610c1c57600080fd5b600081111515610c2b57600080fd5b8060038190555050565b600881815481101515610c4457fe5b906000526020600020016000915054906101000a900473ffffffffffffffffffffffffffffffffffffffff1681565b600f5481565b60055481565b600c5481565b6000809054906101000a900473ffffffffffffffffffffffffffffffffffffffff1673ffffffffffffffffffffffffffffffffffffffff163373ffffffffffffffffffffffffffffffffffffffff16141515610ce057600080fd5b601060149054906101000a900460ff16151515610cfc57600080fd5b610d04610ba2565b1515610d0f57600080fd5b610d17612644565b7f6823b073d48d6e3a7d385eeb601452d680e74bb46afe3255a7d778f3a9b1768160405160405180910390a16001601060146101000a81548160ff021916908315150217905550565b6000809054906101000a900473ffffffffffffffffffffffffffffffffffffffff1673ffffffffffffffffffffffffffffffffffffffff163373ffffffffffffffffffffffffffffffffffffffff16141515610dbb57600080fd5b600081111515610dca57600080fd5b8060048190555050565b6000809054906101000a900473ffffffffffffffffffffffffffffffffffffffff1673ffffffffffffffffffffffffffffffffffffffff163373ffffffffffffffffffffffffffffffffffffffff16141515610e2f57600080fd5b6000809054906101000a900473ffffffffffffffffffffffffffffffffffffffff1673ffffffffffffffffffffffffffffffffffffffff167ff8df31144d9c2f0f6b59d69b8b98abd5459d07f2742c4df920b25aae33c6482060405160405180910390a260008060006101000a81548173ffffffffffffffffffffffffffffffffffffffff021916908373ffffffffffffffffffffffffffffffffffffffff160217905550565b6000600f546005541015905090565b6000809054906101000a900473ffffffffffffffffffffffffffffffffffffffff1673ffffffffffffffffffffffffffffffffffffffff163373ffffffffffffffffffffffffffffffffffffffff16141515610f4057600080fd5b601060149054906101000a900460ff16151515610f5c57600080fd5b6000600960008373ffffffffffffffffffffffffffffffffffffffff1673ffffffffffffffffffffffffffffffffffffffff16815260200190815260200160002060006101000a81548160ff02191690831515021790555050565b60008060009054906101000a900473ffffffffffffffffffffffffffffffffffffffff1673ffffffffffffffffffffffffffffffffffffffff163373ffffffffffffffffffffffffffffffffffffffff1614151561101457600080fd5b601060149054906101000a900460ff1615151561103057600080fd5b600090505b828290508110156110cf57600160096000858585818110151561105457fe5b9050602002013573ffffffffffffffffffffffffffffffffffffffff1673ffffffffffffffffffffffffffffffffffffffff1673ffffffffffffffffffffffffffffffffffffffff16815260200190815260200160002060006101000a81548160ff0219169083151502179055508080600101915050611035565b505050565b601060149054906101000a900460ff1681565b6000809054906101000a900473ffffffffffffffffffffffffffffffffffffffff1681565b60096020528060005260406000206000915054906101000a900460ff1681565b60045481565b600e5481565b601060149054906101000a900460ff16151561115357600080fd5b61115b610ed6565b15151561116757600080fd5b601060009054906101000a900473ffffffffffffffffffffffffffffffffffffffff1673ffffffffffffffffffffffffffffffffffffffff1663fa89401a336040518263ffffffff167c0100000000000000000000000000000000000000000000000000000000028152600401808273ffffffffffffffffffffffffffffffffffffffff1673ffffffffffffffffffffffffffffffffffffffff168152602001915050600060405180830381600087803b15801561122457600080fd5b505af1158015611238573d6000803e3d6000fd5b50505050565b601060149054906101000a900460ff16151561125957600080fd5b6000600a60003373ffffffffffffffffffffffffffffffffffffffff1673ffffffffffffffffffffffffffffffffffffffff168152602001908152602001600020541115156112a757600080fd5b600960003373ffffffffffffffffffffffffffffffffffffffff1673ffffffffffffffffffffffffffffffffffffffff16815260200190815260200160002060009054906101000a900460ff1615151561130057600080fd5b601060009054906101000a900473ffffffffffffffffffffffffffffffffffffffff1673ffffffffffffffffffffffffffffffffffffffff166383ef704d336040518263ffffffff167c0100000000000000000000000000000000000000000000000000000000028152600401808273ffffffffffffffffffffffffffffffffffffffff1673ffffffffffffffffffffffffffffffffffffffff168152602001915050600060405180830381600087803b1580156113bd57600080fd5b505af11580156113d1573d6000803e3d6000fd5b505050506000600a60003373ffffffffffffffffffffffffffffffffffffffff1673ffffffffffffffffffffffffffffffffffffffff16815260200190815260200160002081905550565b600b5481565b33600960008273ffffffffffffffffffffffffffffffffffffffff1673ffffffffffffffffffffffffffffffffffffffff16815260200190815260200160002060009054906101000a900460ff16151561147b57600080fd5b611483610ed6565b151561148e57600080fd5b4260025410151561149e57600080fd5b601060149054906101000a900460ff1615156114b957600080fd5b6000600a60003373ffffffffffffffffffffffffffffffffffffffff1673ffffffffffffffffffffffffffffffffffffffff168152602001908152602001600020541015151561150857600080fd5b6000600a60003373ffffffffffffffffffffffffffffffffffffffff1673ffffffffffffffffffffffffffffffffffffffff1681526020019081526020016000205411156115df5761159933600a60003373ffffffffffffffffffffffffffffffffffffffff1673ffffffffffffffffffffffffffffffffffffffff16815260200190815260200160002054612795565b6000600a60003373ffffffffffffffffffffffffffffffffffffffff1673ffffffffffffffffffffffffffffffffffffffff168152602001908152602001600020819055505b50565b600d5481565b600a6020528060005260406000206000915090505481565b60076020528060005260406000206000915090505481565b6000809054906101000a900473ffffffffffffffffffffffffffffffffffffffff1673ffffffffffffffffffffffffffffffffffffffff163373ffffffffffffffffffffffffffffffffffffffff1614151561167357600080fd5b601060149054906101000a900460ff1615151561168f57600080fd5b6001600960008373ffffffffffffffffffffffffffffffffffffffff1673ffffffffffffffffffffffffffffffffffffffff16815260200190815260200160002060006101000a81548160ff02191690831515021790555050565b60065481565b6000809054906101000a900473ffffffffffffffffffffffffffffffffffffffff1673ffffffffffffffffffffffffffffffffffffffff163373ffffffffffffffffffffffffffffffffffffffff1614151561174b57600080fd5b6117548161289a565b50565b60025481565b601060009054906101000a900473ffffffffffffffffffffffffffffffffffffffff1681565b600160009054906101000a900473ffffffffffffffffffffffffffffffffffffffff1681565b6000808314156117bc57600090506117db565b81830290508183828115156117cd57fe5b041415156117d757fe5b8090505b92915050565b600081838115156117ee57fe5b04905092915050565b600073ffffffffffffffffffffffffffffffffffffffff168273ffffffffffffffffffffffffffffffffffffffff161415151561183357600080fd5b6000811415151561184357600080fd5b5050565b6000806000806000806000600d5411151561186157600080fd5b6000935060009250869150600090506311e1a300600d541180156118855750600082115b156119df5760035490506118a3600d826117a990919063ffffffff16565b90506118b9600a826117e190919063ffffffff16565b90506118e8670de0b6b3a76400006118da89846117a990919063ffffffff16565b6117e190919063ffffffff16565b925061190a6af8277896582678ac000000600d5461225690919063ffffffff16565b8311156119a9576119316af8277896582678ac000000600d5461225690919063ffffffff16565b925061197261196382611955670de0b6b3a7640000876117a990919063ffffffff16565b6117e190919063ffffffff16565b8361225690919063ffffffff16565b9150611987838561226f90919063ffffffff16565b935061199e83600d5461225690919063ffffffff16565b600d819055506119de565b6119bc838561226f90919063ffffffff16565b9350600091506119d783600d5461225690919063ffffffff16565b600d819055505b5b6af8277896582678ac000000600d5411158015611a0857506acecb8f27f4200f3a000000600d54115b8015611a145750600082115b15611b5c576003549050611a32607d826117a990919063ffffffff16565b9050611a486064826117e190919063ffffffff16565b9050611a77670de0b6b3a7640000611a6989846117a990919063ffffffff16565b6117e190919063ffffffff16565b9250611a996acecb8f27f4200f3a000000600d5461225690919063ffffffff16565b831115611b3857611ac06acecb8f27f4200f3a000000600d5461225690919063ffffffff16565b9250611b01611af282611ae4670de0b6b3a7640000876117a990919063ffffffff16565b6117e190919063ffffffff16565b8361225690919063ffffffff16565b9150611b16838561226f90919063ffffffff16565b9350611b2d84600d5461225690919063ffffffff16565b600d81905550611b5b565b82935060009150611b5483600d5461225690919063ffffffff16565b600d819055505b5b6acecb8f27f4200f3a000000600d5411158015611b8557506aa56fa5b99019a5c8000000600d54115b8015611b915750600082115b15611ceb576003549050611baf6078826117a990919063ffffffff16565b9050611bc56064826117e190919063ffffffff16565b9050611bf4670de0b6b3a7640000611be689846117a990919063ffffffff16565b6117e190919063ffffffff16565b9250611c166aa56fa5b99019a5c8000000600d5461225690919063ffffffff16565b831115611cb557611c3d6aa56fa5b99019a5c8000000600d5461225690919063ffffffff16565b9250611c7e611c6f82611c61670de0b6b3a7640000876117a990919063ffffffff16565b6117e190919063ffffffff16565b8361225690919063ffffffff16565b9150611c93838561226f90919063ffffffff16565b9350611caa83600d5461225690919063ffffffff16565b600d81905550611cea565b611cc8838561226f90919063ffffffff16565b935060009150611ce383600d5461225690919063ffffffff16565b600d819055505b5b6aa56fa5b99019a5c8000000600d5411158015611d1457506a7c13bc4b2c133c56000000600d54115b8015611d205750600082115b15611e7a576003549050611d3e6073826117a990919063ffffffff16565b9050611d546064826117e190919063ffffffff16565b9050611d83670de0b6b3a7640000611d7589846117a990919063ffffffff16565b6117e190919063ffffffff16565b9250611da56a7c13bc4b2c133c56000000600d5461225690919063ffffffff16565b831115611e4457611dcc6a7c13bc4b2c133c56000000600d5461225690919063ffffffff16565b9250611e0d611dfe82611df0670de0b6b3a7640000876117a990919063ffffffff16565b6117e190919063ffffffff16565b8361225690919063ffffffff16565b9150611e22838561226f90919063ffffffff16565b9350611e3983600d5461225690919063ffffffff16565b600d81905550611e79565b611e57838561226f90919063ffffffff16565b935060009150611e7283600d5461225690919063ffffffff16565b600d819055505b5b6a7c13bc4b2c133c56000000600d5411158015611ea357506a52b7d2dcc80cd2e4000000600d54115b8015611eaf5750600082115b15612009576003549050611ecd600b826117a990919063ffffffff16565b9050611ee3600a826117e190919063ffffffff16565b9050611f12670de0b6b3a7640000611f0489846117a990919063ffffffff16565b6117e190919063ffffffff16565b9250611f346a52b7d2dcc80cd2e4000000600d5461225690919063ffffffff16565b831115611fd357611f5b6a52b7d2dcc80cd2e4000000600d5461225690919063ffffffff16565b9250611f9c611f8d82611f7f670de0b6b3a7640000876117a990919063ffffffff16565b6117e190919063ffffffff16565b8361225690919063ffffffff16565b9150611fb1838561226f90919063ffffffff16565b9350611fc883600d5461225690919063ffffffff16565b600d81905550612008565b611fe6838561226f90919063ffffffff16565b93506000915061200183600d5461225690919063ffffffff16565b600d819055505b5b6a52b7d2dcc80cd2e4000000600d541115801561203257506a295be96e64066972000000600d54115b1561218c5760035490506120506069826117a990919063ffffffff16565b90506120666064826117e190919063ffffffff16565b9050612095670de0b6b3a764000061208789846117a990919063ffffffff16565b6117e190919063ffffffff16565b92506120b76a295be96e64066972000000600d5461225690919063ffffffff16565b831115612156576120de6a295be96e64066972000000600d5461225690919063ffffffff16565b925061211f61211082612102670de0b6b3a7640000876117a990919063ffffffff16565b6117e190919063ffffffff16565b8361225690919063ffffffff16565b9150612134838561226f90919063ffffffff16565b935061214b83600d5461225690919063ffffffff16565b600d8190555061218b565b612169838561226f90919063ffffffff16565b93506000915061218483600d5461225690919063ffffffff16565b600d819055505b5b6a295be96e64066972000000600d541115156122475760035490506121d4670de0b6b3a76400006121c689846117a990919063ffffffff16565b6117e190919063ffffffff16565b9250600d5483111561221157600d54935061220a6121fb82866117a990919063ffffffff16565b8361225690919063ffffffff16565b9150612246565b612224838561226f90919063ffffffff16565b93506000915061223f83600d5461225690919063ffffffff16565b600d819055505b5b83829550955050505050915091565b600082821115151561226457fe5b818303905092915050565b6000818301905082811015151561228257fe5b80905092915050565b81600960008273ffffffffffffffffffffffffffffffffffffffff1673ffffffffffffffffffffffffffffffffffffffff16815260200190815260200160002060009054906101000a900460ff1615156122e457600080fd5b600b5442101580156122f85750600c544211155b151561230357600080fd5b6000600a60008573ffffffffffffffffffffffffffffffffffffffff1673ffffffffffffffffffffffffffffffffffffffff1681526020019081526020016000205414156123945781600a60008573ffffffffffffffffffffffffffffffffffffffff1673ffffffffffffffffffffffffffffffffffffffff1681526020019081526020016000208190555061241a565b81600a60008573ffffffffffffffffffffffffffffffffffffffff1673ffffffffffffffffffffffffffffffffffffffff1681526020019081526020016000205401600a60008573ffffffffffffffffffffffffffffffffffffffff1673ffffffffffffffffffffffffffffffffffffffff168152602001908152602001600020819055505b505050565b5050565b601060009054906101000a900473ffffffffffffffffffffffffffffffffffffffff1673ffffffffffffffffffffffffffffffffffffffff1663f340fa0182336040518363ffffffff167c0100000000000000000000000000000000000000000000000000000000028152600401808273ffffffffffffffffffffffffffffffffffffffff1673ffffffffffffffffffffffffffffffffffffffff1681526020019150506000604051808303818588803b1580156124e057600080fd5b505af11580156124f4573d6000803e3d6000fd5b50505050506000600760003373ffffffffffffffffffffffffffffffffffffffff1673ffffffffffffffffffffffffffffffffffffffff1681526020019081526020016000205414156125a85760083390806001815401808255809150509060018203906000526020600020016000909192909190916101000a81548173ffffffffffffffffffffffffffffffffffffffff021916908373ffffffffffffffffffffffffffffffffffffffff160217905550505b6125fa81600760003373ffffffffffffffffffffffffffffffffffffffff1673ffffffffffffffffffffffffffffffffffffffff1681526020019081526020016000205461226f90919063ffffffff16565b600760003373ffffffffffffffffffffffffffffffffffffffff1673ffffffffffffffffffffffffffffffffffffffff1681526020019081526020016000208190555050565b5050565b61264c610ed6565b156126f457601060009054906101000a900473ffffffffffffffffffffffffffffffffffffffff1673ffffffffffffffffffffffffffffffffffffffff166343d726d66040518163ffffffff167c0100000000000000000000000000000000000000000000000000000000028152600401600060405180830381600087803b1580156126d757600080fd5b505af11580156126eb573d6000803e3d6000fd5b50505050612793565b601060009054906101000a900473ffffffffffffffffffffffffffffffffffffffff1673ffffffffffffffffffffffffffffffffffffffff16638c52dc416040518163ffffffff167c0100000000000000000000000000000000000000000000000000000000028152600401600060405180830381600087803b15801561277a57600080fd5b505af115801561278e573d6000803e3d6000fd5b505050505b565b600160009054906101000a900473ffffffffffffffffffffffffffffffffffffffff1673ffffffffffffffffffffffffffffffffffffffff1663a9059cbb83836040518363ffffffff167c0100000000000000000000000000000000000000000000000000000000028152600401808373ffffffffffffffffffffffffffffffffffffffff1673ffffffffffffffffffffffffffffffffffffffff16815260200182815260200192505050602060405180830381600087803b15801561285a57600080fd5b505af115801561286e573d6000803e3d6000fd5b505050506040513d602081101561288457600080fd5b8101908080519060200190929190505050505050565b600073ffffffffffffffffffffffffffffffffffffffff168173ffffffffffffffffffffffffffffffffffffffff16141515156128d657600080fd5b8073ffffffffffffffffffffffffffffffffffffffff166000809054906101000a900473ffffffffffffffffffffffffffffffffffffffff1673ffffffffffffffffffffffffffffffffffffffff167f8be0079c531659141344cd1fd0a4f28419497f9722a3daafe3b4186f6b6457e060405160405180910390a3806000806101000a81548173ffffffffffffffffffffffffffffffffffffffff021916908373ffffffffffffffffffffffffffffffffffffffff160217905550505600a165627a7a72305820f907f669470734db2e6e1c01959ecec77abc4d383da9fd76b39e5d72eb171c800029608060405234801561001057600080fd5b50604051602080610deb83398101806040528101908080519060200190929190505050336000806101000a81548173ffffffffffffffffffffffffffffffffffffffff021916908373ffffffffffffffffffffffffffffffffffffffff160217905550600073ffffffffffffffffffffffffffffffffffffffff168173ffffffffffffffffffffffffffffffffffffffff16141515156100af57600080fd5b80600260006101000a81548173ffffffffffffffffffffffffffffffffffffffff021916908373ffffffffffffffffffffffffffffffffffffffff1602179055506000600260146101000a81548160ff0219169083600281111561010f57fe5b021790555050610cc7806101246000396000f3006080604052600436106100af576000357c0100000000000000000000000000000000000000000000000000000000900463ffffffff16806343d726d6146100b4578063521eb273146100cb578063715018a61461012257806383ef704d146101395780638c52dc411461017c5780638da5cb5b14610193578063c19d93fb146101ea578063cb13cddb14610223578063f2fde38b1461027a578063f340fa01146102bd578063fa89401a146102f3575b600080fd5b3480156100c057600080fd5b506100c9610336565b005b3480156100d757600080fd5b506100e0610496565b604051808273ffffffffffffffffffffffffffffffffffffffff1673ffffffffffffffffffffffffffffffffffffffff16815260200191505060405180910390f35b34801561012e57600080fd5b506101376104bc565b005b34801561014557600080fd5b5061017a600480360381019080803573ffffffffffffffffffffffffffffffffffffffff1690602001909291905050506105be565b005b34801561018857600080fd5b50610191610770565b005b34801561019f57600080fd5b506101a8610851565b604051808273ffffffffffffffffffffffffffffffffffffffff1673ffffffffffffffffffffffffffffffffffffffff16815260200191505060405180910390f35b3480156101f657600080fd5b506101ff610876565b6040518082600281111561020f57fe5b60ff16815260200191505060405180910390f35b34801561022f57600080fd5b50610264600480360381019080803573ffffffffffffffffffffffffffffffffffffffff169060200190929190505050610889565b6040518082815260200191505060405180910390f35b34801561028657600080fd5b506102bb600480360381019080803573ffffffffffffffffffffffffffffffffffffffff1690602001909291905050506108a1565b005b6102f1600480360381019080803573ffffffffffffffffffffffffffffffffffffffff169060200190929190505050610908565b005b3480156102ff57600080fd5b50610334600480360381019080803573ffffffffffffffffffffffffffffffffffffffff169060200190929190505050610a2f565b005b6000809054906101000a900473ffffffffffffffffffffffffffffffffffffffff1673ffffffffffffffffffffffffffffffffffffffff163373ffffffffffffffffffffffffffffffffffffffff1614151561039157600080fd5b6000600281111561039e57fe5b600260149054906101000a900460ff1660028111156103b957fe5b1415156103c557600080fd5b60028060146101000a81548160ff021916908360028111156103e357fe5b02179055507f1cdde67b72a90f19919ac732a437ac2f7a10fc128d28c2a6e525d89ce5cd9d3a60405160405180910390a1600260009054906101000a900473ffffffffffffffffffffffffffffffffffffffff1673ffffffffffffffffffffffffffffffffffffffff166108fc3073ffffffffffffffffffffffffffffffffffffffff16319081150290604051600060405180830381858888f19350505050158015610493573d6000803e3d6000fd5b50565b600260009054906101000a900473ffffffffffffffffffffffffffffffffffffffff1681565b6000809054906101000a900473ffffffffffffffffffffffffffffffffffffffff1673ffffffffffffffffffffffffffffffffffffffff163373ffffffffffffffffffffffffffffffffffffffff1614151561051757600080fd5b6000809054906101000a900473ffffffffffffffffffffffffffffffffffffffff1673ffffffffffffffffffffffffffffffffffffffff167ff8df31144d9c2f0f6b59d69b8b98abd5459d07f2742c4df920b25aae33c6482060405160405180910390a260008060006101000a81548173ffffffffffffffffffffffffffffffffffffffff021916908373ffffffffffffffffffffffffffffffffffffffff160217905550565b60008060009054906101000a900473ffffffffffffffffffffffffffffffffffffffff1673ffffffffffffffffffffffffffffffffffffffff163373ffffffffffffffffffffffffffffffffffffffff1614151561061b57600080fd5b6000600281111561062857fe5b600260149054906101000a900460ff16600281111561064357fe5b1415151561065057600080fd5b600160008373ffffffffffffffffffffffffffffffffffffffff1673ffffffffffffffffffffffffffffffffffffffff1681526020019081526020016000205490506000600160008473ffffffffffffffffffffffffffffffffffffffff1673ffffffffffffffffffffffffffffffffffffffff168152602001908152602001600020819055508173ffffffffffffffffffffffffffffffffffffffff166108fc829081150290604051600060405180830381858888f1935050505015801561071d573d6000803e3d6000fd5b508173ffffffffffffffffffffffffffffffffffffffff167fd7dee2702d63ad89917b6a4da9981c90c4d24f8c2bdfd64c604ecae57d8d0651826040518082815260200191505060405180910390a25050565b6000809054906101000a900473ffffffffffffffffffffffffffffffffffffffff1673ffffffffffffffffffffffffffffffffffffffff163373ffffffffffffffffffffffffffffffffffffffff161415156107cb57600080fd5b600060028111156107d857fe5b600260149054906101000a900460ff1660028111156107f357fe5b1415156107ff57600080fd5b6001600260146101000a81548160ff0219169083600281111561081e57fe5b02179055507f599d8e5a83cffb867d051598c4d70e805d59802d8081c1c7d6dffc5b6aca2b8960405160405180910390a1565b6000809054906101000a900473ffffffffffffffffffffffffffffffffffffffff1681565b600260149054906101000a900460ff1681565b60016020528060005260406000206000915090505481565b6000809054906101000a900473ffffffffffffffffffffffffffffffffffffffff1673ffffffffffffffffffffffffffffffffffffffff163373ffffffffffffffffffffffffffffffffffffffff161415156108fc57600080fd5b61090581610b85565b50565b6000809054906101000a900473ffffffffffffffffffffffffffffffffffffffff1673ffffffffffffffffffffffffffffffffffffffff163373ffffffffffffffffffffffffffffffffffffffff1614151561096357600080fd5b6000600281111561097057fe5b600260149054906101000a900460ff16600281111561098b57fe5b14151561099757600080fd5b6109e934600160008473ffffffffffffffffffffffffffffffffffffffff1673ffffffffffffffffffffffffffffffffffffffff16815260200190815260200160002054610c7f90919063ffffffff16565b600160008373ffffffffffffffffffffffffffffffffffffffff1673ffffffffffffffffffffffffffffffffffffffff1681526020019081526020016000208190555050565b600060016002811115610a3e57fe5b600260149054906101000a900460ff166002811115610a5957fe5b141515610a6557600080fd5b600160008373ffffffffffffffffffffffffffffffffffffffff1673ffffffffffffffffffffffffffffffffffffffff1681526020019081526020016000205490506000600160008473ffffffffffffffffffffffffffffffffffffffff1673ffffffffffffffffffffffffffffffffffffffff168152602001908152602001600020819055508173ffffffffffffffffffffffffffffffffffffffff166108fc829081150290604051600060405180830381858888f19350505050158015610b32573d6000803e3d6000fd5b508173ffffffffffffffffffffffffffffffffffffffff167fd7dee2702d63ad89917b6a4da9981c90c4d24f8c2bdfd64c604ecae57d8d0651826040518082815260200191505060405180910390a25050565b600073ffffffffffffffffffffffffffffffffffffffff168173ffffffffffffffffffffffffffffffffffffffff1614151515610bc157600080fd5b8073ffffffffffffffffffffffffffffffffffffffff166000809054906101000a900473ffffffffffffffffffffffffffffffffffffffff1673ffffffffffffffffffffffffffffffffffffffff167f8be0079c531659141344cd1fd0a4f28419497f9722a3daafe3b4186f6b6457e060405160405180910390a3806000806101000a81548173ffffffffffffffffffffffffffffffffffffffff021916908373ffffffffffffffffffffffffffffffffffffffff16021790555050565b60008183019050828110151515610c9257fe5b809050929150505600a165627a7a723058201e7ee15039653b4d33fe646a8b1585a9a22c956fd2be1fbfb0d76080368f5e530029",
  "source": "pragma solidity ^0.4.23;\r\n\r\nimport \"./BitcademyToken.sol\";\r\nimport \"./RefundVault.sol\";\r\nimport \"openzeppelin-solidity/contracts/ownership/Ownable.sol\";\r\n\r\n/**\r\n * @title Crowdsale\r\n * @dev Crowdsale is a base contract for managing a token crowdsale,\r\n * allowing investors to purchase tokens with ether. This contract implements\r\n * such functionality in its most fundamental form and can be extended to provide additional\r\n * functionality and/or custom behavior.\r\n * The external interface represents the basic interface for purchasing tokens, and conform\r\n * the base architecture for crowdsales. They are *not* intended to be modified / overriden.\r\n * The internal interface conforms the extensible and modifiable surface of crowdsales. Override\r\n * the methods to add functionality. Consider using 'super' where appropiate to concatenate\r\n * behavior.\r\n */\r\ncontract Crowdsale is Ownable{\r\n  using SafeMath for uint256;\r\n\r\n  // The token being sold\r\n  BitcademyToken public token;\r\n\r\n  // Address where funds are collected\r\n  //address public wallet;\r\n\r\n    //custom release date\r\n   uint256 public release_date = 1556582400;\r\n  // No of Tokens per ether\r\n  uint256 public rate;\r\n\r\n  // Ether Price in USD\r\n  uint256 public price;\r\n\r\n  // Amount of wei raised\r\n  uint256 public weiRaised;\r\n\r\n  //amount of tokens to be sold for Main ICO\r\n  uint256 public supply_cap = 350000000000000000000000000;\r\n\r\n\r\n// amount invested by the investor\r\n   mapping (address => uint256) public investedAmount;\r\n   address[] public investors;\r\n\r\n\r\n  mapping(address => bool) public whitelist;\r\n  mapping (address => uint256) public tokenToClaim;\r\n\r\n\r\n\r\n  uint256 public openingTime;\r\n  uint256 public closingTime;\r\n\r\n  // Remaining tokens which are yet to be sold\r\n  uint256 public remainingTokens;\r\n\r\n  // Tokens sold excluding bonus\r\n  uint256 public tokenSoldExcludeBonus;\r\n\r\n  // minimum amount of funds to be raised in weis\r\n  uint256 public goal;\r\n\r\n  // refund vault used to hold funds while crowdsale is running\r\n  RefundVault public vault;\r\n\r\n  /**\r\n   * @dev Reverts if beneficiary is not whitelisted. Can be used when extending this contract.\r\n   */\r\n  modifier isWhitelisted(address _beneficiary) {\r\n    require(whitelist[_beneficiary]);\r\n    _;\r\n  }\r\n\r\n  /**\r\n   * @dev Reverts if not in crowdsale time range.\r\n   */\r\n  modifier onlyWhileOpen {\r\n    // solium-disable-next-line security/no-block-members\r\n    require(block.timestamp >= openingTime && block.timestamp <= closingTime);\r\n    _;\r\n  }\r\n\r\n\r\n  bool public isFinalized = false;\r\n\r\n  event Finalized();\r\n\r\n  /**\r\n   * @dev Must be called after crowdsale ends, to do some extra finalization\r\n   * work. Calls the contract's finalization function.\r\n   */\r\n  function finalize() onlyOwner public {\r\n    require(!isFinalized);\r\n    require(hasClosed());\r\n\r\n    finalization();\r\n    emit Finalized();\r\n\r\n    isFinalized = true;\r\n  }\r\n\r\n  /**\r\n   * @dev Investors can claim refunds here if crowdsale is unsuccessful\r\n   */\r\n  function claimRefund() public {\r\n    require(isFinalized);\r\n    require(!goalReached());\r\n\r\n    vault.refund(msg.sender);\r\n  }\r\n\r\n  /**\r\n   * @dev Investors can claim refunds here if the blacklisted\r\n   */\r\n   function blacklistClaimRefund() public {\r\n     require(isFinalized);\r\n     require(tokenToClaim[msg.sender] > 0);\r\n     require(!whitelist[msg.sender]);\r\n     vault.refundBlackListed(msg.sender);\r\n     tokenToClaim[msg.sender] = 0;\r\n   }\r\n\r\n\r\n  /**\r\n   * @dev Checks whether funding goal was reached.\r\n   * @return Whether funding goal was reached\r\n   */\r\n  function goalReached() public view returns (bool) {\r\n    return weiRaised >= goal;\r\n  }\r\n\r\n\r\n\r\n  /**\r\n   * @dev vault finalization task, called when owner calls finalize()\r\n   */\r\n   function finalization() internal {\r\n     if (goalReached()) {\r\n       vault.close();\r\n     } else {\r\n       vault.enableRefunds();\r\n     }\r\n   }\r\n\r\n  /**\r\n   * Event for token purchase logging\r\n   * @param purchaser who paid for the tokens\r\n   * @param beneficiary who got the tokens\r\n   * @param value weis paid for purchase\r\n   * @param amount amount of tokens purchased\r\n   */\r\n  event TokenPurchase(\r\n    address indexed purchaser,\r\n    address indexed beneficiary,\r\n    uint256 value,\r\n    uint256 amount\r\n  );\r\n\r\n  /**\r\n   * @param _rate No of tokens per ether\r\n   * @param _multi_sig_wallet Address where collected funds will be forwarded to\r\n   * @param _goal the  token soft cap\r\n   */\r\n  constructor(uint256 _rate, BitcademyToken _token, uint256 _openingTime, uint256 _closingTime, address _multi_sig_wallet, uint256 _goal, uint256 _price) public {\r\n    require(_rate > 0);\r\n    require(_multi_sig_wallet != address(0));\r\n    require(_token != address(0));\r\n    require(_openingTime >= block.timestamp);\r\n    require(_closingTime >= _openingTime);\r\n    require(_goal > 0);\r\n    require(_price > 0);\r\n\r\n    vault = new RefundVault(_multi_sig_wallet);\r\n    goal = _goal;\r\n    rate = _rate;\r\n    token = _token;\r\n    price = _price;\r\n    openingTime = _openingTime;\r\n    closingTime = _closingTime;\r\n    remainingTokens = supply_cap;\r\n  }\r\n\r\n  // -----------------------------------------\r\n  // Crowdsale external interface\r\n  // -----------------------------------------\r\n\r\n  /**\r\n   * @dev fallback function ***DO NOT OVERRIDE***\r\n   */\r\n  function () external payable {\r\n    buyTokens(msg.sender);\r\n  }\r\n\r\n  /**\r\n   * @dev low level token purchase ***DO NOT OVERRIDE***\r\n   * @param _beneficiary Address performing the token purchase\r\n   */\r\n  function buyTokens(address _beneficiary) public payable {\r\n\r\n    uint256 weiAmount = msg.value;\r\n    uint256 minimumPurchase = weiAmount.mul(100).div(price);\r\n    require(weiAmount >= minimumPurchase);\r\n    uint256 refundWeiAmt = 0;\r\n    uint256 tokens = 0;\r\n    _preValidatePurchase(_beneficiary, weiAmount);\r\n\r\n    // calculate token amount to be delivered\r\n     (tokens, refundWeiAmt) = _getTokenAmount(weiAmount);\r\n\r\n    /* If the remaining tokens are less than tokens calculated above\r\n     * proceed with purchase of remaining tokens and refund the remaining ethers\r\n     * to the caller\r\n     */\r\n    if(refundWeiAmt > 0) {\r\n      msg.sender.transfer(refundWeiAmt);\r\n      weiAmount = weiAmount.sub(refundWeiAmt);\r\n    }\r\n\r\n    // update state\r\n    weiRaised = weiRaised.add(weiAmount);\r\n\r\n    _processPurchase(_beneficiary, tokens);\r\n    emit TokenPurchase(\r\n      msg.sender,\r\n      _beneficiary,\r\n      weiAmount,\r\n      tokens\r\n    );\r\n\r\n    _updatePurchasingState(_beneficiary, weiAmount);\r\n    _forwardFunds(weiAmount);\r\n    _postValidatePurchase(_beneficiary, weiAmount);\r\n  }\r\n\r\n  /**\r\n   * @dev Adds single address to whitelist.\r\n   * @param _beneficiary Address to be added to the whitelist\r\n   */\r\n  function addToWhitelist(address _beneficiary) external onlyOwner {\r\n    require(!isFinalized);\r\n    whitelist[_beneficiary] = true;\r\n  }\r\n\r\n  /**\r\n   * @dev Adds list of addresses to whitelist. Not overloaded due to limitations with truffle testing.\r\n   * @param _beneficiaries Addresses to be added to the whitelist\r\n   */\r\n  function addManyToWhitelist(address[] _beneficiaries) external onlyOwner {\r\n    require(!isFinalized);\r\n    for (uint256 i = 0; i < _beneficiaries.length; i++) {\r\n      whitelist[_beneficiaries[i]] = true;\r\n    }\r\n  }\r\n\r\n  /**\r\n   * @dev Removes single address from whitelist.\r\n   * @param _beneficiary Address to be removed to the whitelist\r\n   */\r\n   function removeFromWhitelist(address _beneficiary) external onlyOwner {\r\n     require(!isFinalized);\r\n     whitelist[_beneficiary] = false;\r\n   }\r\n\r\n  /**\r\n   * @dev Checks whether the period in which the crowdsale is open has already elapsed.\r\n   * @return Whether crowdsale period has elapsed\r\n   */\r\n  function hasClosed() public view returns (bool) {\r\n    // solium-disable-next-line security/no-block-members\r\n    return block.timestamp > closingTime;\r\n  }\r\n\r\n  // -----------------------------------------\r\n  // Internal interface (extensible)\r\n  // -----------------------------------------\r\n\r\n  /**\r\n   * @dev Validation of an incoming purchase. Use require statements to revert state when conditions are not met. Use super to concatenate validations.\r\n   * @param _beneficiary Address performing the token purchase\r\n   * @param _weiAmount Value in wei involved in the purchase\r\n   */\r\n  function _preValidatePurchase(\r\n    address _beneficiary,\r\n    uint256 _weiAmount\r\n  )\r\n    internal\r\n  {\r\n    require(_beneficiary != address(0));\r\n    require(_weiAmount != 0);\r\n  }\r\n\r\n  /**\r\n   * @dev Validation of an executed purchase. Observe state and use revert statements to undo rollback when valid conditions are not met.\r\n   * @param _beneficiary Address performing the token purchase\r\n   * @param _weiAmount Value in wei involved in the purchase\r\n   */\r\n  function _postValidatePurchase(\r\n    address _beneficiary,\r\n    uint256 _weiAmount\r\n  )\r\n    internal\r\n  {\r\n    // optional override\r\n  }\r\n\r\n  /**\r\n   * @dev Source of tokens. Override this method to modify the way in which the crowdsale ultimately gets and sends its tokens.\r\n   * @param _beneficiary Address performing the token purchase\r\n   * @param _tokenAmount Number of tokens to be emitted\r\n   */\r\n  function _deliverTokens(\r\n    address _beneficiary,\r\n    uint256 _tokenAmount\r\n  )\r\n    internal\r\n  {\r\n    token.transfer(_beneficiary, _tokenAmount);\r\n  }\r\n\r\n  /**\r\n   * @dev Executed when a purchase has been validated and is ready to be executed. Not necessarily emits/sends tokens.\r\n   * @param _beneficiary Address receiving the tokens\r\n   * @param _tokenAmount Number of tokens to be purchased\r\n   */\r\n  function _processPurchase(\r\n    address _beneficiary,\r\n    uint256 _tokenAmount\r\n  )\r\n    internal\r\n    isWhitelisted(_beneficiary)\r\n    onlyWhileOpen\r\n  {\r\n    //_deliverTokens(_beneficiary, _tokenAmount);\r\n    if (tokenToClaim[_beneficiary] == 0){\r\n    tokenToClaim[_beneficiary] = _tokenAmount;\r\n    }\r\n    else{\r\n      tokenToClaim[_beneficiary] = tokenToClaim[_beneficiary] + _tokenAmount;\r\n    }\r\n  }\r\n\r\n  /**\r\n   * @dev Override for extensions that require an internal state to check for validity (current user contributions, etc.)\r\n   * @param _beneficiary Address receiving the tokens\r\n   * @param _weiAmount Value in wei involved in the purchase\r\n   */\r\n  function _updatePurchasingState(\r\n    address _beneficiary,\r\n    uint256 _weiAmount\r\n  )\r\n    internal\r\n  {\r\n    // optional override\r\n  }\r\n\r\n  /**\r\n   * @dev Override to extend the way in which ether is converted to tokens.\r\n   * @param _weiAmount Value in wei to be converted into tokens\r\n   * @return Token price in weis\r\n   */\r\n  function _getTokenAmount(uint256 _weiAmount)\r\n    internal  returns (uint256, uint256)\r\n  {\r\n    require(remainingTokens > 0);\r\n    uint256 noOfTokens = 0;\r\n    uint256 tokensInCondition = 0;\r\n    uint256 weiAmount  = _weiAmount;\r\n    uint256 currentRate = 0;\r\n\r\n    if(remainingTokens > 300000000 && weiAmount > 0 ) {\r\n      currentRate = rate;\r\n      currentRate = currentRate.mul(13);\r\n      currentRate = currentRate.div(10);\r\n      tokensInCondition = currentRate.mul(_weiAmount).div(10**18);\r\n      if(tokensInCondition > remainingTokens.sub(300000000*(10**18))){\r\n        tokensInCondition = remainingTokens.sub(300000000*(10**18));\r\n        weiAmount = weiAmount.sub(tokensInCondition.mul(10**18).div(currentRate));\r\n        noOfTokens = noOfTokens.add(tokensInCondition);\r\n        remainingTokens = remainingTokens.sub(tokensInCondition);\r\n      }\r\n      else{\r\n        noOfTokens = noOfTokens.add(tokensInCondition);\r\n        weiAmount = 0;\r\n        remainingTokens = remainingTokens.sub(tokensInCondition);\r\n      }\r\n    }\r\n\r\n    if (remainingTokens <= 300000000*(10**18) && remainingTokens > 250000000*(10**18) && weiAmount > 0){\r\n      currentRate = rate;\r\n      currentRate = currentRate.mul(125);\r\n      currentRate = currentRate.div(100);\r\n      tokensInCondition = currentRate.mul(_weiAmount).div(10**18);\r\n      if(tokensInCondition > remainingTokens.sub(250000000*(10**18))){\r\n        tokensInCondition = remainingTokens.sub(250000000*(10**18));\r\n        weiAmount = weiAmount.sub(tokensInCondition.mul(10**18).div(currentRate));\r\n        noOfTokens = noOfTokens.add(tokensInCondition);\r\n        remainingTokens = remainingTokens.sub(noOfTokens);\r\n      }\r\n      else{\r\n        noOfTokens = tokensInCondition;\r\n        weiAmount = 0;\r\n        remainingTokens = remainingTokens.sub(tokensInCondition);\r\n      }\r\n    }\r\n    if (remainingTokens <= 250000000*(10**18) && remainingTokens > 200000000*(10**18) && weiAmount > 0 ){\r\n      currentRate = rate;\r\n      currentRate = currentRate.mul(120);\r\n      currentRate = currentRate.div(100);\r\n      tokensInCondition = currentRate.mul(_weiAmount).div(10**18);\r\n      if(tokensInCondition > remainingTokens.sub(200000000*(10**18))){\r\n        tokensInCondition = remainingTokens.sub(200000000*(10**18));\r\n        weiAmount = weiAmount.sub(tokensInCondition.mul(10**18).div(currentRate));\r\n        noOfTokens = noOfTokens.add(tokensInCondition);\r\n        remainingTokens = remainingTokens.sub(tokensInCondition);\r\n      }\r\n      else{\r\n        noOfTokens = noOfTokens.add(tokensInCondition);\r\n        weiAmount = 0;\r\n        remainingTokens = remainingTokens.sub(tokensInCondition);\r\n      }\r\n    }\r\n    if (remainingTokens <= 200000000*(10**18) && remainingTokens > 150000000*(10**18) && weiAmount > 0 ){\r\n      currentRate = rate;\r\n      currentRate = currentRate.mul(115);\r\n      currentRate = currentRate.div(100);\r\n      tokensInCondition = currentRate.mul(_weiAmount).div(10**18);\r\n      if(tokensInCondition > remainingTokens.sub(150000000*(10**18))){\r\n        tokensInCondition = remainingTokens.sub(150000000*(10**18));\r\n        weiAmount = weiAmount.sub(tokensInCondition.mul(10**18).div(currentRate));\r\n        noOfTokens = noOfTokens.add(tokensInCondition);\r\n        remainingTokens = remainingTokens.sub(tokensInCondition);\r\n      }\r\n      else{\r\n        noOfTokens = noOfTokens.add(tokensInCondition);\r\n        weiAmount = 0;\r\n        remainingTokens = remainingTokens.sub(tokensInCondition);\r\n      }\r\n    }\r\n     if (remainingTokens <= 150000000*(10**18) && remainingTokens > 100000000*(10**18) && weiAmount > 0){\r\n      currentRate = rate;\r\n      currentRate = currentRate.mul(11);\r\n      currentRate = currentRate.div(10);\r\n      tokensInCondition = currentRate.mul(_weiAmount).div(10**18);\r\n      if(tokensInCondition > remainingTokens.sub(100000000*(10**18))){\r\n        tokensInCondition = remainingTokens.sub(100000000*(10**18));\r\n        weiAmount = weiAmount.sub(tokensInCondition.mul(10**18).div(currentRate));\r\n        noOfTokens = noOfTokens.add(tokensInCondition);\r\n        remainingTokens = remainingTokens.sub(tokensInCondition);\r\n      }\r\n      else{\r\n        noOfTokens = noOfTokens.add(tokensInCondition);\r\n        weiAmount = 0;\r\n        remainingTokens = remainingTokens.sub(tokensInCondition);\r\n      }\r\n    }\r\n\r\n    if (remainingTokens <= 100000000*(10**18) && remainingTokens > 50000000*(10**18) ){\r\n      currentRate = rate;\r\n      currentRate = currentRate.mul(105);\r\n      currentRate = currentRate.div(100);\r\n      tokensInCondition = currentRate.mul(_weiAmount).div(10**18);\r\n      if(tokensInCondition > remainingTokens.sub(50000000*(10**18))){\r\n        tokensInCondition = remainingTokens.sub(50000000*(10**18));\r\n        weiAmount = weiAmount.sub(tokensInCondition.mul(10**18).div(currentRate));\r\n        noOfTokens = noOfTokens.add(tokensInCondition);\r\n        remainingTokens = remainingTokens.sub(tokensInCondition);\r\n      }\r\n      else{\r\n        noOfTokens = noOfTokens.add(tokensInCondition);\r\n        weiAmount = 0;\r\n        remainingTokens = remainingTokens.sub(tokensInCondition);\r\n      }\r\n    }\r\n    if(remainingTokens <= 50000000*(10**18)){\r\n      currentRate = rate;\r\n      tokensInCondition = currentRate.mul(_weiAmount).div(10**18);\r\n      if(tokensInCondition > remainingTokens) {\r\n        noOfTokens = remainingTokens;\r\n        weiAmount = weiAmount.sub(noOfTokens.mul(currentRate));\r\n      }\r\n      else{\r\n        noOfTokens = noOfTokens.add(tokensInCondition);\r\n        weiAmount = 0;\r\n        remainingTokens = remainingTokens.sub(tokensInCondition);\r\n      }\r\n    }\r\n    return (noOfTokens, weiAmount);\r\n  }\r\n\r\n  /**\r\n   * @dev Determines how ETH is stored/forwarded on purchases.\r\n   */\r\n  function _forwardFunds(uint256 _value) internal {\r\n    vault.deposit.value(_value)(msg.sender);\r\n    if (investedAmount[msg.sender] == 0){\r\n      investors.push(msg.sender);\r\n    }\r\n    investedAmount[msg.sender] = investedAmount[msg.sender].add(_value);\r\n  }\r\n   /**\r\n   * @dev Set the exchange rate of the token (number of token per ether)\r\n   */\r\n  function setRate(uint256 _rate) public onlyOwner{\r\n    require(_rate > 0);\r\n    rate = _rate;\r\n  }\r\n\r\n\r\n  /**\r\n  * @dev Set the Ether Price in USD\r\n  */\r\n function setEthPriceInUSD(uint256 _price) public onlyOwner{\r\n   require(_price > 0);\r\n   price = _price;\r\n }\r\n\r\n  /**\r\n   * @dev calculate the number of investors in crowdsale\r\n   */\r\n\r\n  function investorsCount() public constant returns (uint) {\r\n    return investors.length;\r\n  }\r\n\r\n    /**\r\n   * @dev allow investors to withdraw their tokens after the mainsale is done\r\n   */\r\n\r\n  function withdrawAfterMainSale() isWhitelisted(msg.sender) public {\r\n    require(goalReached());\r\n    require(release_date < now);\r\n    require(isFinalized);\r\n    require(tokenToClaim[msg.sender] >= 0);\r\n      if (tokenToClaim[msg.sender] > 0) {\r\n         _deliverTokens(msg.sender, tokenToClaim[msg.sender]);\r\n         tokenToClaim[msg.sender] = 0;\r\n      }\r\n  }\r\n\r\n    /**\r\n   * @dev Update the release date of purchased tokens\r\n   */\r\n\r\n  function updateReleaseDate(uint256 _new_release_date) onlyOwner public{\r\n    require( _new_release_date > now &&  _new_release_date != release_date);\r\n     release_date = _new_release_date;\r\n    }\r\n\r\n      /**\r\n   * @dev Update the close date of crowdsale\r\n   */\r\n\r\n    function adjustCloseDate(uint256 _new_close_date) onlyOwner public{\r\n    require(!isFinalized);\r\n    require( _new_close_date > now &&  _new_close_date > closingTime );\r\n     closingTime = _new_close_date;\r\n    }\r\n}\r\n",
  "sourcePath": "/root/Bitcademy_ICO/contracts/Crowdsale.sol",
  "compiler": {
    "name": "solc",
    "version": "0.4.24+commit.e67f0147.Emscripten.clang"
  },
  "schemaVersion": "2.0.1",
  "updatedAt": "2018-12-20T17:52:19.273Z"
}