{
  "contractName": "Crowdsale",
  "abi": [
    {
      "constant": true,
      "inputs": [],
      "name": "rate",
      "outputs": [
        {
          "name": "",
          "type": "uint256"
        }
      ],
      "payable": false,
      "stateMutability": "view",
      "type": "function"
    },
    {
      "constant": true,
      "inputs": [
        {
          "name": "",
          "type": "uint256"
        }
      ],
      "name": "investors",
      "outputs": [
        {
          "name": "",
          "type": "address"
        }
      ],
      "payable": false,
      "stateMutability": "view",
      "type": "function"
    },
    {
      "constant": true,
      "inputs": [],
      "name": "goal",
      "outputs": [
        {
          "name": "",
          "type": "uint256"
        }
      ],
      "payable": false,
      "stateMutability": "view",
      "type": "function"
    },
    {
      "constant": true,
      "inputs": [],
      "name": "weiRaised",
      "outputs": [
        {
          "name": "",
          "type": "uint256"
        }
      ],
      "payable": false,
      "stateMutability": "view",
      "type": "function"
    },
    {
      "constant": true,
      "inputs": [],
      "name": "minimumTokens",
      "outputs": [
        {
          "name": "",
          "type": "uint256"
        }
      ],
      "payable": false,
      "stateMutability": "view",
      "type": "function"
    },
    {
      "constant": true,
      "inputs": [],
      "name": "closingTime",
      "outputs": [
        {
          "name": "",
          "type": "uint256"
        }
      ],
      "payable": false,
      "stateMutability": "view",
      "type": "function"
    },
    {
      "constant": false,
      "inputs": [],
      "name": "renounceOwnership",
      "outputs": [],
      "payable": false,
      "stateMutability": "nonpayable",
      "type": "function"
    },
    {
      "constant": true,
      "inputs": [],
      "name": "isFinalized",
      "outputs": [
        {
          "name": "",
          "type": "bool"
        }
      ],
      "payable": false,
      "stateMutability": "view",
      "type": "function"
    },
    {
      "constant": true,
      "inputs": [],
      "name": "owner",
      "outputs": [
        {
          "name": "",
          "type": "address"
        }
      ],
      "payable": false,
      "stateMutability": "view",
      "type": "function"
    },
    {
      "constant": true,
      "inputs": [
        {
          "name": "",
          "type": "address"
        }
      ],
      "name": "whitelist",
      "outputs": [
        {
          "name": "",
          "type": "bool"
        }
      ],
      "payable": false,
      "stateMutability": "view",
      "type": "function"
    },
    {
      "constant": true,
      "inputs": [],
      "name": "tokenSoldExcludeBonus",
      "outputs": [
        {
          "name": "",
          "type": "uint256"
        }
      ],
      "payable": false,
      "stateMutability": "view",
      "type": "function"
    },
    {
      "constant": true,
      "inputs": [],
      "name": "openingTime",
      "outputs": [
        {
          "name": "",
          "type": "uint256"
        }
      ],
      "payable": false,
      "stateMutability": "view",
      "type": "function"
    },
    {
      "constant": true,
      "inputs": [],
      "name": "remainingTokens",
      "outputs": [
        {
          "name": "",
          "type": "uint256"
        }
      ],
      "payable": false,
      "stateMutability": "view",
      "type": "function"
    },
    {
      "constant": true,
      "inputs": [
        {
          "name": "",
          "type": "address"
        }
      ],
      "name": "tokenToClaim",
      "outputs": [
        {
          "name": "",
          "type": "uint256"
        }
      ],
      "payable": false,
      "stateMutability": "view",
      "type": "function"
    },
    {
      "constant": true,
      "inputs": [
        {
          "name": "",
          "type": "address"
        }
      ],
      "name": "investedAmount",
      "outputs": [
        {
          "name": "",
          "type": "uint256"
        }
      ],
      "payable": false,
      "stateMutability": "view",
      "type": "function"
    },
    {
      "constant": true,
      "inputs": [],
      "name": "supply_cap",
      "outputs": [
        {
          "name": "",
          "type": "uint256"
        }
      ],
      "payable": false,
      "stateMutability": "view",
      "type": "function"
    },
    {
      "constant": false,
      "inputs": [
        {
          "name": "_newOwner",
          "type": "address"
        }
      ],
      "name": "transferOwnership",
      "outputs": [],
      "payable": false,
      "stateMutability": "nonpayable",
      "type": "function"
    },
    {
      "constant": true,
      "inputs": [],
      "name": "release_date",
      "outputs": [
        {
          "name": "",
          "type": "uint256"
        }
      ],
      "payable": false,
      "stateMutability": "view",
      "type": "function"
    },
    {
      "constant": true,
      "inputs": [],
      "name": "vault",
      "outputs": [
        {
          "name": "",
          "type": "address"
        }
      ],
      "payable": false,
      "stateMutability": "view",
      "type": "function"
    },
    {
      "constant": true,
      "inputs": [],
      "name": "token",
      "outputs": [
        {
          "name": "",
          "type": "address"
        }
      ],
      "payable": false,
      "stateMutability": "view",
      "type": "function"
    },
    {
      "inputs": [
        {
          "name": "_rate",
          "type": "uint256"
        },
        {
          "name": "_token",
          "type": "address"
        },
        {
          "name": "_openingTime",
          "type": "uint256"
        },
        {
          "name": "_closingTime",
          "type": "uint256"
        },
        {
          "name": "_multi_sig_wallet",
          "type": "address"
        },
        {
          "name": "_goal",
          "type": "uint256"
        }
      ],
      "payable": false,
      "stateMutability": "nonpayable",
      "type": "constructor"
    },
    {
      "payable": true,
      "stateMutability": "payable",
      "type": "fallback"
    },
    {
      "anonymous": false,
      "inputs": [],
      "name": "Finalized",
      "type": "event"
    },
    {
      "anonymous": false,
      "inputs": [
        {
          "indexed": true,
          "name": "purchaser",
          "type": "address"
        },
        {
          "indexed": true,
          "name": "beneficiary",
          "type": "address"
        },
        {
          "indexed": false,
          "name": "value",
          "type": "uint256"
        },
        {
          "indexed": false,
          "name": "amount",
          "type": "uint256"
        }
      ],
      "name": "TokenPurchase",
      "type": "event"
    },
    {
      "anonymous": false,
      "inputs": [
        {
          "indexed": true,
          "name": "previousOwner",
          "type": "address"
        }
      ],
      "name": "OwnershipRenounced",
      "type": "event"
    },
    {
      "anonymous": false,
      "inputs": [
        {
          "indexed": true,
          "name": "previousOwner",
          "type": "address"
        },
        {
          "indexed": true,
          "name": "newOwner",
          "type": "address"
        }
      ],
      "name": "OwnershipTransferred",
      "type": "event"
    },
    {
      "constant": false,
      "inputs": [],
      "name": "finalize",
      "outputs": [],
      "payable": false,
      "stateMutability": "nonpayable",
      "type": "function"
    },
    {
      "constant": false,
      "inputs": [],
      "name": "claimRefund",
      "outputs": [],
      "payable": false,
      "stateMutability": "nonpayable",
      "type": "function"
    },
    {
      "constant": false,
      "inputs": [],
      "name": "blacklistClaimRefund",
      "outputs": [],
      "payable": false,
      "stateMutability": "nonpayable",
      "type": "function"
    },
    {
      "constant": true,
      "inputs": [],
      "name": "goalReached",
      "outputs": [
        {
          "name": "",
          "type": "bool"
        }
      ],
      "payable": false,
      "stateMutability": "view",
      "type": "function"
    },
    {
      "constant": false,
      "inputs": [
        {
          "name": "_beneficiary",
          "type": "address"
        }
      ],
      "name": "buyTokens",
      "outputs": [],
      "payable": true,
      "stateMutability": "payable",
      "type": "function"
    },
    {
      "constant": false,
      "inputs": [
        {
          "name": "_beneficiary",
          "type": "address"
        }
      ],
      "name": "addToWhitelist",
      "outputs": [],
      "payable": false,
      "stateMutability": "nonpayable",
      "type": "function"
    },
    {
      "constant": false,
      "inputs": [
        {
          "name": "_beneficiaries",
          "type": "address[]"
        }
      ],
      "name": "addManyToWhitelist",
      "outputs": [],
      "payable": false,
      "stateMutability": "nonpayable",
      "type": "function"
    },
    {
      "constant": false,
      "inputs": [
        {
          "name": "_beneficiary",
          "type": "address"
        }
      ],
      "name": "removeFromWhitelist",
      "outputs": [],
      "payable": false,
      "stateMutability": "nonpayable",
      "type": "function"
    },
    {
      "constant": true,
      "inputs": [],
      "name": "hasClosed",
      "outputs": [
        {
          "name": "",
          "type": "bool"
        }
      ],
      "payable": false,
      "stateMutability": "view",
      "type": "function"
    },
    {
      "constant": false,
      "inputs": [
        {
          "name": "_rate",
          "type": "uint256"
        }
      ],
      "name": "setRate",
      "outputs": [],
      "payable": false,
      "stateMutability": "nonpayable",
      "type": "function"
    },
    {
      "constant": true,
      "inputs": [],
      "name": "investorsCount",
      "outputs": [
        {
          "name": "",
          "type": "uint256"
        }
      ],
      "payable": false,
      "stateMutability": "view",
      "type": "function"
    },
    {
      "constant": false,
      "inputs": [],
      "name": "withdrawAfterMainSale",
      "outputs": [],
      "payable": false,
      "stateMutability": "nonpayable",
      "type": "function"
    },
    {
      "constant": false,
      "inputs": [
        {
          "name": "_new_release_date",
          "type": "uint256"
        }
      ],
      "name": "updateReleaseDate",
      "outputs": [],
      "payable": false,
      "stateMutability": "nonpayable",
      "type": "function"
    },
    {
      "constant": false,
      "inputs": [
        {
          "name": "_new_close_date",
          "type": "uint256"
        }
      ],
      "name": "adjustCloseDate",
      "outputs": [],
      "payable": false,
      "stateMutability": "nonpayable",
      "type": "function"
    }
  ],
  "bytecode": "0x6080604052635cc790006002556a7c13bc4b2c133c560000006005556a4d8c55aefb8c05b5c000006006556000601060146101000a81548160ff0219169083151502179055503480156200005257600080fd5b5060405160c08062002f63833981018060405281019080805190602001909291908051906020019092919080519060200190929190805190602001909291908051906020019092919080519060200190929190505050336000806101000a81548173ffffffffffffffffffffffffffffffffffffffff021916908373ffffffffffffffffffffffffffffffffffffffff160217905550600086111515620000f857600080fd5b600073ffffffffffffffffffffffffffffffffffffffff168273ffffffffffffffffffffffffffffffffffffffff16141515156200013557600080fd5b600073ffffffffffffffffffffffffffffffffffffffff168573ffffffffffffffffffffffffffffffffffffffff16141515156200017257600080fd5b4284101515156200018257600080fd5b8383101515156200019257600080fd5b600081111515620001a257600080fd5b81620001ad620002aa565b808273ffffffffffffffffffffffffffffffffffffffff1673ffffffffffffffffffffffffffffffffffffffff168152602001915050604051809103906000f08015801562000200573d6000803e3d6000fd5b50601060006101000a81548173ffffffffffffffffffffffffffffffffffffffff021916908373ffffffffffffffffffffffffffffffffffffffff16021790555080600f819055508560038190555084600160006101000a81548173ffffffffffffffffffffffffffffffffffffffff021916908373ffffffffffffffffffffffffffffffffffffffff16021790555083600b8190555082600c81905550505050505050620002bb565b604051610beb806200237883390190565b6120ad80620002cb6000396000f3006080604052600436106101ac576000357c0100000000000000000000000000000000000000000000000000000000900463ffffffff16806307a95e91146101b75780630ebaf5f5146101e45780631515bc2b146102115780632b711051146102405780632c4e722e1461026b57806334fcf437146102965780633feb5f2b146102c357806340193883146103305780634042b66f1461035b5780634056f8a8146103865780634b6753bc146103b15780634bb278f3146103dc578063715018a6146103f35780637d3d65221461040a5780638ab1d681146104395780638c10671c1461047c5780638d4e4083146104b75780638da5cb5b146104e65780639b19251a1461053d578063b4ef088f14610598578063b5545a3c146105c3578063b7960046146105da578063b7a8807c146105f1578063bbd2af2f1461061c578063bf58390314610633578063c2fb345a1461065e578063cff77444146106b5578063e43252d71461070c578063eaac77ea1461074f578063ec8ac4d81461077a578063f2fde38b146107b0578063fb54f7d3146107f3578063fbfa77cf1461081e578063fc0c546a14610875575b6101b5336108cc565b005b3480156101c357600080fd5b506101e260048036038101908080359060200190929190505050610a76565b005b3480156101f057600080fd5b5061020f60048036038101908080359060200190929190505050610b12565b005b34801561021d57600080fd5b50610226610b93565b604051808215151515815260200191505060405180910390f35b34801561024c57600080fd5b50610255610b9f565b6040518082815260200191505060405180910390f35b34801561027757600080fd5b50610280610bac565b6040518082815260200191505060405180910390f35b3480156102a257600080fd5b506102c160048036038101908080359060200190929190505050610bb2565b005b3480156102cf57600080fd5b506102ee60048036038101908080359060200190929190505050610c26565b604051808273ffffffffffffffffffffffffffffffffffffffff1673ffffffffffffffffffffffffffffffffffffffff16815260200191505060405180910390f35b34801561033c57600080fd5b50610345610c64565b6040518082815260200191505060405180910390f35b34801561036757600080fd5b50610370610c6a565b6040518082815260200191505060405180910390f35b34801561039257600080fd5b5061039b610c70565b6040518082815260200191505060405180910390f35b3480156103bd57600080fd5b506103c6610c76565b6040518082815260200191505060405180910390f35b3480156103e857600080fd5b506103f1610c7c565b005b3480156103ff57600080fd5b50610408610d57565b005b34801561041657600080fd5b5061041f610e59565b604051808215151515815260200191505060405180910390f35b34801561044557600080fd5b5061047a600480360381019080803573ffffffffffffffffffffffffffffffffffffffff169060200190929190505050610e68565b005b34801561048857600080fd5b506104b5600480360381019080803590602001908201803590602001919091929391929390505050610f1e565b005b3480156104c357600080fd5b506104cc61101f565b604051808215151515815260200191505060405180910390f35b3480156104f257600080fd5b506104fb611032565b604051808273ffffffffffffffffffffffffffffffffffffffff1673ffffffffffffffffffffffffffffffffffffffff16815260200191505060405180910390f35b34801561054957600080fd5b5061057e600480360381019080803573ffffffffffffffffffffffffffffffffffffffff169060200190929190505050611057565b604051808215151515815260200191505060405180910390f35b3480156105a457600080fd5b506105ad611077565b6040518082815260200191505060405180910390f35b3480156105cf57600080fd5b506105d861107d565b005b3480156105e657600080fd5b506105ef611183565b005b3480156105fd57600080fd5b506106066112c3565b6040518082815260200191505060405180910390f35b34801561062857600080fd5b506106316112c9565b005b34801561063f57600080fd5b50610648611489565b6040518082815260200191505060405180910390f35b34801561066a57600080fd5b5061069f600480360381019080803573ffffffffffffffffffffffffffffffffffffffff16906020019092919050505061148f565b6040518082815260200191505060405180910390f35b3480156106c157600080fd5b506106f6600480360381019080803573ffffffffffffffffffffffffffffffffffffffff1690602001909291905050506114a7565b6040518082815260200191505060405180910390f35b34801561071857600080fd5b5061074d600480360381019080803573ffffffffffffffffffffffffffffffffffffffff1690602001909291905050506114bf565b005b34801561075b57600080fd5b50610764611575565b6040518082815260200191505060405180910390f35b6107ae600480360381019080803573ffffffffffffffffffffffffffffffffffffffff1690602001909291905050506108cc565b005b3480156107bc57600080fd5b506107f1600480360381019080803573ffffffffffffffffffffffffffffffffffffffff16906020019092919050505061157b565b005b3480156107ff57600080fd5b506108086115e2565b6040518082815260200191505060405180910390f35b34801561082a57600080fd5b506108336115e8565b604051808273ffffffffffffffffffffffffffffffffffffffff1673ffffffffffffffffffffffffffffffffffffffff16815260200191505060405180910390f35b34801561088157600080fd5b5061088a61160e565b604051808273ffffffffffffffffffffffffffffffffffffffff1673ffffffffffffffffffffffffffffffffffffffff16815260200191505060405180910390f35b600080600080670de0b6b3a764000093503492506000600a60008773ffffffffffffffffffffffffffffffffffffffff1673ffffffffffffffffffffffffffffffffffffffff16815260200190815260200160002054141561093757838311151561093657600080fd5b5b60009150600090506109498584611634565b61095283611684565b809350819250505060008211156109c0573373ffffffffffffffffffffffffffffffffffffffff166108fc839081150290604051600060405180830381858888f193505050501580156109a9573d6000803e3d6000fd5b506109bd828461189c90919063ffffffff16565b92505b6109d5836004546118b590919063ffffffff16565b6004819055506109e585826118d1565b8473ffffffffffffffffffffffffffffffffffffffff163373ffffffffffffffffffffffffffffffffffffffff167f623b3804fa71d67900d064613da8f94b9617215ee90799290593e1745087ad188584604051808381526020018281526020019250505060405180910390a3610a5c8584611a75565b610a6583611a79565b610a6f8584611cdf565b5050505050565b6000809054906101000a900473ffffffffffffffffffffffffffffffffffffffff1673ffffffffffffffffffffffffffffffffffffffff163373ffffffffffffffffffffffffffffffffffffffff16141515610ad157600080fd5b601060149054906101000a900460ff16151515610aed57600080fd5b4281118015610afd5750600c5481115b1515610b0857600080fd5b80600c8190555050565b6000809054906101000a900473ffffffffffffffffffffffffffffffffffffffff1673ffffffffffffffffffffffffffffffffffffffff163373ffffffffffffffffffffffffffffffffffffffff16141515610b6d57600080fd5b4281118015610b7e57506002548114155b1515610b8957600080fd5b8060028190555050565b6000600c544211905090565b6000600780549050905090565b60035481565b6000809054906101000a900473ffffffffffffffffffffffffffffffffffffffff1673ffffffffffffffffffffffffffffffffffffffff163373ffffffffffffffffffffffffffffffffffffffff16141515610c0d57600080fd5b600081111515610c1c57600080fd5b8060038190555050565b600781815481101515610c3557fe5b906000526020600020016000915054906101000a900473ffffffffffffffffffffffffffffffffffffffff1681565b600f5481565b60045481565b60065481565b600c5481565b6000809054906101000a900473ffffffffffffffffffffffffffffffffffffffff1673ffffffffffffffffffffffffffffffffffffffff163373ffffffffffffffffffffffffffffffffffffffff16141515610cd757600080fd5b601060149054906101000a900460ff16151515610cf357600080fd5b610cfb610b93565b1515610d0657600080fd5b610d0e611ce3565b7f6823b073d48d6e3a7d385eeb601452d680e74bb46afe3255a7d778f3a9b1768160405160405180910390a16001601060146101000a81548160ff021916908315150217905550565b6000809054906101000a900473ffffffffffffffffffffffffffffffffffffffff1673ffffffffffffffffffffffffffffffffffffffff163373ffffffffffffffffffffffffffffffffffffffff16141515610db257600080fd5b6000809054906101000a900473ffffffffffffffffffffffffffffffffffffffff1673ffffffffffffffffffffffffffffffffffffffff167ff8df31144d9c2f0f6b59d69b8b98abd5459d07f2742c4df920b25aae33c6482060405160405180910390a260008060006101000a81548173ffffffffffffffffffffffffffffffffffffffff021916908373ffffffffffffffffffffffffffffffffffffffff160217905550565b6000600f546004541015905090565b6000809054906101000a900473ffffffffffffffffffffffffffffffffffffffff1673ffffffffffffffffffffffffffffffffffffffff163373ffffffffffffffffffffffffffffffffffffffff16141515610ec357600080fd5b6000600860008373ffffffffffffffffffffffffffffffffffffffff1673ffffffffffffffffffffffffffffffffffffffff16815260200190815260200160002060006101000a81548160ff02191690831515021790555050565b60008060009054906101000a900473ffffffffffffffffffffffffffffffffffffffff1673ffffffffffffffffffffffffffffffffffffffff163373ffffffffffffffffffffffffffffffffffffffff16141515610f7b57600080fd5b600090505b8282905081101561101a576001600860008585858181101515610f9f57fe5b9050602002013573ffffffffffffffffffffffffffffffffffffffff1673ffffffffffffffffffffffffffffffffffffffff1673ffffffffffffffffffffffffffffffffffffffff16815260200190815260200160002060006101000a81548160ff0219169083151502179055508080600101915050610f80565b505050565b601060149054906101000a900460ff1681565b6000809054906101000a900473ffffffffffffffffffffffffffffffffffffffff1681565b60086020528060005260406000206000915054906101000a900460ff1681565b600e5481565b601060149054906101000a900460ff16151561109857600080fd5b6110a0610e59565b1515156110ac57600080fd5b601060009054906101000a900473ffffffffffffffffffffffffffffffffffffffff1673ffffffffffffffffffffffffffffffffffffffff1663fa89401a336040518263ffffffff167c0100000000000000000000000000000000000000000000000000000000028152600401808273ffffffffffffffffffffffffffffffffffffffff1673ffffffffffffffffffffffffffffffffffffffff168152602001915050600060405180830381600087803b15801561116957600080fd5b505af115801561117d573d6000803e3d6000fd5b50505050565b601060149054906101000a900460ff16151561119e57600080fd5b6000600960003373ffffffffffffffffffffffffffffffffffffffff1673ffffffffffffffffffffffffffffffffffffffff168152602001908152602001600020541115156111ec57600080fd5b601060009054906101000a900473ffffffffffffffffffffffffffffffffffffffff1673ffffffffffffffffffffffffffffffffffffffff1663fa89401a336040518263ffffffff167c0100000000000000000000000000000000000000000000000000000000028152600401808273ffffffffffffffffffffffffffffffffffffffff1673ffffffffffffffffffffffffffffffffffffffff168152602001915050600060405180830381600087803b1580156112a957600080fd5b505af11580156112bd573d6000803e3d6000fd5b50505050565b600b5481565b33600860008273ffffffffffffffffffffffffffffffffffffffff1673ffffffffffffffffffffffffffffffffffffffff16815260200190815260200160002060009054906101000a900460ff16151561132257600080fd5b61132a610e59565b151561133557600080fd5b4260025410151561134557600080fd5b601060149054906101000a900460ff16151561136057600080fd5b6000600960003373ffffffffffffffffffffffffffffffffffffffff1673ffffffffffffffffffffffffffffffffffffffff16815260200190815260200160002054101515156113af57600080fd5b6000600960003373ffffffffffffffffffffffffffffffffffffffff1673ffffffffffffffffffffffffffffffffffffffff1681526020019081526020016000205411156114865761144033600960003373ffffffffffffffffffffffffffffffffffffffff1673ffffffffffffffffffffffffffffffffffffffff16815260200190815260200160002054611e34565b6000600960003373ffffffffffffffffffffffffffffffffffffffff1673ffffffffffffffffffffffffffffffffffffffff168152602001908152602001600020819055505b50565b600d5481565b60096020528060005260406000206000915090505481565b600a6020528060005260406000206000915090505481565b6000809054906101000a900473ffffffffffffffffffffffffffffffffffffffff1673ffffffffffffffffffffffffffffffffffffffff163373ffffffffffffffffffffffffffffffffffffffff1614151561151a57600080fd5b6001600860008373ffffffffffffffffffffffffffffffffffffffff1673ffffffffffffffffffffffffffffffffffffffff16815260200190815260200160002060006101000a81548160ff02191690831515021790555050565b60055481565b6000809054906101000a900473ffffffffffffffffffffffffffffffffffffffff1673ffffffffffffffffffffffffffffffffffffffff163373ffffffffffffffffffffffffffffffffffffffff161415156115d657600080fd5b6115df81611f39565b50565b60025481565b601060009054906101000a900473ffffffffffffffffffffffffffffffffffffffff1681565b600160009054906101000a900473ffffffffffffffffffffffffffffffffffffffff1681565b600073ffffffffffffffffffffffffffffffffffffffff168273ffffffffffffffffffffffffffffffffffffffff161415151561167057600080fd5b6000811415151561168057600080fd5b5050565b6000806000806000806000600160009054906101000a900473ffffffffffffffffffffffffffffffffffffffff1673ffffffffffffffffffffffffffffffffffffffff166370a08231306040518263ffffffff167c0100000000000000000000000000000000000000000000000000000000028152600401808273ffffffffffffffffffffffffffffffffffffffff1673ffffffffffffffffffffffffffffffffffffffff168152602001915050602060405180830381600087803b15801561174c57600080fd5b505af1158015611760573d6000803e3d6000fd5b505050506040513d602081101561177657600080fd5b8101908080519060200190929190505050600d81905550600094506000935087925060009150600090506a4d8c55aefb8c05b5c00000600e541015156117bb57600080fd5b60035491506117d3828461203390919063ffffffff16565b90506117ea81600e546118b590919063ffffffff16565b600e81905550611806600a60035461204990919063ffffffff16565b915061181e601060035461203390919063ffffffff16565b9150611833828461203390919063ffffffff16565b935061185a61184b838661204990919063ffffffff16565b8461189c90919063ffffffff16565b925061186f84866118b590919063ffffffff16565b945061188684600d5461189c90919063ffffffff16565b600d819055508483965096505050505050915091565b60008282111515156118aa57fe5b818303905092915050565b600081830190508281101515156118c857fe5b80905092915050565b81600860008273ffffffffffffffffffffffffffffffffffffffff1673ffffffffffffffffffffffffffffffffffffffff16815260200190815260200160002060009054906101000a900460ff16151561192a57600080fd5b600b54421015801561193e5750600c544211155b151561194957600080fd5b6000600960008573ffffffffffffffffffffffffffffffffffffffff1673ffffffffffffffffffffffffffffffffffffffff1681526020019081526020016000205414156119da5781600960008573ffffffffffffffffffffffffffffffffffffffff1673ffffffffffffffffffffffffffffffffffffffff16815260200190815260200160002081905550611a70565b611a2c82600960008673ffffffffffffffffffffffffffffffffffffffff1673ffffffffffffffffffffffffffffffffffffffff168152602001908152602001600020546118b590919063ffffffff16565b600960008573ffffffffffffffffffffffffffffffffffffffff1673ffffffffffffffffffffffffffffffffffffffff168152602001908152602001600020819055505b505050565b5050565b601060009054906101000a900473ffffffffffffffffffffffffffffffffffffffff1673ffffffffffffffffffffffffffffffffffffffff1663f340fa0182336040518363ffffffff167c0100000000000000000000000000000000000000000000000000000000028152600401808273ffffffffffffffffffffffffffffffffffffffff1673ffffffffffffffffffffffffffffffffffffffff1681526020019150506000604051808303818588803b158015611b3657600080fd5b505af1158015611b4a573d6000803e3d6000fd5b50505050506000600a60003373ffffffffffffffffffffffffffffffffffffffff1673ffffffffffffffffffffffffffffffffffffffff168152602001908152602001600020541415611be05780600a60003373ffffffffffffffffffffffffffffffffffffffff1673ffffffffffffffffffffffffffffffffffffffff16815260200190815260200160002081905550611c76565b611c3281600a60003373ffffffffffffffffffffffffffffffffffffffff1673ffffffffffffffffffffffffffffffffffffffff168152602001908152602001600020546118b590919063ffffffff16565b600a60003373ffffffffffffffffffffffffffffffffffffffff1673ffffffffffffffffffffffffffffffffffffffff168152602001908152602001600020819055505b60073390806001815401808255809150509060018203906000526020600020016000909192909190916101000a81548173ffffffffffffffffffffffffffffffffffffffff021916908373ffffffffffffffffffffffffffffffffffffffff1602179055505050565b5050565b611ceb610e59565b15611d9357601060009054906101000a900473ffffffffffffffffffffffffffffffffffffffff1673ffffffffffffffffffffffffffffffffffffffff166343d726d66040518163ffffffff167c0100000000000000000000000000000000000000000000000000000000028152600401600060405180830381600087803b158015611d7657600080fd5b505af1158015611d8a573d6000803e3d6000fd5b50505050611e32565b601060009054906101000a900473ffffffffffffffffffffffffffffffffffffffff1673ffffffffffffffffffffffffffffffffffffffff16638c52dc416040518163ffffffff167c0100000000000000000000000000000000000000000000000000000000028152600401600060405180830381600087803b158015611e1957600080fd5b505af1158015611e2d573d6000803e3d6000fd5b505050505b565b600160009054906101000a900473ffffffffffffffffffffffffffffffffffffffff1673ffffffffffffffffffffffffffffffffffffffff1663a9059cbb83836040518363ffffffff167c0100000000000000000000000000000000000000000000000000000000028152600401808373ffffffffffffffffffffffffffffffffffffffff1673ffffffffffffffffffffffffffffffffffffffff16815260200182815260200192505050602060405180830381600087803b158015611ef957600080fd5b505af1158015611f0d573d6000803e3d6000fd5b505050506040513d6020811015611f2357600080fd5b8101908080519060200190929190505050505050565b600073ffffffffffffffffffffffffffffffffffffffff168173ffffffffffffffffffffffffffffffffffffffff1614151515611f7557600080fd5b8073ffffffffffffffffffffffffffffffffffffffff166000809054906101000a900473ffffffffffffffffffffffffffffffffffffffff1673ffffffffffffffffffffffffffffffffffffffff167f8be0079c531659141344cd1fd0a4f28419497f9722a3daafe3b4186f6b6457e060405160405180910390a3806000806101000a81548173ffffffffffffffffffffffffffffffffffffffff021916908373ffffffffffffffffffffffffffffffffffffffff16021790555050565b6000818381151561204057fe5b04905092915050565b60008083141561205c576000905061207b565b818302905081838281151561206d57fe5b0414151561207757fe5b8090505b929150505600a165627a7a723058205e470261ef90a361ca32d917e9c263773d3dca9832cc9e5652a887f1f81de1d00029608060405234801561001057600080fd5b50604051602080610beb83398101806040528101908080519060200190929190505050336000806101000a81548173ffffffffffffffffffffffffffffffffffffffff021916908373ffffffffffffffffffffffffffffffffffffffff160217905550600073ffffffffffffffffffffffffffffffffffffffff168173ffffffffffffffffffffffffffffffffffffffff16141515156100af57600080fd5b80600260006101000a81548173ffffffffffffffffffffffffffffffffffffffff021916908373ffffffffffffffffffffffffffffffffffffffff1602179055506000600260146101000a81548160ff0219169083600281111561010f57fe5b021790555050610ac7806101246000396000f3006080604052600436106100a4576000357c0100000000000000000000000000000000000000000000000000000000900463ffffffff16806343d726d6146100a9578063521eb273146100c0578063715018a6146101175780638c52dc411461012e5780638da5cb5b14610145578063c19d93fb1461019c578063cb13cddb146101d5578063f2fde38b1461022c578063f340fa011461026f578063fa89401a146102a5575b600080fd5b3480156100b557600080fd5b506100be6102e8565b005b3480156100cc57600080fd5b506100d5610448565b604051808273ffffffffffffffffffffffffffffffffffffffff1673ffffffffffffffffffffffffffffffffffffffff16815260200191505060405180910390f35b34801561012357600080fd5b5061012c61046e565b005b34801561013a57600080fd5b50610143610570565b005b34801561015157600080fd5b5061015a610651565b604051808273ffffffffffffffffffffffffffffffffffffffff1673ffffffffffffffffffffffffffffffffffffffff16815260200191505060405180910390f35b3480156101a857600080fd5b506101b1610676565b604051808260028111156101c157fe5b60ff16815260200191505060405180910390f35b3480156101e157600080fd5b50610216600480360381019080803573ffffffffffffffffffffffffffffffffffffffff169060200190929190505050610689565b6040518082815260200191505060405180910390f35b34801561023857600080fd5b5061026d600480360381019080803573ffffffffffffffffffffffffffffffffffffffff1690602001909291905050506106a1565b005b6102a3600480360381019080803573ffffffffffffffffffffffffffffffffffffffff169060200190929190505050610708565b005b3480156102b157600080fd5b506102e6600480360381019080803573ffffffffffffffffffffffffffffffffffffffff16906020019092919050505061082f565b005b6000809054906101000a900473ffffffffffffffffffffffffffffffffffffffff1673ffffffffffffffffffffffffffffffffffffffff163373ffffffffffffffffffffffffffffffffffffffff1614151561034357600080fd5b6000600281111561035057fe5b600260149054906101000a900460ff16600281111561036b57fe5b14151561037757600080fd5b60028060146101000a81548160ff0219169083600281111561039557fe5b02179055507f1cdde67b72a90f19919ac732a437ac2f7a10fc128d28c2a6e525d89ce5cd9d3a60405160405180910390a1600260009054906101000a900473ffffffffffffffffffffffffffffffffffffffff1673ffffffffffffffffffffffffffffffffffffffff166108fc3073ffffffffffffffffffffffffffffffffffffffff16319081150290604051600060405180830381858888f19350505050158015610445573d6000803e3d6000fd5b50565b600260009054906101000a900473ffffffffffffffffffffffffffffffffffffffff1681565b6000809054906101000a900473ffffffffffffffffffffffffffffffffffffffff1673ffffffffffffffffffffffffffffffffffffffff163373ffffffffffffffffffffffffffffffffffffffff161415156104c957600080fd5b6000809054906101000a900473ffffffffffffffffffffffffffffffffffffffff1673ffffffffffffffffffffffffffffffffffffffff167ff8df31144d9c2f0f6b59d69b8b98abd5459d07f2742c4df920b25aae33c6482060405160405180910390a260008060006101000a81548173ffffffffffffffffffffffffffffffffffffffff021916908373ffffffffffffffffffffffffffffffffffffffff160217905550565b6000809054906101000a900473ffffffffffffffffffffffffffffffffffffffff1673ffffffffffffffffffffffffffffffffffffffff163373ffffffffffffffffffffffffffffffffffffffff161415156105cb57600080fd5b600060028111156105d857fe5b600260149054906101000a900460ff1660028111156105f357fe5b1415156105ff57600080fd5b6001600260146101000a81548160ff0219169083600281111561061e57fe5b02179055507f599d8e5a83cffb867d051598c4d70e805d59802d8081c1c7d6dffc5b6aca2b8960405160405180910390a1565b6000809054906101000a900473ffffffffffffffffffffffffffffffffffffffff1681565b600260149054906101000a900460ff1681565b60016020528060005260406000206000915090505481565b6000809054906101000a900473ffffffffffffffffffffffffffffffffffffffff1673ffffffffffffffffffffffffffffffffffffffff163373ffffffffffffffffffffffffffffffffffffffff161415156106fc57600080fd5b61070581610985565b50565b6000809054906101000a900473ffffffffffffffffffffffffffffffffffffffff1673ffffffffffffffffffffffffffffffffffffffff163373ffffffffffffffffffffffffffffffffffffffff1614151561076357600080fd5b6000600281111561077057fe5b600260149054906101000a900460ff16600281111561078b57fe5b14151561079757600080fd5b6107e934600160008473ffffffffffffffffffffffffffffffffffffffff1673ffffffffffffffffffffffffffffffffffffffff16815260200190815260200160002054610a7f90919063ffffffff16565b600160008373ffffffffffffffffffffffffffffffffffffffff1673ffffffffffffffffffffffffffffffffffffffff1681526020019081526020016000208190555050565b60006001600281111561083e57fe5b600260149054906101000a900460ff16600281111561085957fe5b14151561086557600080fd5b600160008373ffffffffffffffffffffffffffffffffffffffff1673ffffffffffffffffffffffffffffffffffffffff1681526020019081526020016000205490506000600160008473ffffffffffffffffffffffffffffffffffffffff1673ffffffffffffffffffffffffffffffffffffffff168152602001908152602001600020819055508173ffffffffffffffffffffffffffffffffffffffff166108fc829081150290604051600060405180830381858888f19350505050158015610932573d6000803e3d6000fd5b508173ffffffffffffffffffffffffffffffffffffffff167fd7dee2702d63ad89917b6a4da9981c90c4d24f8c2bdfd64c604ecae57d8d0651826040518082815260200191505060405180910390a25050565b600073ffffffffffffffffffffffffffffffffffffffff168173ffffffffffffffffffffffffffffffffffffffff16141515156109c157600080fd5b8073ffffffffffffffffffffffffffffffffffffffff166000809054906101000a900473ffffffffffffffffffffffffffffffffffffffff1673ffffffffffffffffffffffffffffffffffffffff167f8be0079c531659141344cd1fd0a4f28419497f9722a3daafe3b4186f6b6457e060405160405180910390a3806000806101000a81548173ffffffffffffffffffffffffffffffffffffffff021916908373ffffffffffffffffffffffffffffffffffffffff16021790555050565b60008183019050828110151515610a9257fe5b809050929150505600a165627a7a72305820030c8176dc8541850693ca9089fc094d569f2a4c24481ec70767ec52f5ae9e6b0029",
  "source": "pragma solidity ^0.4.23;\r\n\r\nimport \"./BitcademyToken.sol\";\r\nimport \"./RefundVault.sol\";\r\nimport \"openzeppelin-solidity/contracts/ownership/Ownable.sol\";\r\n\r\n/**\r\n * @title Crowdsale\r\n * @dev Crowdsale is a base contract for managing a token crowdsale,\r\n * allowing investors to purchase tokens with ether. This contract implements\r\n * such functionality in its most fundamental form and can be extended to provide additional\r\n * functionality and/or custom behavior.\r\n * The external interface represents the basic interface for purchasing tokens, and conform\r\n * the base architecture for crowdsales. They are *not* intended to be modified / overriden.\r\n * The internal interface conforms the extensible and modifiable surface of crowdsales. Override\r\n * the methods to add functionality. Consider using 'super' where appropiate to concatenate\r\n * behavior.\r\n */\r\ncontract Crowdsale is Ownable{\r\n  using SafeMath for uint256;\r\n\r\n  // The token being sold\r\n  BitcademyToken public token;\r\n\r\n  // Address where funds are collected\r\n  //address public wallet;\r\n   //address public _multi_sig_wallet = 0xc5384F3d5602eC5F52e50F28e650685E9c5F3016;\r\n\r\n    //custom release date\r\n   uint256 public release_date = 1556582400;\r\n  // No of Tokens per Ether\r\n  uint256 public rate;\r\n\r\n  // Amount of wei raised\r\n  uint256 public weiRaised;\r\n\r\n\r\n  //amount of tokens to be sold for Private Sale preICO\r\n  uint256 public supply_cap = 150000000*(10**18);\r\n  // maximum token selleable without bonuses\r\n  uint256 public minimumTokens = 93750000*(10**18);\r\n\r\n\r\n  address[] public investors;\r\n\r\n\r\n\r\n  mapping(address => bool) public whitelist;\r\n  mapping (address => uint256) public tokenToClaim;\r\n  //mapping(address => uint256) public salesTimes;\r\n// amount invested by the investor\r\n   mapping (address => uint256) public investedAmount;\r\n\r\n  uint256 public openingTime;\r\n  uint256 public closingTime;\r\n\r\n  // Remaining tokens which are yet to be sold\r\n  uint256 public remainingTokens;\r\n\r\n  // Tokens sold excluding bonus\r\n  uint256 public tokenSoldExcludeBonus;\r\n\r\n  // minimum amount of funds to be raised in weis\r\n  uint256 public goal;\r\n\r\n  // refund vault used to hold funds while crowdsale is running\r\n  RefundVault public vault;\r\n\r\n  /**\r\n   * @dev Reverts if beneficiary is not whitelisted. Can be used when extending this contract.\r\n   */\r\n  modifier isWhitelisted(address _beneficiary) {\r\n    require(whitelist[_beneficiary]);\r\n    _;\r\n  }\r\n\r\n  /**\r\n   * @dev Reverts if not in crowdsale time range.\r\n   */\r\n  modifier onlyWhileOpen {\r\n    // solium-disable-next-line security/no-block-members\r\n    require(block.timestamp >= openingTime && block.timestamp <= closingTime);\r\n    _;\r\n  }\r\n\r\n\r\n\r\n\r\n  bool public isFinalized = false;\r\n\r\n  event Finalized();\r\n\r\n  /**\r\n   * @dev Must be called after crowdsale ends, to do some extra finalization\r\n   * work. Calls the contract's finalization function.\r\n   */\r\n  function finalize() onlyOwner public {\r\n    require(!isFinalized);\r\n    require(hasClosed());\r\n\r\n    finalization();\r\n    emit Finalized();\r\n\r\n    isFinalized = true;\r\n  }\r\n\r\n  /**\r\n   * @dev Investors can claim refunds here if crowdsale is unsuccessful\r\n   */\r\n  function claimRefund() public {\r\n    require(isFinalized);\r\n    require(!goalReached());\r\n\r\n    vault.refund(msg.sender);\r\n  }\r\n\r\n  /**\r\n   * @dev  Investors can claim refunds here if they are  blacklisted\r\n   */\r\n  function blacklistClaimRefund() public {\r\n    require(isFinalized);\r\n    require(tokenToClaim[msg.sender] > 0);\r\n    vault.refund(msg.sender);\r\n  }\r\n\r\n  /**\r\n   * @dev Checks whether funding goal was reached.\r\n   * @return Whether funding goal was reached\r\n   */\r\n  function goalReached() public view returns (bool) {\r\n    return weiRaised >= goal;\r\n  }\r\n\r\n\r\n\r\n  /**\r\n   * @dev vault finalization task, called when owner calls finalize()\r\n   */\r\n  function finalization() internal {\r\n    if (goalReached()) {\r\n      vault.close();\r\n    } else {\r\n      vault.enableRefunds();\r\n    }\r\n  }\r\n\r\n  /**\r\n   * Event for token purchase logging\r\n   * @param purchaser who paid for the tokens\r\n   * @param beneficiary who got the tokens\r\n   * @param value weis paid for purchase\r\n   * @param amount amount of tokens purchased\r\n   */\r\n  event TokenPurchase(\r\n    address indexed purchaser,\r\n    address indexed beneficiary,\r\n    uint256 value,\r\n    uint256 amount\r\n  );\r\n\r\n  /**\r\n   * @param _rate No of tokens per ether\r\n   * @param _multi_sig_wallet Address where collected funds will be forwarded to\r\n   * @param _goal the  token soft cap\r\n   */\r\n  constructor(uint256 _rate , BitcademyToken _token, uint256 _openingTime, uint256 _closingTime, address _multi_sig_wallet, uint256 _goal) public {\r\n    require(_rate > 0);\r\n    require(_multi_sig_wallet != address(0));\r\n    require(_token != address(0));\r\n    require(_openingTime >= block.timestamp);\r\n    require(_closingTime >= _openingTime);\r\n    require(_goal > 0);\r\n\r\n    vault = new RefundVault(_multi_sig_wallet);\r\n    goal = _goal;\r\n    rate = _rate;\r\n    token = _token;\r\n    openingTime = _openingTime;\r\n    closingTime = _closingTime;\r\n}\r\n  // -----------------------------------------\r\n  // Crowdsale external interface\r\n  // -----------------------------------------\r\n\r\n  /**\r\n   * @dev fallback function ***DO NOT OVERRIDE***\r\n   */\r\n  function () external payable {\r\n    buyTokens(msg.sender);\r\n  }\r\n\r\n  /**\r\n   * @dev low level token purchase ***DO NOT OVERRIDE***\r\n   * @param _beneficiary Address performing the token purchase\r\n   */\r\n  function buyTokens(address _beneficiary) public payable {\r\n    uint256 mimimumInvestment = 10**18;\r\n    uint256 weiAmount = msg.value;\r\n    if (investedAmount[_beneficiary] == 0){\r\n      require(weiAmount > mimimumInvestment);\r\n    }\r\n\r\n    uint256 refundWeiAmt = 0;\r\n    uint256 tokens = 0;\r\n    _preValidatePurchase(_beneficiary, weiAmount);\r\n\r\n    // calculate token amount to be delivered\r\n     (tokens, refundWeiAmt) = _getTokenAmount(weiAmount);\r\n\r\n    /* If the remaining tokens are less than tokens calculated above\r\n     * proceed with purchase of remaining tokens and refund the remaining ethers\r\n     * to the caller\r\n     */\r\n    if(refundWeiAmt > 0) {\r\n      msg.sender.transfer(refundWeiAmt);\r\n      weiAmount = weiAmount.sub(refundWeiAmt);\r\n    }\r\n\r\n    // update state\r\n    weiRaised = weiRaised.add(weiAmount);\r\n\r\n    _processPurchase(_beneficiary, tokens);\r\n    emit TokenPurchase(\r\n      msg.sender,\r\n      _beneficiary,\r\n      weiAmount,\r\n      tokens\r\n    );\r\n\r\n    _updatePurchasingState(_beneficiary, weiAmount);\r\n    _forwardFunds(weiAmount);\r\n    _postValidatePurchase(_beneficiary, weiAmount);\r\n  }\r\n\r\n  /**\r\n   * @dev Adds single address to whitelist.\r\n   * @param _beneficiary Address to be added to the whitelist\r\n   */\r\n  function addToWhitelist(address _beneficiary) external onlyOwner {\r\n    whitelist[_beneficiary] = true;\r\n  }\r\n\r\n  /**\r\n   * @dev Adds list of addresses to whitelist. Not overloaded due to limitations with truffle testing.\r\n   * @param _beneficiaries Addresses to be added to the whitelist\r\n   */\r\n  function addManyToWhitelist(address[] _beneficiaries) external onlyOwner {\r\n    for (uint256 i = 0; i < _beneficiaries.length; i++) {\r\n      whitelist[_beneficiaries[i]] = true;\r\n    }\r\n  }\r\n\r\n  /**\r\n   * @dev Removes single address from whitelist.\r\n   * @param _beneficiary Address to be removed to the whitelist\r\n   */\r\n  function removeFromWhitelist(address _beneficiary) external onlyOwner {\r\n    whitelist[_beneficiary] = false;\r\n  }\r\n\r\n  /**\r\n   * @dev Checks whether the period in which the crowdsale is open has already elapsed.\r\n   * @return Whether crowdsale period has elapsed\r\n   */\r\n  function hasClosed() public view returns (bool) {\r\n    // solium-disable-next-line security/no-block-members\r\n    return block.timestamp > closingTime;\r\n  }\r\n\r\n  // -----------------------------------------\r\n  // Internal interface (extensible)\r\n  // -----------------------------------------\r\n\r\n  /**\r\n   * @dev Validation of an incoming purchase. Use require statements to revert state when conditions are not met. Use super to concatenate validations.\r\n   * @param _beneficiary Address performing the token purchase\r\n   * @param _weiAmount Value in wei involved in the purchase\r\n   */\r\n  function _preValidatePurchase(\r\n    address _beneficiary,\r\n    uint256 _weiAmount\r\n  )\r\n    internal\r\n  {\r\n    require(_beneficiary != address(0));\r\n    require(_weiAmount != 0);\r\n  }\r\n\r\n  /**\r\n   * @dev Validation of an executed purchase. Observe state and use revert statements to undo rollback when valid conditions are not met.\r\n   * @param _beneficiary Address performing the token purchase\r\n   * @param _weiAmount Value in wei involved in the purchase\r\n   */\r\n  function _postValidatePurchase(\r\n    address _beneficiary,\r\n    uint256 _weiAmount\r\n  )\r\n    internal\r\n  {\r\n    // optional override\r\n  }\r\n\r\n  /**\r\n   * @dev Source of tokens. Override this method to modify the way in which the crowdsale ultimately gets and sends its tokens.\r\n   * @param _beneficiary Address performing the token purchase\r\n   * @param _tokenAmount Number of tokens to be emitted\r\n   */\r\n  function _deliverTokens(\r\n    address _beneficiary,\r\n    uint256 _tokenAmount\r\n  )\r\n    internal\r\n  {\r\n    token.transfer(_beneficiary, _tokenAmount);\r\n\r\n  }\r\n\r\n  /**\r\n   * @dev Executed when a purchase has been validated and is ready to be executed. Not necessarily emits/sends tokens.\r\n   * @param _beneficiary Address receiving the tokens\r\n   * @param _tokenAmount Number of tokens to be purchased\r\n   */\r\n  function _processPurchase(\r\n    address _beneficiary,\r\n    uint256 _tokenAmount\r\n  )\r\n    internal\r\n    isWhitelisted(_beneficiary)\r\n    onlyWhileOpen\r\n  {\r\n    //_deliverTokens(_beneficiary, _tokenAmount);\r\n    if (tokenToClaim[_beneficiary] == 0){\r\n    tokenToClaim[_beneficiary] = _tokenAmount;\r\n    }\r\n    else{\r\n      tokenToClaim[_beneficiary] = tokenToClaim[_beneficiary].add(_tokenAmount);\r\n    }\r\n  }\r\n\r\n  /**\r\n   * @dev Override for extensions that require an internal state to check for validity (current user contributions, etc.)\r\n   * @param _beneficiary Address receiving the tokens\r\n   * @param _weiAmount Value in wei involved in the purchase\r\n   */\r\n  function _updatePurchasingState(\r\n    address _beneficiary,\r\n    uint256 _weiAmount\r\n  )\r\n    internal\r\n  {\r\n    // optional override\r\n  }\r\n\r\n  /**\r\n   * @dev Override to extend the way in which ether is converted to tokens.\r\n   * @param _weiAmount Value in wei to be converted into tokens\r\n   * @return Token price in weis\r\n   */\r\n  function _getTokenAmount(uint256 _weiAmount)\r\n    internal  returns (uint256, uint256)\r\n  {\r\n    remainingTokens =  token.balanceOf(this);\r\n    uint256 noOfTokens = 0;\r\n    uint256 tokensInCondition = 0;\r\n    uint256 weiAmount  = _weiAmount;\r\n    uint256 currentRate = 0;\r\n    uint256 tokensMinusBonus = 0;\r\n    require(tokenSoldExcludeBonus < 93750000*(10**18));\r\n     currentRate = rate;\r\n      tokensMinusBonus = weiAmount.div(currentRate);\r\n      tokenSoldExcludeBonus = tokenSoldExcludeBonus.add(tokensMinusBonus);\r\n      currentRate = rate.mul(10);\r\n      currentRate = rate.div(16);\r\n      tokensInCondition = weiAmount.div(currentRate);\r\n      weiAmount = weiAmount.sub(tokensInCondition.mul(currentRate));\r\n      noOfTokens = noOfTokens.add(tokensInCondition);\r\n      remainingTokens = remainingTokens.sub(tokensInCondition);\r\n\r\n    return (noOfTokens, weiAmount);\r\n  }\r\n\r\n  /**\r\n   * @dev Determines how ETH is stored/forwarded on purchases.\r\n   */\r\n  function _forwardFunds(uint256 _value) internal {\r\n    vault.deposit.value(_value)(msg.sender);\r\n    if (investedAmount[msg.sender] == 0){\r\n      investedAmount[msg.sender] = _value;\r\n    }\r\n    else {\r\n      investedAmount[msg.sender] = investedAmount[msg.sender].add(_value);\r\n    }\r\n\r\n    investors.push(msg.sender);\r\n  }\r\n   /**\r\n   * @dev Set the exchange rate of the token\r\n   */\r\n  function setRate(uint256 _rate) public onlyOwner{\r\n    require(_rate > 0);\r\n    rate = _rate;\r\n  }\r\n\r\n   /**\r\n   * @dev calculate the number of investors in crowdsale\r\n   */\r\n\r\n  function investorsCount() public constant returns (uint) {\r\n    return investors.length;\r\n  }\r\n\r\n    /**\r\n   * @dev Allow investors to withdraw their tokens after the mainsale is done\r\n   */\r\n\r\n  function withdrawAfterMainSale() isWhitelisted(msg.sender) public {\r\n    require(goalReached());\r\n    require(release_date < now);\r\n    require(isFinalized);\r\n    require(tokenToClaim[msg.sender] >= 0);\r\n      if (tokenToClaim[msg.sender] > 0) {\r\n         _deliverTokens(msg.sender, tokenToClaim[msg.sender]);\r\n         tokenToClaim[msg.sender] = 0;\r\n      }\r\n  }\r\n\r\n    /**\r\n   * @dev Update the release date of purchased tokens\r\n   */\r\n\r\n  function updateReleaseDate(uint256 _new_release_date) onlyOwner public{\r\n    require( _new_release_date > now &&  _new_release_date != release_date);\r\n     release_date = _new_release_date;\r\n    }\r\n\r\n      /**\r\n   * @dev Update the close date of crowdsale\r\n   */\r\n\r\n    function adjustCloseDate(uint256 _new_close_date) onlyOwner public{\r\n    require(!isFinalized);\r\n    require( _new_close_date > now &&  _new_close_date > closingTime );\r\n     closingTime = _new_close_date;\r\n    }\r\n}\r\n",
  "sourcePath": "/home/kevin/BitCademy/Bitcademy_ICO/contracts/PreICOBitcademyGold.sol",
  "compiler": {
    "name": "solc",
    "version": "0.4.24+commit.e67f0147.Emscripten.clang"
  },
  "schemaVersion": "2.0.1",
  "updatedAt": "2018-11-05T21:14:34.804Z"
}