{
  "contractName": "PreICOBitcademyGold",
  "abi": [
    {
      "constant": true,
      "inputs": [],
      "name": "rate",
      "outputs": [
        {
          "name": "",
          "type": "uint256"
        }
      ],
      "payable": false,
      "stateMutability": "view",
      "type": "function"
    },
    {
      "constant": true,
      "inputs": [
        {
          "name": "",
          "type": "uint256"
        }
      ],
      "name": "investors",
      "outputs": [
        {
          "name": "",
          "type": "address"
        }
      ],
      "payable": false,
      "stateMutability": "view",
      "type": "function"
    },
    {
      "constant": true,
      "inputs": [],
      "name": "goal",
      "outputs": [
        {
          "name": "",
          "type": "uint256"
        }
      ],
      "payable": false,
      "stateMutability": "view",
      "type": "function"
    },
    {
      "constant": true,
      "inputs": [],
      "name": "weiRaised",
      "outputs": [
        {
          "name": "",
          "type": "uint256"
        }
      ],
      "payable": false,
      "stateMutability": "view",
      "type": "function"
    },
    {
      "constant": true,
      "inputs": [],
      "name": "minimumTokens",
      "outputs": [
        {
          "name": "",
          "type": "uint256"
        }
      ],
      "payable": false,
      "stateMutability": "view",
      "type": "function"
    },
    {
      "constant": true,
      "inputs": [],
      "name": "closingTime",
      "outputs": [
        {
          "name": "",
          "type": "uint256"
        }
      ],
      "payable": false,
      "stateMutability": "view",
      "type": "function"
    },
    {
      "constant": false,
      "inputs": [],
      "name": "renounceOwnership",
      "outputs": [],
      "payable": false,
      "stateMutability": "nonpayable",
      "type": "function"
    },
    {
      "constant": true,
      "inputs": [],
      "name": "isFinalized",
      "outputs": [
        {
          "name": "",
          "type": "bool"
        }
      ],
      "payable": false,
      "stateMutability": "view",
      "type": "function"
    },
    {
      "constant": true,
      "inputs": [],
      "name": "owner",
      "outputs": [
        {
          "name": "",
          "type": "address"
        }
      ],
      "payable": false,
      "stateMutability": "view",
      "type": "function"
    },
    {
      "constant": true,
      "inputs": [
        {
          "name": "",
          "type": "address"
        }
      ],
      "name": "whitelist",
      "outputs": [
        {
          "name": "",
          "type": "bool"
        }
      ],
      "payable": false,
      "stateMutability": "view",
      "type": "function"
    },
    {
      "constant": true,
      "inputs": [],
      "name": "tokenSoldExcludeBonus",
      "outputs": [
        {
          "name": "",
          "type": "uint256"
        }
      ],
      "payable": false,
      "stateMutability": "view",
      "type": "function"
    },
    {
      "constant": true,
      "inputs": [],
      "name": "totalTokenSold",
      "outputs": [
        {
          "name": "",
          "type": "uint256"
        }
      ],
      "payable": false,
      "stateMutability": "view",
      "type": "function"
    },
    {
      "constant": true,
      "inputs": [],
      "name": "openingTime",
      "outputs": [
        {
          "name": "",
          "type": "uint256"
        }
      ],
      "payable": false,
      "stateMutability": "view",
      "type": "function"
    },
    {
      "constant": true,
      "inputs": [],
      "name": "remainingTokens",
      "outputs": [
        {
          "name": "",
          "type": "uint256"
        }
      ],
      "payable": false,
      "stateMutability": "view",
      "type": "function"
    },
    {
      "constant": true,
      "inputs": [
        {
          "name": "",
          "type": "address"
        }
      ],
      "name": "tokenToClaim",
      "outputs": [
        {
          "name": "",
          "type": "uint256"
        }
      ],
      "payable": false,
      "stateMutability": "view",
      "type": "function"
    },
    {
      "constant": true,
      "inputs": [
        {
          "name": "",
          "type": "address"
        }
      ],
      "name": "investedAmount",
      "outputs": [
        {
          "name": "",
          "type": "uint256"
        }
      ],
      "payable": false,
      "stateMutability": "view",
      "type": "function"
    },
    {
      "constant": true,
      "inputs": [],
      "name": "supply_cap",
      "outputs": [
        {
          "name": "",
          "type": "uint256"
        }
      ],
      "payable": false,
      "stateMutability": "view",
      "type": "function"
    },
    {
      "constant": false,
      "inputs": [
        {
          "name": "_newOwner",
          "type": "address"
        }
      ],
      "name": "transferOwnership",
      "outputs": [],
      "payable": false,
      "stateMutability": "nonpayable",
      "type": "function"
    },
    {
      "constant": true,
      "inputs": [],
      "name": "release_date",
      "outputs": [
        {
          "name": "",
          "type": "uint256"
        }
      ],
      "payable": false,
      "stateMutability": "view",
      "type": "function"
    },
    {
      "constant": true,
      "inputs": [],
      "name": "vault",
      "outputs": [
        {
          "name": "",
          "type": "address"
        }
      ],
      "payable": false,
      "stateMutability": "view",
      "type": "function"
    },
    {
      "constant": true,
      "inputs": [],
      "name": "token",
      "outputs": [
        {
          "name": "",
          "type": "address"
        }
      ],
      "payable": false,
      "stateMutability": "view",
      "type": "function"
    },
    {
      "inputs": [
        {
          "name": "_rate",
          "type": "uint256"
        },
        {
          "name": "_token",
          "type": "address"
        },
        {
          "name": "_openingTime",
          "type": "uint256"
        },
        {
          "name": "_closingTime",
          "type": "uint256"
        },
        {
          "name": "_multi_sig_wallet",
          "type": "address"
        },
        {
          "name": "_goal",
          "type": "uint256"
        }
      ],
      "payable": false,
      "stateMutability": "nonpayable",
      "type": "constructor"
    },
    {
      "payable": true,
      "stateMutability": "payable",
      "type": "fallback"
    },
    {
      "anonymous": false,
      "inputs": [],
      "name": "Finalized",
      "type": "event"
    },
    {
      "anonymous": false,
      "inputs": [
        {
          "indexed": true,
          "name": "purchaser",
          "type": "address"
        },
        {
          "indexed": true,
          "name": "beneficiary",
          "type": "address"
        },
        {
          "indexed": false,
          "name": "value",
          "type": "uint256"
        },
        {
          "indexed": false,
          "name": "amount",
          "type": "uint256"
        }
      ],
      "name": "TokenPurchase",
      "type": "event"
    },
    {
      "anonymous": false,
      "inputs": [
        {
          "indexed": true,
          "name": "previousOwner",
          "type": "address"
        }
      ],
      "name": "OwnershipRenounced",
      "type": "event"
    },
    {
      "anonymous": false,
      "inputs": [
        {
          "indexed": true,
          "name": "previousOwner",
          "type": "address"
        },
        {
          "indexed": true,
          "name": "newOwner",
          "type": "address"
        }
      ],
      "name": "OwnershipTransferred",
      "type": "event"
    },
    {
      "constant": false,
      "inputs": [],
      "name": "finalize",
      "outputs": [],
      "payable": false,
      "stateMutability": "nonpayable",
      "type": "function"
    },
    {
      "constant": true,
      "inputs": [],
      "name": "goalReached",
      "outputs": [
        {
          "name": "",
          "type": "bool"
        }
      ],
      "payable": false,
      "stateMutability": "view",
      "type": "function"
    },
    {
      "constant": false,
      "inputs": [
        {
          "name": "_beneficiary",
          "type": "address"
        }
      ],
      "name": "buyTokens",
      "outputs": [],
      "payable": true,
      "stateMutability": "payable",
      "type": "function"
    },
    {
      "constant": false,
      "inputs": [
        {
          "name": "_beneficiary",
          "type": "address"
        }
      ],
      "name": "addToWhitelist",
      "outputs": [],
      "payable": false,
      "stateMutability": "nonpayable",
      "type": "function"
    },
    {
      "constant": false,
      "inputs": [
        {
          "name": "_beneficiaries",
          "type": "address[]"
        }
      ],
      "name": "addManyToWhitelist",
      "outputs": [],
      "payable": false,
      "stateMutability": "nonpayable",
      "type": "function"
    },
    {
      "constant": false,
      "inputs": [
        {
          "name": "_beneficiary",
          "type": "address"
        }
      ],
      "name": "removeFromWhitelist",
      "outputs": [],
      "payable": false,
      "stateMutability": "nonpayable",
      "type": "function"
    },
    {
      "constant": true,
      "inputs": [],
      "name": "hasClosed",
      "outputs": [
        {
          "name": "",
          "type": "bool"
        }
      ],
      "payable": false,
      "stateMutability": "view",
      "type": "function"
    },
    {
      "constant": false,
      "inputs": [
        {
          "name": "_rate",
          "type": "uint256"
        }
      ],
      "name": "setRate",
      "outputs": [],
      "payable": false,
      "stateMutability": "nonpayable",
      "type": "function"
    },
    {
      "constant": false,
      "inputs": [],
      "name": "getRate",
      "outputs": [
        {
          "name": "",
          "type": "uint256"
        }
      ],
      "payable": false,
      "stateMutability": "nonpayable",
      "type": "function"
    },
    {
      "constant": false,
      "inputs": [],
      "name": "getGoal",
      "outputs": [
        {
          "name": "",
          "type": "uint256"
        }
      ],
      "payable": false,
      "stateMutability": "nonpayable",
      "type": "function"
    },
    {
      "constant": true,
      "inputs": [],
      "name": "investorsCount",
      "outputs": [
        {
          "name": "",
          "type": "uint256"
        }
      ],
      "payable": false,
      "stateMutability": "view",
      "type": "function"
    },
    {
      "constant": false,
      "inputs": [],
      "name": "withdrawAfterMainSale",
      "outputs": [],
      "payable": false,
      "stateMutability": "nonpayable",
      "type": "function"
    },
    {
      "constant": false,
      "inputs": [
        {
          "name": "_new_release_date",
          "type": "uint256"
        }
      ],
      "name": "updateReleaseDate",
      "outputs": [],
      "payable": false,
      "stateMutability": "nonpayable",
      "type": "function"
    },
    {
      "constant": false,
      "inputs": [
        {
          "name": "_new_close_date",
          "type": "uint256"
        }
      ],
      "name": "adjustCloseDate",
      "outputs": [],
      "payable": false,
      "stateMutability": "nonpayable",
      "type": "function"
    }
  ],
  "bytecode": "0x6080604052635d54a0806002556a4a723dc6b40b8a9a0000006005556a37d5ae550708a7f38000006006556000601160146101000a81548160ff0219169083151502179055503480156200005257600080fd5b5060405160c08062002e34833981018060405281019080805190602001909291908051906020019092919080519060200190929190805190602001909291908051906020019092919080519060200190929190505050336000806101000a81548173ffffffffffffffffffffffffffffffffffffffff021916908373ffffffffffffffffffffffffffffffffffffffff160217905550600086111515620000f857600080fd5b600073ffffffffffffffffffffffffffffffffffffffff168273ffffffffffffffffffffffffffffffffffffffff16141515156200013557600080fd5b600073ffffffffffffffffffffffffffffffffffffffff168573ffffffffffffffffffffffffffffffffffffffff16141515156200017257600080fd5b4284101515156200018257600080fd5b8383101515156200019257600080fd5b600081111515620001a257600080fd5b81620001ad620002aa565b808273ffffffffffffffffffffffffffffffffffffffff1673ffffffffffffffffffffffffffffffffffffffff168152602001915050604051809103906000f08015801562000200573d6000803e3d6000fd5b50601160006101000a81548173ffffffffffffffffffffffffffffffffffffffff021916908373ffffffffffffffffffffffffffffffffffffffff160217905550806010819055508560038190555084600160006101000a81548173ffffffffffffffffffffffffffffffffffffffff021916908373ffffffffffffffffffffffffffffffffffffffff16021790555083600b8190555082600c81905550505050505050620002bb565b604051610deb806200204983390190565b611d7e80620002cb6000396000f3006080604052600436106101b7576000357c0100000000000000000000000000000000000000000000000000000000900463ffffffff16806307a95e91146101c25780630ebaf5f5146101ef5780631515bc2b1461021c5780632b7110511461024b5780632c4e722e1461027657806334fcf437146102a15780633feb5f2b146102ce578063401938831461033b5780634042b66f146103665780634056f8a8146103915780634b6753bc146103bc5780634bb278f3146103e7578063679aefce146103fe578063715018a6146104295780637d3d6522146104405780638ab1d6811461046f5780638c10671c146104b25780638d4e4083146104ed5780638da5cb5b1461051c5780639b19251a14610573578063b4ef088f146105ce578063b5f7f636146105f9578063b7a8807c14610624578063b97a7d241461064f578063bbd2af2f1461067a578063bf58390314610691578063c2fb345a146106bc578063cff7744414610713578063e43252d71461076a578063eaac77ea146107ad578063ec8ac4d8146107d8578063f2fde38b1461080e578063fb54f7d314610851578063fbfa77cf1461087c578063fc0c546a146108d3575b6101c03361092a565b005b3480156101ce57600080fd5b506101ed60048036038101908080359060200190929190505050610ae8565b005b3480156101fb57600080fd5b5061021a60048036038101908080359060200190929190505050610b84565b005b34801561022857600080fd5b50610231610c05565b604051808215151515815260200191505060405180910390f35b34801561025757600080fd5b50610260610c11565b6040518082815260200191505060405180910390f35b34801561028257600080fd5b5061028b610c1e565b6040518082815260200191505060405180910390f35b3480156102ad57600080fd5b506102cc60048036038101908080359060200190929190505050610c24565b005b3480156102da57600080fd5b506102f960048036038101908080359060200190929190505050610c98565b604051808273ffffffffffffffffffffffffffffffffffffffff1673ffffffffffffffffffffffffffffffffffffffff16815260200191505060405180910390f35b34801561034757600080fd5b50610350610cd6565b6040518082815260200191505060405180910390f35b34801561037257600080fd5b5061037b610cdc565b6040518082815260200191505060405180910390f35b34801561039d57600080fd5b506103a6610ce2565b6040518082815260200191505060405180910390f35b3480156103c857600080fd5b506103d1610ce8565b6040518082815260200191505060405180910390f35b3480156103f357600080fd5b506103fc610cee565b005b34801561040a57600080fd5b50610413610dc9565b6040518082815260200191505060405180910390f35b34801561043557600080fd5b5061043e610dd3565b005b34801561044c57600080fd5b50610455610ed5565b604051808215151515815260200191505060405180910390f35b34801561047b57600080fd5b506104b0600480360381019080803573ffffffffffffffffffffffffffffffffffffffff169060200190929190505050610ee4565b005b3480156104be57600080fd5b506104eb600480360381019080803590602001908201803590602001919091929391929390505050610fb6565b005b3480156104f957600080fd5b506105026110d3565b604051808215151515815260200191505060405180910390f35b34801561052857600080fd5b506105316110e6565b604051808273ffffffffffffffffffffffffffffffffffffffff1673ffffffffffffffffffffffffffffffffffffffff16815260200191505060405180910390f35b34801561057f57600080fd5b506105b4600480360381019080803573ffffffffffffffffffffffffffffffffffffffff16906020019092919050505061110b565b604051808215151515815260200191505060405180910390f35b3480156105da57600080fd5b506105e361112b565b6040518082815260200191505060405180910390f35b34801561060557600080fd5b5061060e611131565b6040518082815260200191505060405180910390f35b34801561063057600080fd5b50610639611137565b6040518082815260200191505060405180910390f35b34801561065b57600080fd5b5061066461113d565b6040518082815260200191505060405180910390f35b34801561068657600080fd5b5061068f611147565b005b34801561069d57600080fd5b506106a66112f4565b6040518082815260200191505060405180910390f35b3480156106c857600080fd5b506106fd600480360381019080803573ffffffffffffffffffffffffffffffffffffffff1690602001909291905050506112fa565b6040518082815260200191505060405180910390f35b34801561071f57600080fd5b50610754600480360381019080803573ffffffffffffffffffffffffffffffffffffffff169060200190929190505050611312565b6040518082815260200191505060405180910390f35b34801561077657600080fd5b506107ab600480360381019080803573ffffffffffffffffffffffffffffffffffffffff16906020019092919050505061132a565b005b3480156107b957600080fd5b506107c26113fc565b6040518082815260200191505060405180910390f35b61080c600480360381019080803573ffffffffffffffffffffffffffffffffffffffff16906020019092919050505061092a565b005b34801561081a57600080fd5b5061084f600480360381019080803573ffffffffffffffffffffffffffffffffffffffff169060200190929190505050611402565b005b34801561085d57600080fd5b50610866611469565b6040518082815260200191505060405180910390f35b34801561088857600080fd5b5061089161146f565b604051808273ffffffffffffffffffffffffffffffffffffffff1673ffffffffffffffffffffffffffffffffffffffff16815260200191505060405180910390f35b3480156108df57600080fd5b506108e8611495565b604051808273ffffffffffffffffffffffffffffffffffffffff1673ffffffffffffffffffffffffffffffffffffffff16815260200191505060405180910390f35b600080600080610938610ed5565b15151561094457600080fd5b670de0b6b3a764000093503492506000600a60008773ffffffffffffffffffffffffffffffffffffffff1673ffffffffffffffffffffffffffffffffffffffff1681526020019081526020016000205414156109a95783831115156109a857600080fd5b5b60009150600090506109bb85846114bb565b6109c48361150b565b80935081925050506001821115610a32573373ffffffffffffffffffffffffffffffffffffffff166108fc839081150290604051600060405180830381858888f19350505050158015610a1b573d6000803e3d6000fd5b50610a2f828461166790919063ffffffff16565b92505b610a478360045461168090919063ffffffff16565b600481905550610a57858261169c565b8473ffffffffffffffffffffffffffffffffffffffff163373ffffffffffffffffffffffffffffffffffffffff167f623b3804fa71d67900d064613da8f94b9617215ee90799290593e1745087ad188584604051808381526020018281526020019250505060405180910390a3610ace8584611840565b610ad783611844565b610ae18584611a61565b5050505050565b6000809054906101000a900473ffffffffffffffffffffffffffffffffffffffff1673ffffffffffffffffffffffffffffffffffffffff163373ffffffffffffffffffffffffffffffffffffffff16141515610b4357600080fd5b601160149054906101000a900460ff16151515610b5f57600080fd5b4281118015610b6f5750600c5481115b1515610b7a57600080fd5b80600c8190555050565b6000809054906101000a900473ffffffffffffffffffffffffffffffffffffffff1673ffffffffffffffffffffffffffffffffffffffff163373ffffffffffffffffffffffffffffffffffffffff16141515610bdf57600080fd5b4281118015610bf057506002548114155b1515610bfb57600080fd5b8060028190555050565b6000600c544211905090565b6000600780549050905090565b60035481565b6000809054906101000a900473ffffffffffffffffffffffffffffffffffffffff1673ffffffffffffffffffffffffffffffffffffffff163373ffffffffffffffffffffffffffffffffffffffff16141515610c7f57600080fd5b600081111515610c8e57600080fd5b8060038190555050565b600781815481101515610ca757fe5b906000526020600020016000915054906101000a900473ffffffffffffffffffffffffffffffffffffffff1681565b60105481565b60045481565b60065481565b600c5481565b6000809054906101000a900473ffffffffffffffffffffffffffffffffffffffff1673ffffffffffffffffffffffffffffffffffffffff163373ffffffffffffffffffffffffffffffffffffffff16141515610d4957600080fd5b601160149054906101000a900460ff16151515610d6557600080fd5b610d6d610c05565b1515610d7857600080fd5b610d80611a65565b7f6823b073d48d6e3a7d385eeb601452d680e74bb46afe3255a7d778f3a9b1768160405160405180910390a16001601160146101000a81548160ff021916908315150217905550565b6000600354905090565b6000809054906101000a900473ffffffffffffffffffffffffffffffffffffffff1673ffffffffffffffffffffffffffffffffffffffff163373ffffffffffffffffffffffffffffffffffffffff16141515610e2e57600080fd5b6000809054906101000a900473ffffffffffffffffffffffffffffffffffffffff1673ffffffffffffffffffffffffffffffffffffffff167ff8df31144d9c2f0f6b59d69b8b98abd5459d07f2742c4df920b25aae33c6482060405160405180910390a260008060006101000a81548173ffffffffffffffffffffffffffffffffffffffff021916908373ffffffffffffffffffffffffffffffffffffffff160217905550565b60006010546004541015905090565b6000809054906101000a900473ffffffffffffffffffffffffffffffffffffffff1673ffffffffffffffffffffffffffffffffffffffff163373ffffffffffffffffffffffffffffffffffffffff16141515610f3f57600080fd5b601160149054906101000a900460ff16151515610f5b57600080fd5b6000600860008373ffffffffffffffffffffffffffffffffffffffff1673ffffffffffffffffffffffffffffffffffffffff16815260200190815260200160002060006101000a81548160ff02191690831515021790555050565b60008060009054906101000a900473ffffffffffffffffffffffffffffffffffffffff1673ffffffffffffffffffffffffffffffffffffffff163373ffffffffffffffffffffffffffffffffffffffff1614151561101357600080fd5b601160149054906101000a900460ff1615151561102f57600080fd5b600090505b828290508110156110ce57600160086000858585818110151561105357fe5b9050602002013573ffffffffffffffffffffffffffffffffffffffff1673ffffffffffffffffffffffffffffffffffffffff1673ffffffffffffffffffffffffffffffffffffffff16815260200190815260200160002060006101000a81548160ff0219169083151502179055508080600101915050611034565b505050565b601160149054906101000a900460ff1681565b6000809054906101000a900473ffffffffffffffffffffffffffffffffffffffff1681565b60086020528060005260406000206000915054906101000a900460ff1681565b600e5481565b600f5481565b600b5481565b6000601054905090565b33600860008273ffffffffffffffffffffffffffffffffffffffff1673ffffffffffffffffffffffffffffffffffffffff16815260200190815260200160002060009054906101000a900460ff1615156111a057600080fd5b426002541015156111b057600080fd5b601160149054906101000a900460ff1615156111cb57600080fd5b6000600960003373ffffffffffffffffffffffffffffffffffffffff1673ffffffffffffffffffffffffffffffffffffffff168152602001908152602001600020541015151561121a57600080fd5b6000600960003373ffffffffffffffffffffffffffffffffffffffff1673ffffffffffffffffffffffffffffffffffffffff1681526020019081526020016000205411156112f1576112ab33600960003373ffffffffffffffffffffffffffffffffffffffff1673ffffffffffffffffffffffffffffffffffffffff16815260200190815260200160002054611b05565b6000600960003373ffffffffffffffffffffffffffffffffffffffff1673ffffffffffffffffffffffffffffffffffffffff168152602001908152602001600020819055505b50565b600d5481565b60096020528060005260406000206000915090505481565b600a6020528060005260406000206000915090505481565b6000809054906101000a900473ffffffffffffffffffffffffffffffffffffffff1673ffffffffffffffffffffffffffffffffffffffff163373ffffffffffffffffffffffffffffffffffffffff1614151561138557600080fd5b601160149054906101000a900460ff161515156113a157600080fd5b6001600860008373ffffffffffffffffffffffffffffffffffffffff1673ffffffffffffffffffffffffffffffffffffffff16815260200190815260200160002060006101000a81548160ff02191690831515021790555050565b60055481565b6000809054906101000a900473ffffffffffffffffffffffffffffffffffffffff1673ffffffffffffffffffffffffffffffffffffffff163373ffffffffffffffffffffffffffffffffffffffff1614151561145d57600080fd5b61146681611c0a565b50565b60025481565b601160009054906101000a900473ffffffffffffffffffffffffffffffffffffffff1681565b600160009054906101000a900473ffffffffffffffffffffffffffffffffffffffff1681565b600073ffffffffffffffffffffffffffffffffffffffff168273ffffffffffffffffffffffffffffffffffffffff16141515156114f757600080fd5b6000811415151561150757600080fd5b5050565b600080600080600080600080945060009350879250600091506000905061153f600f5460055461166790919063ffffffff16565b600d81905550600654600e541115151561155857600080fd5b600354915061158a670de0b6b3a764000061157c8a85611d0490919063ffffffff16565b611d3c90919063ffffffff16565b90506115a3600e5460065461166790919063ffffffff16565b8111156115c4576115c1600e5460065461166790919063ffffffff16565b90505b6115d981600e5461168090919063ffffffff16565b600e8190555061160660646115f8607d84611d0490919063ffffffff16565b611d3c90919063ffffffff16565b93506000925061161f848661168090919063ffffffff16565b945061163684600d5461166790919063ffffffff16565b600d8190555061165185600f5461168090919063ffffffff16565b600f819055508483965096505050505050915091565b600082821115151561167557fe5b818303905092915050565b6000818301905082811015151561169357fe5b80905092915050565b81600860008273ffffffffffffffffffffffffffffffffffffffff1673ffffffffffffffffffffffffffffffffffffffff16815260200190815260200160002060009054906101000a900460ff1615156116f557600080fd5b600b5442101580156117095750600c544211155b151561171457600080fd5b6000600960008573ffffffffffffffffffffffffffffffffffffffff1673ffffffffffffffffffffffffffffffffffffffff1681526020019081526020016000205414156117a55781600960008573ffffffffffffffffffffffffffffffffffffffff1673ffffffffffffffffffffffffffffffffffffffff1681526020019081526020016000208190555061183b565b6117f782600960008673ffffffffffffffffffffffffffffffffffffffff1673ffffffffffffffffffffffffffffffffffffffff1681526020019081526020016000205461168090919063ffffffff16565b600960008573ffffffffffffffffffffffffffffffffffffffff1673ffffffffffffffffffffffffffffffffffffffff168152602001908152602001600020819055505b505050565b5050565b601160009054906101000a900473ffffffffffffffffffffffffffffffffffffffff1673ffffffffffffffffffffffffffffffffffffffff1663f340fa0182336040518363ffffffff167c0100000000000000000000000000000000000000000000000000000000028152600401808273ffffffffffffffffffffffffffffffffffffffff1673ffffffffffffffffffffffffffffffffffffffff1681526020019150506000604051808303818588803b15801561190157600080fd5b505af1158015611915573d6000803e3d6000fd5b50505050506000600a60003373ffffffffffffffffffffffffffffffffffffffff1673ffffffffffffffffffffffffffffffffffffffff1681526020019081526020016000205414156119c95760073390806001815401808255809150509060018203906000526020600020016000909192909190916101000a81548173ffffffffffffffffffffffffffffffffffffffff021916908373ffffffffffffffffffffffffffffffffffffffff160217905550505b611a1b81600a60003373ffffffffffffffffffffffffffffffffffffffff1673ffffffffffffffffffffffffffffffffffffffff1681526020019081526020016000205461168090919063ffffffff16565b600a60003373ffffffffffffffffffffffffffffffffffffffff1673ffffffffffffffffffffffffffffffffffffffff1681526020019081526020016000208190555050565b5050565b601160009054906101000a900473ffffffffffffffffffffffffffffffffffffffff1673ffffffffffffffffffffffffffffffffffffffff166343d726d66040518163ffffffff167c0100000000000000000000000000000000000000000000000000000000028152600401600060405180830381600087803b158015611aeb57600080fd5b505af1158015611aff573d6000803e3d6000fd5b50505050565b600160009054906101000a900473ffffffffffffffffffffffffffffffffffffffff1673ffffffffffffffffffffffffffffffffffffffff1663a9059cbb83836040518363ffffffff167c0100000000000000000000000000000000000000000000000000000000028152600401808373ffffffffffffffffffffffffffffffffffffffff1673ffffffffffffffffffffffffffffffffffffffff16815260200182815260200192505050602060405180830381600087803b158015611bca57600080fd5b505af1158015611bde573d6000803e3d6000fd5b505050506040513d6020811015611bf457600080fd5b8101908080519060200190929190505050505050565b600073ffffffffffffffffffffffffffffffffffffffff168173ffffffffffffffffffffffffffffffffffffffff1614151515611c4657600080fd5b8073ffffffffffffffffffffffffffffffffffffffff166000809054906101000a900473ffffffffffffffffffffffffffffffffffffffff1673ffffffffffffffffffffffffffffffffffffffff167f8be0079c531659141344cd1fd0a4f28419497f9722a3daafe3b4186f6b6457e060405160405180910390a3806000806101000a81548173ffffffffffffffffffffffffffffffffffffffff021916908373ffffffffffffffffffffffffffffffffffffffff16021790555050565b600080831415611d175760009050611d36565b8183029050818382811515611d2857fe5b04141515611d3257fe5b8090505b92915050565b60008183811515611d4957fe5b049050929150505600a165627a7a7230582038b0d0500863c3a1238c27cf1fed4bbd78e078689081d7b21675c3e9e11e1b460029608060405234801561001057600080fd5b50604051602080610deb83398101806040528101908080519060200190929190505050336000806101000a81548173ffffffffffffffffffffffffffffffffffffffff021916908373ffffffffffffffffffffffffffffffffffffffff160217905550600073ffffffffffffffffffffffffffffffffffffffff168173ffffffffffffffffffffffffffffffffffffffff16141515156100af57600080fd5b80600260006101000a81548173ffffffffffffffffffffffffffffffffffffffff021916908373ffffffffffffffffffffffffffffffffffffffff1602179055506000600260146101000a81548160ff0219169083600281111561010f57fe5b021790555050610cc7806101246000396000f3006080604052600436106100af576000357c0100000000000000000000000000000000000000000000000000000000900463ffffffff16806343d726d6146100b4578063521eb273146100cb578063715018a61461012257806383ef704d146101395780638c52dc411461017c5780638da5cb5b14610193578063c19d93fb146101ea578063cb13cddb14610223578063f2fde38b1461027a578063f340fa01146102bd578063fa89401a146102f3575b600080fd5b3480156100c057600080fd5b506100c9610336565b005b3480156100d757600080fd5b506100e0610496565b604051808273ffffffffffffffffffffffffffffffffffffffff1673ffffffffffffffffffffffffffffffffffffffff16815260200191505060405180910390f35b34801561012e57600080fd5b506101376104bc565b005b34801561014557600080fd5b5061017a600480360381019080803573ffffffffffffffffffffffffffffffffffffffff1690602001909291905050506105be565b005b34801561018857600080fd5b50610191610770565b005b34801561019f57600080fd5b506101a8610851565b604051808273ffffffffffffffffffffffffffffffffffffffff1673ffffffffffffffffffffffffffffffffffffffff16815260200191505060405180910390f35b3480156101f657600080fd5b506101ff610876565b6040518082600281111561020f57fe5b60ff16815260200191505060405180910390f35b34801561022f57600080fd5b50610264600480360381019080803573ffffffffffffffffffffffffffffffffffffffff169060200190929190505050610889565b6040518082815260200191505060405180910390f35b34801561028657600080fd5b506102bb600480360381019080803573ffffffffffffffffffffffffffffffffffffffff1690602001909291905050506108a1565b005b6102f1600480360381019080803573ffffffffffffffffffffffffffffffffffffffff169060200190929190505050610908565b005b3480156102ff57600080fd5b50610334600480360381019080803573ffffffffffffffffffffffffffffffffffffffff169060200190929190505050610a2f565b005b6000809054906101000a900473ffffffffffffffffffffffffffffffffffffffff1673ffffffffffffffffffffffffffffffffffffffff163373ffffffffffffffffffffffffffffffffffffffff1614151561039157600080fd5b6000600281111561039e57fe5b600260149054906101000a900460ff1660028111156103b957fe5b1415156103c557600080fd5b60028060146101000a81548160ff021916908360028111156103e357fe5b02179055507f1cdde67b72a90f19919ac732a437ac2f7a10fc128d28c2a6e525d89ce5cd9d3a60405160405180910390a1600260009054906101000a900473ffffffffffffffffffffffffffffffffffffffff1673ffffffffffffffffffffffffffffffffffffffff166108fc3073ffffffffffffffffffffffffffffffffffffffff16319081150290604051600060405180830381858888f19350505050158015610493573d6000803e3d6000fd5b50565b600260009054906101000a900473ffffffffffffffffffffffffffffffffffffffff1681565b6000809054906101000a900473ffffffffffffffffffffffffffffffffffffffff1673ffffffffffffffffffffffffffffffffffffffff163373ffffffffffffffffffffffffffffffffffffffff1614151561051757600080fd5b6000809054906101000a900473ffffffffffffffffffffffffffffffffffffffff1673ffffffffffffffffffffffffffffffffffffffff167ff8df31144d9c2f0f6b59d69b8b98abd5459d07f2742c4df920b25aae33c6482060405160405180910390a260008060006101000a81548173ffffffffffffffffffffffffffffffffffffffff021916908373ffffffffffffffffffffffffffffffffffffffff160217905550565b60008060009054906101000a900473ffffffffffffffffffffffffffffffffffffffff1673ffffffffffffffffffffffffffffffffffffffff163373ffffffffffffffffffffffffffffffffffffffff1614151561061b57600080fd5b6000600281111561062857fe5b600260149054906101000a900460ff16600281111561064357fe5b1415151561065057600080fd5b600160008373ffffffffffffffffffffffffffffffffffffffff1673ffffffffffffffffffffffffffffffffffffffff1681526020019081526020016000205490506000600160008473ffffffffffffffffffffffffffffffffffffffff1673ffffffffffffffffffffffffffffffffffffffff168152602001908152602001600020819055508173ffffffffffffffffffffffffffffffffffffffff166108fc829081150290604051600060405180830381858888f1935050505015801561071d573d6000803e3d6000fd5b508173ffffffffffffffffffffffffffffffffffffffff167fd7dee2702d63ad89917b6a4da9981c90c4d24f8c2bdfd64c604ecae57d8d0651826040518082815260200191505060405180910390a25050565b6000809054906101000a900473ffffffffffffffffffffffffffffffffffffffff1673ffffffffffffffffffffffffffffffffffffffff163373ffffffffffffffffffffffffffffffffffffffff161415156107cb57600080fd5b600060028111156107d857fe5b600260149054906101000a900460ff1660028111156107f357fe5b1415156107ff57600080fd5b6001600260146101000a81548160ff0219169083600281111561081e57fe5b02179055507f599d8e5a83cffb867d051598c4d70e805d59802d8081c1c7d6dffc5b6aca2b8960405160405180910390a1565b6000809054906101000a900473ffffffffffffffffffffffffffffffffffffffff1681565b600260149054906101000a900460ff1681565b60016020528060005260406000206000915090505481565b6000809054906101000a900473ffffffffffffffffffffffffffffffffffffffff1673ffffffffffffffffffffffffffffffffffffffff163373ffffffffffffffffffffffffffffffffffffffff161415156108fc57600080fd5b61090581610b85565b50565b6000809054906101000a900473ffffffffffffffffffffffffffffffffffffffff1673ffffffffffffffffffffffffffffffffffffffff163373ffffffffffffffffffffffffffffffffffffffff1614151561096357600080fd5b6000600281111561097057fe5b600260149054906101000a900460ff16600281111561098b57fe5b14151561099757600080fd5b6109e934600160008473ffffffffffffffffffffffffffffffffffffffff1673ffffffffffffffffffffffffffffffffffffffff16815260200190815260200160002054610c7f90919063ffffffff16565b600160008373ffffffffffffffffffffffffffffffffffffffff1673ffffffffffffffffffffffffffffffffffffffff1681526020019081526020016000208190555050565b600060016002811115610a3e57fe5b600260149054906101000a900460ff166002811115610a5957fe5b141515610a6557600080fd5b600160008373ffffffffffffffffffffffffffffffffffffffff1673ffffffffffffffffffffffffffffffffffffffff1681526020019081526020016000205490506000600160008473ffffffffffffffffffffffffffffffffffffffff1673ffffffffffffffffffffffffffffffffffffffff168152602001908152602001600020819055508173ffffffffffffffffffffffffffffffffffffffff166108fc829081150290604051600060405180830381858888f19350505050158015610b32573d6000803e3d6000fd5b508173ffffffffffffffffffffffffffffffffffffffff167fd7dee2702d63ad89917b6a4da9981c90c4d24f8c2bdfd64c604ecae57d8d0651826040518082815260200191505060405180910390a25050565b600073ffffffffffffffffffffffffffffffffffffffff168173ffffffffffffffffffffffffffffffffffffffff1614151515610bc157600080fd5b8073ffffffffffffffffffffffffffffffffffffffff166000809054906101000a900473ffffffffffffffffffffffffffffffffffffffff1673ffffffffffffffffffffffffffffffffffffffff167f8be0079c531659141344cd1fd0a4f28419497f9722a3daafe3b4186f6b6457e060405160405180910390a3806000806101000a81548173ffffffffffffffffffffffffffffffffffffffff021916908373ffffffffffffffffffffffffffffffffffffffff16021790555050565b60008183019050828110151515610c9257fe5b809050929150505600a165627a7a7230582040204289eecfb54ae4c19dadb773629a7e9b3477e3bf2a7aae7aaf02e7efe7540029",
  "source": "\r\npragma solidity ^0.4.23;\r\n\r\nimport \"./BitcademyToken.sol\";\r\nimport \"./RefundVault.sol\";\r\nimport \"openzeppelin-solidity/contracts/ownership/Ownable.sol\";\r\n\r\n/**\r\n * @title Crowdsale\r\n * @dev Crowdsale is a base contract for managing a token crowdsale,\r\n * allowing investors to purchase tokens with ether. This contract implements\r\n * such functionality in its most fundamental form and can be extended to provide additional\r\n * functionality and/or custom behavior.\r\n * The external interface represents the basic interface for purchasing tokens, and conform\r\n * the base architecture for crowdsales. They are *not* intended to be modified / overriden.\r\n * The internal interface conforms the extensible and modifiable surface of crowdsales. Override\r\n * the methods to add functionality. Consider using 'super' where appropiate to concatenate\r\n * behavior.\r\n */\r\ncontract PreICOBitcademyGold is Ownable{\r\n  using SafeMath for uint256;\r\n\r\n  // The token being sold\r\n  BitcademyToken public token;\r\n\r\n  // Address where funds are collected\r\n  //address public wallet;\r\n   //address public _multi_sig_wallet = 0xc5384F3d5602eC5F52e50F28e650685E9c5F3016;\r\n\r\n    //custom release date\r\n   uint256 public release_date = 1565827200;\r\n  // No of Tokens per Ether\r\n  uint256 public rate;\r\n\r\n  // Amount of wei raised\r\n  uint256 public weiRaised;\r\n\r\n\r\n  //amount of tokens to be sold for Private Sale preICO\r\n  uint256 public supply_cap = 90000000*(10**18);\r\n  // maximum token selleable without bonuses\r\n  uint256 public minimumTokens = 67500000*(10**18);\r\n\r\n\r\n  address[] public investors;\r\n\r\n\r\n\r\n  mapping(address => bool) public whitelist;\r\n  mapping (address => uint256) public tokenToClaim;\r\n// amount invested by the investor\r\n   mapping (address => uint256) public investedAmount;\r\n\r\n  uint256 public openingTime;\r\n  uint256 public closingTime;\r\n\r\n  // Remaining tokens which are yet to be sold\r\n uint256 public remainingTokens;\r\n\r\n  // Tokens sold excluding bonus\r\n  uint256 public tokenSoldExcludeBonus;\r\n  // total tokens sold\r\n  uint256 public totalTokenSold;\r\n  // minimum amount of funds to be raised in weis\r\n  uint256 public goal;\r\n\r\n  // refund vault used to hold funds while crowdsale is running\r\n  RefundVault public vault;\r\n  /**\r\n   * @dev Reverts if beneficiary is not whitelisted. Can be used when extending this contract.\r\n   */\r\n  modifier isWhitelisted(address _beneficiary) {\r\n    require(whitelist[_beneficiary]);\r\n    _;\r\n  }\r\n\r\n  /**\r\n   * @dev Reverts if not in crowdsale time range.\r\n   */\r\n  modifier onlyWhileOpen {\r\n    // solium-disable-next-line security/no-block-members\r\n    require(block.timestamp >= openingTime && block.timestamp <= closingTime);\r\n    _;\r\n  }\r\n\r\n\r\n  bool public isFinalized = false;\r\n\r\n  event Finalized();\r\n\r\n  /**\r\n   * @dev Must be called after crowdsale ends, to do some extra finalization\r\n   * work. Calls the contract's finalization function.\r\n   */\r\n  function finalize() onlyOwner public {\r\n    require(!isFinalized);\r\n    require(hasClosed());\r\n\r\n    finalization();\r\n    emit Finalized();\r\n\r\n    isFinalized = true;\r\n  }\r\n\r\n\r\n\r\n\r\n\r\n  /**\r\n   * @dev Checks whether funding goal was reached.\r\n   * @return Whether funding goal was reached\r\n   */\r\n  function goalReached() public view returns (bool) {\r\n    return weiRaised >= goal;\r\n  }\r\n\r\n\r\n\r\n  /**\r\n   * @dev vault finalization task, called when owner calls finalize()\r\n   */\r\n  function finalization() internal {\r\n      vault.close();\r\n\r\n  }\r\n\r\n  /**\r\n   * Event for token purchase logging\r\n   * @param purchaser who paid for the tokens\r\n   * @param beneficiary who got the tokens\r\n   * @param value weis paid for purchase\r\n   * @param amount amount of tokens purchased\r\n   */\r\n  event TokenPurchase(\r\n    address indexed purchaser,\r\n    address indexed beneficiary,\r\n    uint256 value,\r\n    uint256 amount\r\n  );\r\n\r\n  /**\r\n   * @param _rate No of tokens per ether\r\n   * @param _multi_sig_wallet Address where collected funds will be forwarded to\r\n   * @param _goal the  token soft cap\r\n   */\r\n  constructor(uint256 _rate , BitcademyToken _token, uint256 _openingTime, uint256 _closingTime, address _multi_sig_wallet, uint256 _goal) public {\r\n    require(_rate > 0);\r\n    require(_multi_sig_wallet != address(0));\r\n    require(_token != address(0));\r\n    require(_openingTime >= block.timestamp);\r\n    require(_closingTime >= _openingTime);\r\n    require(_goal > 0);\r\n\r\n    vault = new RefundVault(_multi_sig_wallet);\r\n    goal = _goal;\r\n    rate = _rate;\r\n    token = _token;\r\n    openingTime = _openingTime;\r\n    closingTime = _closingTime;\r\n   // remainingTokens = _remainingTokens;\r\n}\r\n  // -----------------------------------------\r\n  // Crowdsale external interface\r\n  // -----------------------------------------\r\n\r\n  /**\r\n   * @dev fallback function ***DO NOT OVERRIDE***\r\n   */\r\n  function () external payable {\r\n    buyTokens(msg.sender);\r\n  }\r\n\r\n  /**\r\n   * @dev low level token purchase ***DO NOT OVERRIDE***\r\n   * @param _beneficiary Address performing the token purchase\r\n   */\r\n  function buyTokens(address _beneficiary) public payable {\r\n    require(!goalReached());\r\n    uint256 minimumInvestment = 10**18;\r\n    uint256 weiValue = msg.value;\r\n    if (investedAmount[_beneficiary] == 0){\r\n      require(weiValue > minimumInvestment);\r\n    }\r\n\r\n    uint256 refundWeiAmt = 0;\r\n    uint256 tokens = 0;\r\n    _preValidatePurchase(_beneficiary, weiValue);\r\n\r\n    // calculate token amount to be delivered\r\n     (tokens, refundWeiAmt) = _getTokenAmount(weiValue);\r\n\r\n    /* If the remaining tokens are less than tokens calculated above\r\n     * proceed with purchase of remaining tokens and refund the remaining ethers\r\n     * to the caller\r\n     */\r\n    if(refundWeiAmt > 1) {\r\n      msg.sender.transfer(refundWeiAmt);\r\n      weiValue = weiValue.sub(refundWeiAmt);\r\n    }\r\n\r\n    // update state\r\n    weiRaised = weiRaised.add(weiValue);\r\n\r\n    _processPurchase(_beneficiary, tokens);\r\n    emit TokenPurchase(\r\n      msg.sender,\r\n      _beneficiary,\r\n      weiValue,\r\n      tokens\r\n    );\r\n\r\n    _updatePurchasingState(_beneficiary, weiValue);\r\n    _forwardFunds(weiValue);\r\n    _postValidatePurchase(_beneficiary, weiValue);\r\n  }\r\n\r\n  /**\r\n   * @dev Adds single address to whitelist.\r\n   * @param _beneficiary Address to be added to the whitelist\r\n   */\r\n  function addToWhitelist(address _beneficiary) external onlyOwner {\r\n    require(!isFinalized);\r\n    whitelist[_beneficiary] = true;\r\n  }\r\n\r\n  /**\r\n   * @dev Adds list of addresses to whitelist. Not overloaded due to limitations with truffle testing.\r\n   * @param _beneficiaries Addresses to be added to the whitelist\r\n   */\r\n  function addManyToWhitelist(address[] _beneficiaries) external onlyOwner {\r\n    require(!isFinalized);\r\n    for (uint256 i = 0; i < _beneficiaries.length; i++) {\r\n      whitelist[_beneficiaries[i]] = true;\r\n    }\r\n  }\r\n\r\n  /**\r\n   * @dev Removes single address from whitelist.\r\n   * @param _beneficiary Address to be removed to the whitelist\r\n   */\r\n  function removeFromWhitelist(address _beneficiary) external onlyOwner {\r\n    require(!isFinalized);\r\n    whitelist[_beneficiary] = false;\r\n  }\r\n\r\n  /**\r\n   * @dev Checks whether the period in which the crowdsale is open has already elapsed.\r\n   * @return Whether crowdsale period has elapsed\r\n   */\r\n  function hasClosed() public view returns (bool) {\r\n    // solium-disable-next-line security/no-block-members\r\n    return block.timestamp > closingTime;\r\n  }\r\n\r\n  // -----------------------------------------\r\n  // Internal interface (extensible)\r\n  // -----------------------------------------\r\n\r\n  /**\r\n   * @dev Validation of an incoming purchase. Use require statements to revert state when conditions are not met. Use super to concatenate validations.\r\n   * @param _beneficiary Address performing the token purchase\r\n   * @param _weiAmount Value in wei involved in the purchase\r\n   */\r\n  function _preValidatePurchase(\r\n    address _beneficiary,\r\n    uint256 _weiAmount\r\n  )\r\n    internal\r\n  {\r\n    require(_beneficiary != address(0));\r\n    require(_weiAmount != 0);\r\n  }\r\n\r\n  /**\r\n   * @dev Validation of an executed purchase. Observe state and use revert statements to undo rollback when valid conditions are not met.\r\n   * @param _beneficiary Address performing the token purchase\r\n   * @param _weiAmount Value in wei involved in the purchase\r\n   */\r\n  function _postValidatePurchase(\r\n    address _beneficiary,\r\n    uint256 _weiAmount\r\n  )\r\n    internal\r\n  {\r\n    // optional override\r\n  }\r\n\r\n  /**\r\n   * @dev Source of tokens. Override this method to modify the way in which the crowdsale ultimately gets and sends its tokens.\r\n   * @param _beneficiary Address performing the token purchase\r\n   * @param _tokenAmount Number of tokens to be emitted\r\n   */\r\n  function _deliverTokens(\r\n    address _beneficiary,\r\n    uint256 _tokenAmount\r\n  )\r\n    internal\r\n  {\r\n    token.transfer(_beneficiary, _tokenAmount);\r\n\r\n  }\r\n\r\n  /**\r\n   * @dev Executed when a purchase has been validated and is ready to be executed. Not necessarily emits/sends tokens.\r\n   * @param _beneficiary Address receiving the tokens\r\n   * @param _tokenAmount Number of tokens to be purchased\r\n   */\r\n  function _processPurchase(\r\n    address _beneficiary,\r\n    uint256 _tokenAmount\r\n  )\r\n    internal\r\n    isWhitelisted(_beneficiary)\r\n    onlyWhileOpen\r\n  {\r\n    //_deliverTokens(_beneficiary, _tokenAmount);\r\n    if (tokenToClaim[_beneficiary] == 0){\r\n    tokenToClaim[_beneficiary] = _tokenAmount;\r\n    }\r\n    else{\r\n      tokenToClaim[_beneficiary] = tokenToClaim[_beneficiary].add(_tokenAmount);\r\n    }\r\n  }\r\n\r\n  /**\r\n   * @dev Override for extensions that require an internal state to check for validity (current user contributions, etc.)\r\n   * @param _beneficiary Address receiving the tokens\r\n   * @param _weiAmount Value in wei involved in the purchase\r\n   */\r\n  function _updatePurchasingState(\r\n    address _beneficiary,\r\n    uint256 _weiAmount\r\n  )\r\n    internal\r\n  {\r\n    // optional override\r\n  }\r\n\r\n  /**\r\n   * @dev Override to extend the way in which ether is converted to tokens.\r\n   * @param _weiAmount Value in wei to be converted into tokens\r\n   * @return Token price in weis\r\n   */\r\n  function _getTokenAmount(uint256 _weiAmount)\r\n    internal  returns (uint256, uint256)\r\n  {\r\n    uint256 noOfTokens = 0;\r\n    uint256 tokensInCondition = 0;\r\n    uint256 weiAmount  = _weiAmount;\r\n    uint256 currentRate = 0;\r\n    uint256 tokensMinusBonus = 0;\r\n    remainingTokens = supply_cap.sub(totalTokenSold);\r\n    require(tokenSoldExcludeBonus <= minimumTokens);\r\n     currentRate = rate;\r\n      tokensMinusBonus = currentRate.mul(_weiAmount).div(10**18);\r\n      if (tokensMinusBonus > minimumTokens.sub(tokenSoldExcludeBonus)) {\r\n        tokensMinusBonus = minimumTokens.sub(tokenSoldExcludeBonus);\r\n      }\r\n      tokenSoldExcludeBonus = tokenSoldExcludeBonus.add(tokensMinusBonus);\r\n      tokensInCondition = tokensMinusBonus.mul(125).div(100);\r\n      weiAmount = 0;\r\n      noOfTokens = noOfTokens.add(tokensInCondition);\r\n      remainingTokens = remainingTokens.sub(tokensInCondition);\r\n      totalTokenSold = totalTokenSold.add(noOfTokens);\r\n    return (noOfTokens, weiAmount);\r\n  }\r\n\r\n  /**\r\n   * @dev Determines how ETH is stored/forwarded on purchases.\r\n   */\r\n  function _forwardFunds(uint256 _value) internal {\r\n    vault.deposit.value(_value)(msg.sender);\r\n    if (investedAmount[msg.sender] == 0){\r\n      investors.push(msg.sender);\r\n    }\r\n    investedAmount[msg.sender] = investedAmount[msg.sender].add(_value);\r\n  }\r\n   /**\r\n   * @dev Set the exchange rate of the token\r\n   */\r\n  function setRate(uint256 _rate) public onlyOwner{\r\n    require(_rate > 0);\r\n    rate = _rate;\r\n  }\r\n\r\n   /**\r\n   * @dev Get the token exchange rate\r\n   */\r\n  function getRate() public returns (uint256) {\r\n    return rate;\r\n  }\r\n  /**\r\n   * @dev Get the token  sale  goal\r\n   */\r\n  function getGoal() public returns (uint256) {\r\n    return goal;\r\n  }\r\n   /**\r\n   * @dev calculate the number of investors in crowdsale\r\n   */\r\n\r\n  function investorsCount() public constant returns (uint) {\r\n    return investors.length;\r\n  }\r\n\r\n    /**\r\n   * @dev Allow investors to withdraw their tokens after the mainsale is done\r\n   */\r\n\r\n  function withdrawAfterMainSale() isWhitelisted(msg.sender) public {\r\n    //require(goalReached());\r\n    require(release_date < now);\r\n    require(isFinalized);\r\n    require(tokenToClaim[msg.sender] >= 0);\r\n      if (tokenToClaim[msg.sender] > 0) {\r\n         _deliverTokens(msg.sender, tokenToClaim[msg.sender]);\r\n         tokenToClaim[msg.sender] = 0;\r\n      }\r\n  }\r\n\r\n    /**\r\n   * @dev Update the release date of purchased tokens\r\n   */\r\n\r\n  function updateReleaseDate(uint256 _new_release_date) onlyOwner public{\r\n    require(_new_release_date > now &&  _new_release_date != release_date);\r\n     release_date = _new_release_date;\r\n    }\r\n\r\n      /**\r\n   * @dev Update the close date of crowdsale\r\n   */\r\n\r\n    function adjustCloseDate(uint256 _new_close_date) onlyOwner public{\r\n    require(!isFinalized);\r\n    require(_new_close_date > now &&  _new_close_date > closingTime );\r\n     closingTime = _new_close_date;\r\n    }\r\n\r\n}\r\n",
  "sourcePath": "/home/kevin/BTMG/Bitcademy_ICO/contracts/PreICOBitcademyGold.sol",
  "compiler": {
    "name": "solc",
    "version": "0.4.24+commit.e67f0147.Emscripten.clang"
  },
  "schemaVersion": "2.0.1",
  "updatedAt": "2019-04-25T07:04:06.568Z"
}